:10000000FAC000000C9499190C94C4190C94EF19BF
:100010000C941A1A0C94451A0C94701A0C949B1A8E
:100020000C94C61AFAC500009BC60000D5C6000095
:1000300013C1000011C100000FC100000DC100007C
:100040000BC1000009C1000007C1000005C100008C
:1000500003C1000001C10000FFC000000C94F11AB0
:10006000FBC000000C949B1E0C94D11EF5C0000038
:10007000F3C00000F1C00000EFC00000EDC00000C0
:10008000EBC00000E9C00000E7C00000E5C00000D0
:100090000C94271F0C945D1FDFC000000C94060C0D
:1000A000DBC00000D9C00000D7C00000D5C00000F0
:1000B000D3C00000D1C00000CFC00000CDC0000000
:1000C000CBC00000C9C000000C9424160C94B31FD0
:1000D0000C94E91FC1C000000C943F200C947520C3
:1000E000BBC0000000000A0B02090C0D0E0807033C
:1000F00004010000000000000000000000000000FB
:1001000000000000000000000000000000000000EF
:1001100012111000000000000000000000000000AC
:100120000000000000000000000001021020200874
:100130000810204010204080020102010804020142
:1001400001020408102040808040201008040201B1
:10015000800402018040201008040201080402010A
:100160000102040810204080010204081020408091
:1001700005050505070508080808020202020A0A23
:100180000808040404040101010101010101030341
:10019000030303030303040707070C0C0C0C0C0CEC
:1001A0000C0C0202020206060606060606060B0BE9
:1001B0000B0B0B0B0B0B00002200250028002B0063
:1001C0002E003100340002010000050108010B017E
:1001D00000002100240027002A002D0030003300F9
:1001E00001010000040107010A0174092D0FFA1E24
:1001F000861F12209E2011241FBECFEFD1E2DEBF4A
:10020000CDBF00E00CBF12E0A0E0B2E0E6E4F7E40E
:1002100000E00BBF02C007900D92A43BB107D9F7D5
:1002200026E0A4EBB2E001C01D92A03CB207E1F7CA
:1002300010E0CBEFD0E000E006C021970109802F4D
:10024000FE010E942323C53FD10780E00807A9F7DC
:100250000E9493160C94A123D3CE882311F18230EF
:1002600071F08330A9F08130E1F426E030E040E81D
:1002700055E260E070E081E090E00C940A1626E020
:1002800030E040E855E260E070E082E090E0F5CFD9
:1002900026E030E040E855E260E070E083E090E086
:1002A000ECCF08954F925F926F927F928F929F92C0
:1002B000AF92BF92CF92EF92FF920F931F93CF9383
:1002C000DF93CDB7DEB72B013A01F02EB40130E059
:1002D0002830310511F424E030E00AE010E0CC20B1
:1002E00061F091E000E110E0C91639F0E2E008E0C9
:1002F00010E0CE1611F002E010E0813009F4E8C001
:10030000B0F0823009F4C5C1833009F4A3C2DF9193
:10031000CF911F910F91FF90EF90CF90BF90AF9032
:100320009F908F907F906F905F904F900895F11005
:100330001BC0269DA001279D500D369D500D1124F8
:10034000B2018AEE93E0DF91CF911F910F91FF9060
:10035000EF90CF90BF90AF909F908F907F906F90D5
:100360005F904F900C94CB208AEE93E00E9407217F
:10037000E11014C0640C751C6414750441F2F201A0
:1003800061912F01F1E0A8018AEE93E0FF1203C012
:100390000E94D921F1CF0E94DF21EECF81E0E81247
:1003A00015C091E0691A710808F4B1CFF2016191AA
:1003B00071912F01F1E0A8018AEE93E0FF1203C0D2
:1003C0000E94EF21EECF0E94F421EBCF82E0E812F1
:1003D00017C091E0691A710808F499CFF2014191B0
:1003E0005191619171912F01F1E098018AEE93E0B2
:1003F000FF1203C00E94CD21ECCF0E940422E9CF5E
:1004000083E0E81218C0640C751C6414750409F4C8
:100410007ECFF20161912F01062E000C770BF1E0E7
:10042000A8018AEE93E0FF1203C00E94A721EDCF3E
:100430000E94AD21EACF84E0E81215C091E0691A6C
:10044000710808F464CFF201619171912F01F1E01C
:10045000A8018AEE93E0FF1203C00E94A721EECF0D
:100460000E94AD21EBCF85E0E81217C091E0691A38
:10047000710808F44CCFF201419151916191719151
:100480002F01F1E098018AEE93E0FF1203C00E9471
:100490006221ECCF0E94BD21E9CF86E0E81237CF80
:1004A000B12C91E0691A710808F431CFF201419141
:1004B0005191619171912F01F1E095018AEE93E0E4
:1004C000FF1203C00E94F022ECCF0E94F122E9CF7C
:1004D000F1100BC0269DA001279D500D369D500D9B
:1004E0001124B20187E894E02ECF87E894E00E94BF
:1004F0000721E11015C0640C751C4614570409F45B
:1005000006CFF20161912F01F1E0A80187E894E0A4
:10051000FF1203C00E94D921F0CF0E94DF21EDCF4E
:1005200081E0E81215C091E0691A710808F4EFCE75
:10053000F201619171912F01F1E0A80187E894E047
:10054000FF1203C00E94EF21EECF0E94F421EBCFF7
:1005500082E0E81217C091E0691A710808F4D7CE5A
:10056000F20141915191619171912F01F1E0980156
:1005700087E894E0FF1203C00E94CD21ECCF0E94D7
:100580000422E9CF83E0E81218C0640C751C6414DF
:10059000750409F4BCCEF20161912F01062E000C06
:1005A000770BF1E0A80187E894E0FF1203C00E94F6
:1005B000A721EDCF0E94AD21EACF84E0E81215C05B
:1005C00091E0691A710808F4A2CEF201619171916B
:1005D0002F01F1E0A80187E894E0FF1203C00E9418
:1005E000A721EECF0E94AD21EBCF85E0E81217C026
:1005F00091E0691A710808F48ACEF2014191519193
:10060000619171912F01F1E0980187E894E0FF1268
:1006100003C00E946221ECCF0E94BD21E9CF86E099
:10062000E81275CEB12C91E0691A710808F46FCE0A
:10063000F20141915191619171912F01F1E0FF120D
:1006400014C0C11006C0950187E894E00E94F02212
:10065000EACFCB01BA010E943317AB01BC0198016C
:1006600087E894E00E946221DECFC11006C09501A8
:1006700087E894E00E94F122D6CFCB01BA010E9414
:100680003317AB01BC01980187E894E00E94BD21BB
:10069000CACFF1100BC0269DA001279D500D369D9D
:1006A000500D1124B20184E295E04DCE84E295E034
:1006B0000E940721E11015C0640C751C46145704F4
:1006C00009F425CEF20161912F01F1E0A80184E245
:1006D00095E0FF1203C00E94D921F0CF0E94DF21D4
:1006E000EDCF81E0E81215C091E0691A710808F4B5
:1006F0000ECEF201619171912F01F1E0A80184E227
:1007000095E0FF1203C00E94EF21EECF0E94F4217A
:10071000EBCF82E0E81217C091E0691A710808F483
:10072000F6CDF20141915191619171912F01F1E06A
:10073000980184E295E0FF1203C00E94CD21ECCF26
:100740000E940422E9CF83E0E81218C0640C751CF3
:100750006414750409F4DBCDF20161912F01062EBA
:10076000000C770BF1E0A80184E295E0FF1203C0D2
:100770000E94A721EDCF0E94AD21EACF84E0E812CC
:1007800015C091E0691A710808F4C1CDF2016191B8
:1007900071912F01F1E0A80184E295E0FF1203C0FE
:1007A0000E94A721EECF0E94AD21EBCF85E0E81299
:1007B00017C091E0691A710808F4A9CDF2014191BE
:1007C0005191619171912F01F1E0980184E295E0DE
:1007D000FF1203C00E946221ECCF0E94BD21E9CF2D
:1007E00086E0E81294CDB12C91E0691A710808F402
:1007F0008ECDF20141915191619171912F01F1E002
:10080000FF1214C0C11006C0950184E295E00E9459
:10081000F022EACFCB01BA010E943317AB01BC0131
:10082000980184E295E00E946221DECFC11006C0EB
:10083000950184E295E00E94F122D6CFCB01BA0166
:100840000E943317AB01BC01980184E295E00E943D
:10085000BD21CACFF1100BC0269DA001279D500DD0
:10086000369D500D1124B20181EC95E06CCD81ECE8
:1008700095E00E940721E11015C0640C751C6414FA
:10088000750409F444CDF20161912F01F1E0A80152
:1008900081EC95E0FF1203C00E94D921F0CF0E94A5
:1008A000DF21EDCF81E0E81215C091E0691A7108EF
:1008B00008F42DCDF201619171912F01F1E0A801B1
:1008C00081EC95E0FF1203C00E94EF21EECF0E9461
:1008D000F421EBCF82E0E81217C091E0691A7108A9
:1008E00008F415CDF20141915191619171912F015F
:1008F000F1E0980181EC95E0FF1203C00E94CD2148
:10090000ECCF0E940422E9CF83E0E81218C0640C07
:10091000751C6414750409F4FACCF20161912F017D
:10092000062E000C770BF1E0A80181EC95E0FF1298
:1009300003C00E94A721EDCF0E94AD21EACF84E041
:10094000E81215C091E0691A710808F4E0CCF201D0
:10095000619171912F01F1E0A80181EC95E0FF1206
:1009600003C00E94A721EECF0E94AD21EBCF85E00E
:10097000E81217C091E0691A710808F4C8CCF201B6
:1009800041915191619171912F01F1E0980181ECB8
:1009900095E0FF1203C00E946221ECCF0E94BD21AE
:1009A000E9CF86E0E812B3CCB12C91E0691A710866
:1009B00008F4ADCCF20141915191619171912F01F7
:1009C000F1E0FF1214C0C11006C0950181EC95E062
:1009D0000E94F022EACFCB01BA010E943317AB018B
:1009E000BC01980181EC95E00E946221DECFC1102C
:1009F00006C0950181EC95E00E94F122D6CFCB0193
:100A0000BA010E943317AB01BC01980181EC95E05B
:100A10000E94BD21CACF9CB1892F807294FF16C05D
:100A2000811116C08091B8029091B902A091BA02CA
:100A3000B091BB020196A11DB11D8093B8029093A5
:100A4000B902A093BA02B093BB0208958111EACF14
:100A50008091B8029091B902A091BA02B091BB0204
:100A60000197A109B109E9CF99B1892F847093FF4A
:100A700016C08823B1F08091C6029091C702A09160
:100A8000C802B091C9020196A11DB11D8093C60292
:100A90009093C702A093C802B093C9020895882317
:100AA00051F38091C6029091C702A091C802B09103
:100AB000C9020197A109B109E9CF8CB190E09C016D
:100AC000220F232F221F330B86FF16C08091D402E2
:100AD0009091D502A091D602B091D702232BB9F400
:100AE0000196A11DB11D8093D4029093D502A093CD
:100AF000D602B093D70208958091D4029091D50286
:100B0000A091D602B091D7022130310549F3019767
:100B1000A109B109E8CF9CB1892F807195FF16C05A
:100B20008823B1F08091B8029091B902A091BA02E5
:100B3000B091BB020196A11DB11D8093B8029093A4
:100B4000B902A093BA02B093BB020895882351F36F
:100B50008091B8029091B902A091BA02B091BB0203
:100B60000197A109B109E9CF99B1892F887092FF46
:100B700016C0811116C08091C6029091C702A09143
:100B8000C802B091C9020196A11DB11D8093C60291
:100B90009093C702A093C802B093C902089581112F
:100BA000EACF8091C6029091C702A091C802B0918D
:100BB000C9020197A109B109E9CF8CB190E086FB88
:100BC000222720F930E0880F892F881F990B019781
:100BD000B1F48091D4029091D502A091D602B09147
:100BE000D702232BB1F00196A11DB11D8093D40231
:100BF0009093D502A093D602B093D7020895809126
:100C0000D4029091D502A091D602B091D702232BA5
:100C100051F30197A109B109E9CF1F920F920FB6C5
:100C20000F9211242F933F934F935F938F939F9332
:100C3000AF93BF9383B121E030E0982F907285FD90
:100C400002C030E020E080744091F8025091F90237
:100C50004217530709F062C021E030E0811102C061
:100C600030E020E03093F7022093F602882309F168
:100C7000911121C08091F0029091F102A091F202B5
:100C8000B091F3020196A11DB11D8093F0029093E3
:100C9000F102A093F202B093F3028091F0029091DE
:100CA000F102A091F202B091F3020196A11DB11DD3
:100CB00020C09111DFCF8091F0029091F102A091BC
:100CC000F202B091F3020197A109B1098093F002F9
:100CD0009093F102A093F202B093F3028091F0029C
:100CE0009091F102A091F202B091F3020197A10953
:100CF000B1098093F0029093F102A093F202B093B5
:100D0000F302BF91AF919F918F915F914F913F916E
:100D10002F910F900FBE0F901F9018953093F902EE
:100D20002093F802992371F0882371F08091F002EA
:100D30009091F102A091F202B091F3020196A11DEF
:100D4000B11DC4CF882391F38091F0029091F102FC
:100D5000A091F202B091F3020197A109B10995CFD8
:100D60001F920F920FB60F9211248F939F93AF9300
:100D7000BF938091060181709091030190FF1EC086
:100D800081111EC08091E2029091E302A091E402E1
:100D9000B091E5020196A11DB11D8093E2029093EE
:100DA000E302A093E402B093E502BF91AF919F915B
:100DB0008F910F900FBE0F901F9018958111E2CF69
:100DC0008091E2029091E302A091E402B091E502E9
:100DD0000197A109B109E1CF1F920F920FB60F92AF
:100DE00011248F939F93AF93BF93809103018170E0
:100DF0009091060190FF1EC08823F1F08091E202DD
:100E00009091E302A091E402B091E5020196A11D48
:100E1000B11D8093E2029093E302A093E402B093A9
:100E2000E502BF91AF919F918F910F900FBE0F90F0
:100E30001F901895882311F38091E2029091E302AC
:100E4000A091E402B091E5020197A109B109E1CFB7
:100E50000F931F93CF93DF938C018EE0809FE0016F
:100E6000819FD00D1124CC54DD4F798368835B833F
:100E70004A838881998160E00E94081D8A819B8154
:100E800060E00E94081D8881998161E00E94441DF4
:100E90008A819B8161E00E94441D0230110509F4A2
:100EA00087C064F40115110501F10130110509F441
:100EB00050C0DF91CF911F910F910895033011051C
:100EC00009F4A5C004301105A1F780916800816084
:100ED0008093680080916B00806280936B008091AA
:100EE0006B00806480936B00E4CF8091B40290919A
:100EF000B50202978431910530F585599D4FFC016B
:100F00008081082E000C990B41E050E06BE075E009
:100F10000E941F198091B6029091B7020297843106
:100F20009105A0F485599D4FFC018081082E000C8D
:100F3000990B41E050E06BE875E0DF91CF911F9194
:100F40000F910C941F198FEF9FEFDECF8FEF9FEF64
:100F5000F0CF8091C2029091C30202978431910533
:100F600008F585599D4FFC018081082E000C990BD6
:100F700041E050E064EB75E00E941F198091C402CB
:100F80009091C50202978431910578F485599D4F5F
:100F9000FC018081082E000C990B41E050E064E3D5
:100FA00075E0CBCF8FEF9FEFE3CF8FEF9FEFF5CFC4
:100FB0008091D0029091D10202978431910508F579
:100FC00085599D4FFC018081082E000C990B41E052
:100FD00050E06DE575E00E941F198091D20290915A
:100FE000D30202978431910578F485599D4FFC0115
:100FF0008081082E000C990B41E050E06DED75E00A
:101000009CCF8FEF9FEFE3CF8FEF9FEFF5CF8091D6
:10101000680084608093680080916800826080939B
:10102000680080916D00816080936D0080916C00FC
:10103000826080936C003DCF2EE0269FF001279FB9
:10104000F00D1124EC54FD4F6481758186819781E8
:10105000089590E080E0089580912E0390912F03F1
:10106000891B990B089590912F0380912E032FEFE8
:101070003FEF981748F4E92FF0E0E05DFC4F208146
:1010800030E09F5F90932F03C9010895E0912F03F3
:1010900080912E03E81730F4F0E0E05DFC4F808192
:1010A00090E008958FEF9FEF08950895CF93DF9319
:1010B000EC01E0910603F09107033097F1F0909175
:1010C0002F0380912E039817C0F090E0292F30E075
:1010D0002617370754F4DE01A20FB31F4C91205D91
:1010E0003C4FD9014C939F5FF1CF10922F03609337
:1010F0002E03CB01DF91CF911994DF91CF91089509
:10110000E0910803F0910903309729F010920C0345
:1011100010920B0319940895CF93DF931F92CDB7CC
:10112000DEB7698320910A032223F9F020910B0393
:10113000203258F021E030E0FC013383228390E03C
:1011400080E00F90DF91CF91089580910C03E82FFC
:10115000F0E0E35FFC4F998190838F5F80930C03F5
:1011600080930B0381E090E0ECCF61E0CE0101962B
:10117000F7D0F8CFCF92DF92EF92FF920F931F93A9
:10118000CF93DF937C01CB018A0120910A032223B4
:1011900089F0EB016B01C40ED51ECC15DD0561F0A5
:1011A0006991D701ED91FC910190F081E02DC7018B
:1011B0001995F3CF642FD4D0C801DF91CF911F913F
:1011C0000F91FF90EF90DF90CF90089510922F0332
:1011D00010922E0310920C0310920B0396D080E80D
:1011E00098E0EAD086E598E0E2C081E080930A03C7
:1011F00060932D0310920C0310920B0308950F932C
:10120000062F21E040910B036DE073E080912D03E8
:10121000D5D110920C0310920B0310920A030F9178
:1012200008954F925F926F927F92AF92BF92CF924A
:10123000EF92FF920F931F93CF93DF935C01F62EF3
:10124000D42F28013901EE2009F1CFDFCE2DC43093
:1012500008F0C3E0C150B8F028E0C29FC0011124DB
:10126000A301920104C056954795379527958A9515
:10127000D2F7B901D501ED91FC910190F081E02DFB
:10128000C5011995E7CF60E0C501B9DF4D2FD13217
:1012900008F040E22C2D60E373E08F2DACD010926B
:1012A0002F0380932E03DF91CF911F910F91FF9019
:1012B000EF90CF90BF90AF907F906F905F904F90E6
:1012C0000895CF92EF920F931F93C22EE12C00E06E
:1012D00010E09801A6DF1F910F91EF90CF90089535
:1012E00021E0EFCF61E08BCFEAEFF2E013821282D0
:1012F00088EE93E0A0E0B0E084839583A683B78373
:1013000083E892E09183808308951092C30381E083
:101310008093C1031092C00361E084E10E94441DE8
:1013200061E085E10E94441DE9EBF0E080818E7F61
:10133000808380818D7F808388E48093B80085E4FA
:101340008093BC000895ECEBF0E080818A7B808381
:1013500060E084E10E94441D60E085E10C94441D3E
:1013600020917203260F3327331F21323105ECF40D
:101370002091C303FC0190E080E0243069F082E01A
:101380000895A09172032191AC014C585C4FA40FB9
:10139000B52FB11D2C930196861798F38091720397
:1013A000680F6093720380E0089581E00895909340
:1013B000B7038093B60308959093B9038093B8035D
:1013C000089585EC8093BC001092C3030895CF93D9
:1013D000DF9391E09093BB03882351F0C091B80054
:1013E000D091BA00B0DF91DFD093BA00C093B800BB
:1013F000DF91CF9108954F925F926F927F928F927B
:101400009F92AF92BF92CF92DF92EF92FF920F9393
:101410001F93CF93DF93D82F162F072FC42FB22EF1
:10142000413208F0A2C00E94471B6B017C018091F1
:10143000C303811176C081E08093C303B092C103DE
:101440009FEF90935003109295039C0F90939403F9
:101450008093C2038091C203DD0FD82BD093C203C7
:101460008091C003813009F082C01092C0030E94B5
:10147000471B6B017C018091C2038093BB0080916C
:10148000BC039091BD03A091BE03B091BF03892B13
:101490008A2B8B2BA1F00E94471B8090BC0390905D
:1014A000BD03A090BE03B090BF036C197D098E09E7
:1014B0009F0986169706A806B90608F453C08091BE
:1014C000BC0083FDD8CF85EC8093BC000E94471BF5
:1014D0006B017C018091C303813009F44AC0809183
:1014E00095038C1710F4C0919503A6E9B3E0912FF2
:1014F000E12FF02F8E2F891B8C1708F45CC08C2FE6
:10150000DF91CF911F910F91FF90EF90DF90CF90DF
:10151000BF90AF909F908F907F906F905F904F9013
:1015200008958091BC039091BD03A091BE03B0913A
:10153000BF03892B8A2B8B2B09F479CF0E94471B81
:101540004090BC035090BD036090BE037090BF03F9
:101550006C197D098E099F0946165706680679069B
:1015600008F065CF8091BA0332DFC0E0C8CF85EEC6
:10157000ABCF8091BC039091BD03A091BE03B0910D
:10158000BF03892B8A2B8B2B09F4A4CF0E94471B06
:101590008090BC039090BD03A090BE03B090BF03A9
:1015A0006C197D098E099F0986169706A806B9064B
:1015B00008F090CFD7CF8D9181939CCF4F925F92BF
:1015C0006F927F928F929F92AF92BF92EF92FF9213
:1015D0000F931F93CF93DF93413208F0D8C0F22EC0
:1015E000D42FE72E162FC82F0E94471B4B015C01FA
:1015F0008091C303811170C082E08093C303009384
:10160000C1038FEF8093500310929503D0939403FE
:10161000912FA6E9B3E0E12FFE2D8E2F891B8D17A8
:1016200008F48EC01092C2038091C203CC0FC82B65
:10163000C093C2038091C003813009F084C010922E
:10164000C0030E94471B4B015C018091C203809341
:10165000BB008091BC039091BD03A091BE03B091EB
:10166000BF03892B8A2B8B2BA1F00E94471B009173
:10167000BC031091BD032091BE033091BF036819D4
:1016800079098A099B09061717072807390708F4FB
:1016900044C08091BC0083FDD8CF85EC8093BC0012
:1016A0000E94471B4B015C01FF2029F08091C3037E
:1016B000823009F44AC0809150038F3F09F469C019
:1016C00080915003803209F466C0809150038033CA
:1016D00009F463C084E025C08091BC039091BD03F0
:1016E000A091BE03B091BF03892B8A2B8B2B09F4E9
:1016F0007FCF0E94471B4090BC035090BD03609079
:10170000BE037090BF03681979098A099B094616C0
:1017100057066806790608F06BCF8091BA0357DE4A
:1017200085E0DF91CF911F910F91FF90EF90BF90D7
:10173000AF909F908F907F906F905F904F900895A3
:1017400081918D936ACF85EEA9CF8091BC03909152
:10175000BD03A091BE03B091BF03892B8A2B8B2BB5
:1017600009F4A2CF0E94471B0091BC031091BD0356
:101770002091BE033091BF03681979098A099B093A
:10178000061717072807390708F08ECFC6CF81E064
:10179000C8CF80E0C6CF82E0C4CF83E0C2CF85ED62
:1017A0008093BC008091BC039091BD03A091BE03C7
:1017B000B091BF030796A11DB11D23E0B695A79573
:1017C000979587952A95D1F72091BC0024FD03C0F9
:1017D0001092C30308954091BC035091BD036091E2
:1017E000BE037091BF03452B462B472B69F300972F
:1017F000A105B10541F025E32A95F1F70000019715
:10180000A109B109E1CF8091BA03E1CD1F920F92F6
:101810000FB60F9211240BB60F922F933F934F9355
:101820005F936F937F938F939F93AF93BF93EF9348
:10183000FF938091B900887F803609F44CC008F08E
:101840003FC0883209F4A8C028F5803109F49CC053
:10185000C8F4882309F4F8C0883009F495C0FF91D2
:10186000EF91BF91AF919F918F917F916F915F9118
:101870004F913F912F910F900BBE0F900FBE0F9085
:101880001F901895883109F487C0803241F7809302
:10189000500314C0803409F49CC040F48033B9F381
:1018A0008833E9F6809350038CDDD9CF803509F475
:1018B00084C0883509F495C0883489F670DFCFCFAD
:1018C000883909F48CC038F5883729F050F4883607
:1018D00011F0803721F683E08093C3031092510307
:1018E00057C0883809F47BC0803919F0803809F076
:1018F000B6CF80915103803208F071C0E09151035E
:1019000081E08E0F809351038091BB00F0E0EE5A8E
:10191000FC4F80833DC0803B39F0E0F4803A09F40D
:1019200079C0883A09F09BCF84E08093C30310927A
:10193000730310927203E091B803F091B903199503
:101940008091720381110FC081E080937203109225
:10195000740309C0803C09F475C0883C09F472C066
:10196000883B09F07CCFE091730381E08E0F809378
:101970007303F0E0EC58FC4F80818093BB009091A2
:1019800073038091720329C08091C2038093BB00CE
:1019900085EC8093BC0063CF909195038091940374
:1019A000981758F5E091950381E08E0F8093950389
:1019B000F0E0EA56FC4F8081E9CFE091950381E0A9
:1019C0008E0F809395038091BB00F0E0EA56FC4FA8
:1019D000808390919503809194039817C8F285E8CD
:1019E000D8CFE091950381E08E0F8093950380918D
:1019F000BB00F0E0EA56FC4F80838091C103811167
:101A00005DCF81E08093C00384EA8093BC00109294
:101A1000C30325CFD6DC80915103803230F4E091AE
:101A20005103F0E0EE5AFC4F10826091510370E0D8
:101A3000E091B603F091B70382E593E01995109217
:101A400051030DCF85ECE1CF1092500337CFFF92B9
:101A50000F931F93CF93DF93C62F042FF22E132FD4
:101A6000682F8AEF92E0C1DB6C2F8AEF92E054DBA3
:101A7000CF2DD12F0C0F1D2F111DC017D10729F00D
:101A800069918AEF92E048DBF8CF8AEF92E02ADC96
:101A900091E0811190E0892FDF91CF911F910F91FB
:101AA000FF900895CF93DF931F92CDB7DEB74983A0
:101AB0009E012F5F3F4F41E0CADF0F90DF91CF9132
:101AC00008952F923F924F925F926F927F928F92E2
:101AD0009F92AF92BF92CF92DF92EF92FF920F93BD
:101AE0001F93CF93DF9300D0CDB7DEB7E82E698385
:101AF0004B8369010E943B1B4B015C01F12C1A8254
:101B00002B81222E312C2801712C612C8B81F8160F
:101B100008F044C06E2D8AEF92E067DB69818AEF9E
:101B200092E0FADA8AEF92E0DDDB6E2D8AEF92E046
:101B30005CDBA1014F1951094132510514F040E21B
:101B400050E06E2D8AEF92E0CBDB8AEF92E084DAF0
:101B5000892BD9F00115110569F48AEF92E083DA37
:101B6000F6019A81E90FF11D97FDFA9580839F5F39
:101B70009A83EBCF0E943B1B681979098A099B095C
:101B8000641575058605970540F38AEF92E0AADB98
:101B90008B81813208F080E2F80EB8CF0115110573
:101BA000C1F00E943B1B681979098A099B0930E042
:101BB00020E0601771078207930758F02A81822F6F
:101BC000220F990B2B812817190619F014F08FEFAB
:101BD0008A838A810F900F900F90DF91CF911F9190
:101BE0000F91FF90EF90DF90CF90BF90AF909F90BC
:101BF0008F907F906F905F904F903F902F900895BF
:101C00000F931F9389019A0141E05BDF1F910F91B0
:101C10000895EF92FF920F931F93CF93DF931F923C
:101C2000CDB7DEB7182F062FE42EF22E209100023A
:101C300030910102AE014F5F5F4FE2DF81E090E043
:101C400001C0880FEA94EAF74981FF2069F0482B28
:101C50004983602F812F26DF0F90DF91CF911F9155
:101C60000F91FF90EF90089580954823F1CFDF9278
:101C7000EF92FF920F931F93CF93DF931F92CDB7F5
:101C8000DEB7F82EE62E142FD22E209100023091CE
:101C90000102AE014F5F5F4FB3DF882351F1812F07
:101CA0008D19990BAC014F5F5F4F81E090E002C04E
:101CB000880F991FDA94E2F70197042E01C0880F6C
:101CC0000A94EAF701C0000F4A95EAF7482F4095B9
:101CD000998149238023482B49836E2D8F2DE2DE85
:101CE0000F90DF91CF911F910F91FF90EF90DF90B8
:101CF000089580E0F5CF28E6FC01208308950F9336
:101D0000062F23E042E06AE1FC018081B0DF0F9101
:101D100008950F93062F22E044E06BE1FC018081DF
:101D2000A6DF0F9108950F93062F22E044E06CE1A7
:101D3000FC0180819CDF0F9108950F931F93CF9337
:101D4000DF93EC0100910002109101029C012F5FD2
:101D50003F4F42E063E48881B4DE89819A8198270D
:101D600089279827DF91CF911F910F9108950F93A5
:101D70001F93CF93DF93EC010091000210910102B9
:101D80009C012F5F3F4F42E065E488819ADE8981A4
:101D90009A81982789279827DF91CF911F910F91DA
:101DA00008950F931F93CF93DF93EC0100910002EE
:101DB000109101029C012F5F3F4F42E067E4888150
:101DC00080DE89819A81982789279827DF91CF9192
:101DD0001F910F910895262F46E06BE6FC0180814C
:101DE00018CF0F93062F23E042E06BE6FC018081C1
:101DF0003EDF0F910895CF93DF93EC0161E0F1DFB7
:101E000060E0CE0186DF60E0CE018DDF60E0CE01D4
:101E1000DF91CF91E0CFCF93C82F8AEF92E0D6D950
:101E20006C2F84EC93E06BDF84EC93E0CF91E3CFF5
:101E3000CF93DF93EC0184EC93E07FDF9983888379
:101E400084EC93E094DF9B838A8384EC93E0A9DFA6
:101E50009D838C83DF91CF91089584EC93E04BCFE9
:101E6000611102C00C94081D6130E1F362E0FACF09
:101E7000662319F061E00C94441D60E0FCCFCF9222
:101E8000DF92EF92FF92CF93882339F16A017B01B1
:101E9000CFEFC80F20E030E0A901CB01B601DFD7BA
:101EA00087FF10C0C701B6019058E2D79B01AC0173
:101EB0006C2F70E090E080E0CF91FF90EF90DF908A
:101EC000CF90AFC0C701B601CED78C2FCF91FF9076
:101ED000EF90DF90CF900C94CE1BCF91FF90EF90BE
:101EE000DF90CF9008950F931F938B019C0183E0A7
:101EF00036952795179507958A95D1F70D521C4F62
:101F0000462F477021E030E0F90102C0EE0FFF1FBD
:101F10004A95E2F7AF01F80120812423CB01019615
:101F2000211102C090E080E01F910F9108950F935E
:101F30001F938B019C0183E0369527951795079594
:101F40008A95D1F7677081E090E001C0880F6A95AB
:101F5000EAF7F801ED52FC4F2081452B31F48095D2
:101F6000822380831F910F910895822BFACF2F92A5
:101F70003F924F925F926F927F928F929F92AF9219
:101F8000BF92CF92DF92EF92FF920F931F93CF9366
:101F9000DF93D62EC72E782E692E49015A012801CB
:101FA00061E08D2D0E94081DCD2DDC2D8E010F5F6F
:101FB0001F4FA8016D2D7C2D872D962DB8DF20E0B9
:101FC00030E0A901C201B7010E94B718181654F4F5
:101FD000C201B7014DD72B01C501B40149D7A201F8
:101FE000CE0123D0C801DF91CF911F910F91FF90B7
:101FF000EF90DF90CF90BF90AF909F908F907F90A9
:102000006F905F904F903F902F900895882341F0FC
:102010008150682F70E090E080E050E040E087CF92
:102020000895862FB9010C94CE1B9C01FC01EC5144
:10203000FF4FE491E150E231E0F4F0E08827EC5DFD
:10204000FF4E8F4F0C94232336103D104010571035
:102050006C10391081108D109110A810BD10D21085
:10206000E910FE10391013112A113F1184B5806850
:1020700084BD60E0822F0C94441D84B58062F8CF4B
:10208000809180008C7F82608093800080918100AD
:10209000807E8061682B609381005093870040931D
:1020A000860080918000806880938000E2CF8091DC
:1020B00080008C7F82608093800080918100807E90
:1020C0008061682B60938100509387004093860065
:1020D000809180008062E8CF809180008C7F826058
:1020E0008093800080918100807E8061682B609366
:1020F0008100509387004093860080918000886023
:10210000D3CF8091B00080688093B0008091B100FF
:10211000887F682B6093B100ACCF8091B000806263
:10212000F3CF809190008C7F8260809390008091AB
:102130009100807E8061682B60939100509397009E
:10214000409396008091900080688093900091CF9A
:10215000809190008C7F82608093900080919100AC
:10216000807E8061682B609391005093970040932C
:102170009600809190008062E8CF809190008C7FE3
:1021800082608093900080919100807E8061682BB6
:102190006093910050939700409396008091900037
:1021A0008860D3CF8091A0008C7F82608093A00054
:1021B0008091A100807E8061682B6093A100509384
:1021C000A7004093A6008091A00080688093A000A3
:1021D00050CF8091A0008C7F82608093A00080917E
:1021E000A100807E8061682B6093A1005093A700BE
:1021F0004093A6008091A0008062E8CF8091A0006B
:102200008C7F82608093A0008091A100807E80619D
:10221000682B6093A1005093A7004093A600809183
:10222000A0008860D3CF809120018C7F8260809352
:10223000200180912101807E8061682B60932101C3
:10224000509327014093260180912001806880935C
:1022500020010FCF809120018C7F8260809320012C
:1022600080912101807E8061682B609321015093D1
:10227000270140932601809120018062E8CF809160
:1022800020018C7F82608093200180912101807EDB
:102290008061682B609321015093270140932601B0
:1022A000809120018860D3CF2F923F924F925F920E
:1022B0006F927F928F929F92AF92BF92CF92DF9256
:1022C000EF92FF920F931F93CF93DF93CDB7DEB7BB
:1022D0006D970FB6F894DEBF0FBECDBFC0909A06C3
:1022E000D0909B06E0909C06F0909D0620910A02FB
:1022F00030910B0240910C0250910D02C701B601C2
:102300003AD72091A2063091A3064091A40650919D
:10231000A50640D52091220230912302409124024B
:102320005091250228D72B013C01209126023091A3
:1023300027024091280250912902C701B6011BD7FC
:1023400020919E0630919F064091A0065091A106D3
:1023500022D5A30192011FD56F8B7B8FB82E9C8F46
:1023600010912A0230902B0220902C0280912D0295
:102370008E8B9B014B2D592F612F732D822D9E89A2
:102380006ED587FD19C010911E0230901F0220905B
:102390002002809121028E8B2F893B8D4B2D5C8DED
:1023A000612F732D822D9E89E2D618162CF01F897D
:1023B0003B8C2B2C8C8D8E8B20E030E040E251E466
:1023C000612F732D822D9E89E6D42DEC3CEC4CE4DC
:1023D00055E4D1D6B6D56B017C01F3D381114FC240
:1023E000C701B601C5D381114AC220E030E040E800
:1023F00057E4C701B601BFD56B017C0120E030E096
:10240000A9012DD587FF3EC2C701B601905830D52E
:102410007195619571097A836B8361E070E080E06A
:1024200090E00E941C0852D520914A0230914B0244
:1024300040914C0250914D029ED62091060230915F
:102440000702409108025091090295D620E030E041
:1024500040E251E4A0D42DEC3CEC4CE455E48BD6A6
:1024600070D56B017C01ADD3811110C2C701B601DB
:102470007FD381110BC220E030E040E857E4C70170
:10248000B60179D56B017C0120E030E0A901E7D4E9
:1024900087FFFFC1C701B6019058EAD471956195D5
:1024A00071097C836D8320E030E040E251E460916B
:1024B0009A0670919B0680919C0690919D066BD424
:1024C0002DEC3CEC4CE455E456D63BD56B017C013D
:1024D00078D38111E2C1C701B6014AD38111DDC1B0
:1024E00020E030E040E857E4C701B60144D56B0175
:1024F0007C0120E030E0A901B2D487FFD1C1C7013F
:10250000B6019058B5D488249924861A970AC090A9
:102510003202D0903302E0903402F0903502A701ED
:1025200096016091640670916506809166069091AF
:10253000670695D4882341F0C0926406D092650660
:10254000E0926606F092670680915A0289839E8225
:102550008F8280E8888719868A871B868C871D86EC
:102560008E871F86609178067091790680917A0631
:1025700090917B067DD4C62E609170067091710695
:10258000809172069091730673D4E62E6091740662
:1025900070917506809176069091770669D4062F22
:1025A00060916C0670916D0680916E0690916F0639
:1025B0005FD46D8F609168067091690680916A069C
:1025C00090916B0655D4862F912C812C92E0A92EE8
:1025D0002D8D4FE050E0BE016F5F7F4F0E94520192
:1025E0002F893B8D4B2D5C8D612F732D822D9E8904
:1025F000D1D320911A0230911B0240911C025091BC
:102600001D02B9D54B015C01C0909A06D0909B0683
:10261000E0909C06F0909D0620910E0230910F02F2
:102620004091100250911102C701B601A4D56F8BE1
:10263000788F898F9A8FC701B6019F7720E030E0AD
:1026400040E45FE30CD420E030E0A90187FF04C040
:1026500020E030E040E85FE3612F732D822D9E89FA
:102660008AD5D62EE72EF82E192FCE014096E0DB24
:1026700001E02D2D3E2D4F2D512F6091360270918E
:102680003702809138029091390271D518160CF0FA
:1026900000E0602F88E0ECDB66E070E080E090E036
:1026A00022DC9093990680939806C0902E02309079
:1026B0002F0220903002009131022D2D3E2D4F2D02
:1026C000512F6C2D732D822D902FC9D387FD17C0EC
:1026D000C090520230905302209054020091550253
:1026E0002D2D3E2D4F2D512F6C2D732D822D902F82
:1026F0003ED5181624F0CD2C3E2C2F2C012F2091E6
:1027000056023091570240915802509159026C2D57
:10271000732D822D902F2FD514D46B017C0151D2B3
:102720008111C3C0C701B60123D28111BEC020E010
:1027300030E040E853E4C701B6011DD46B017C01D1
:1027400020E030E0A9018BD387FFB2C0C701B601FA
:1027500090588ED3619570E090E080E0B7D3AB01E4
:10276000BC01809198069091990689DB68897989E6
:10277000072E000C880B990BA9D3209102023091EF
:102780000302409104025091050204D320914E02AD
:1027900030914F024091500250915102ECD420915F
:1027A0003A0230913B0240913C0250913D02E3D409
:1027B00020919A0630919B0640919C0650919D066F
:1027C000EAD260939A0670939B0680939C0690933E
:1027D0009D062F89388D498D5A8DC501B401DBD2F4
:1027E00020914202309143024091440250914502AF
:1027F000C2D420919E0630919F064091A006509130
:10280000A106C9D260939E0670939F068093A0068E
:102810009093A106209146023091470240914802D0
:1028200050914902C301B201A6D42091A206309171
:10283000A3064091A4065091A506ADD26093A206CE
:102840007093A3068093A4069093A5066D960FB689
:10285000F894DEBF0FBECDBFDF91CF911F910F91D6
:10286000FF90EF90DF90CF90BF90AF909F908F90B0
:102870007F906F905F904F903F902F900895C12C64
:10288000D12C7601C701B601F3D2C5CDC12CD12C14
:102890007601C701B601ECD204CEC12CD12C760151
:1028A000C701B601E5D24B0132CEC12CD12C760145
:1028B000C701B601DDD24FCF4F925F926F927F92E8
:1028C000BF92CF92DF92EF92FF920F931F93CF931D
:1028D000DF9384E090E015D182E0C82E82E0D82E0C
:1028E0008091A6069091A706A091A806B091A9068E
:1028F000F60180839183A283B3831092DD0310924B
:10290000DC03CEE5D6E088E4FE0111928A95E9F772
:10291000412C512C3201439449A25AA26BA27CA2B1
:1029200042E150E063E170E081E090E00E9428071E
:10293000BB24B394BDA21882F60180A991A9A2A9D3
:10294000B3A98E839F83A887B98749825A826B82F5
:102950007C821A861B861C861D8680E090E0A0E89B
:10296000BFE38E879F87A88BB98B1A8A1B8A1C8A24
:102970001D8A1E8A1F8A188E198E1A8E1B8E1C8E17
:102980001D8E80E00E942D01BD821EA24FA258A67E
:1029900069A67AA690E080E03EDABBA61CA64DA60A
:1029A0005EA66FA678AA61E088E05ADAB9AA1CAAE6
:1029B0004DAA5EAA6FAA78AEE12CF12C8701A8017E
:1029C000970166E070E080E090E0D1DA9BAF8AAFDB
:1029D000B9AEF60184AD95ADA6ADB7AD8CAF9DAFE8
:1029E000AEAFBFAF84899589A689B78980939E06CB
:1029F00090939F06A093A006B093A1068089918929
:102A0000A289B3898093A2069093A306A093A406FB
:102A1000B093A506DF91CF911F910F91FF90EF909A
:102A2000DF90CF90BF907F906F905F904F90089510
:102A300080917E06811103C081E080937E068091A3
:102A40005E06811103C081E080935E06809184065A
:102A5000811103C081E08093840680918A068111F0
:102A600003C081E080938A068091920681112AC07A
:102A700081E0809392068091930690919406A091B4
:102A80009506B09196060197A105B105D9F48091FC
:102A900097068823B9F066E070E080E090E023DAE2
:102AA000909399068093980640E050E0BA01E7D9E8
:102AB00066E070E080E090E016DA909399068093EB
:102AC0009806A4CA089560E070E080E89FE7089542
:102AD00060E070E080E89FE7089560E070E080E8E3
:102AE0009FEF089560E070E080E89FEF089560E058
:102AF00070E080EC9FEF089560E070E080EC9FEF65
:102B00000895F5DF6093B2067093B3068093B40620
:102B10009093B506F1DF6093A6067093A7068093A5
:102B2000A8069093A906CFDF6093AE067093AF0618
:102B30008093B0069093B106CBDF6093AA067093A2
:102B4000AB068093AC069093AD06C7DF6093B606E4
:102B50007093B7068093B8069093B906C3DF60936D
:102B6000BA067093BB068093BC069093BD06089589
:102B7000CF92DF92EF92FF92CF936B017C01AC0179
:102B80009B016091AA067091AB068091AC06909172
:102B9000AD0665D1C1E0882369F0A7019601609177
:102BA000BA067091BB068091BC069091BD0657D1C4
:102BB0008111C0E08C2FCF91FF90EF90DF90CF90EC
:102BC00008950F931F938B019C01002711272078F4
:102BD0003F770115110520483F4749F4AB01BC017F
:102BE0006F77772781E0452B462B472B09F480E050
:102BF0001F910F91089526E030E040E052EC61E033
:102C000070E090E080E006D061E08DE001D760E008
:102C10008DE03AC78130910571F01CF4892B39F0B1
:102C200008958230910551F0039759F008958AEE86
:102C300093E00C943B1E87E894E0FBCF84E295E0A0
:102C4000F8CF81EC95E0F5CF1F920F920FB60F925F
:102C500011240BB60F922F933F934F935F936F9373
:102C60007F938F939F93AF93BF93EF93FF938EE1E7
:102C70009BEF90932501809324018091DF03909135
:102C8000E003019719F461E08DE0FED634D0FF91A6
:102C9000EF91BF91AF919F918F917F916F915F91D4
:102CA0004F913F912F910F900BBE0F900FBE0F9041
:102CB0001F9018958EE19BEF90932501809324013E
:102CC000A3E7B0E08C918E7F8C93E0E2F1E080810D
:102CD0008C7F8083E1E2F1E08081877E8083808148
:102CE0008360808380818B7F80838C9181608C93D3
:102CF000089581E008958091DE0391E0980F90930C
:102D0000DE03882349F021E030E03093E003209394
:102D1000DF038093DE0308957894C6DAF8948091F7
:102D2000DE038150F6CFCF93DF931092BF0610924F
:102D3000BE06D2D460DFC0919102D0919202198276
:102D40001882BADDF894B6DF2881398181E0232B1F
:102D500009F080E08093BE06789478948091BE0656
:102D6000811107C065DEF89490E080E0DF91CF919B
:102D700008952881398181E0232B09F480E0809334
:102D8000BF069091BF0681E0911180E08093BE065E
:102D9000B0DFE4CF5058BB27AA270ED097C188D107
:102DA00030F08DD120F031F49F3F11F41EF47DC13D
:102DB0000EF4E095E7FB4AC1E92F99D180F3BA17E9
:102DC000620773078407950718F071F49EF5C8C170
:102DD0000EF4E0950B2EBA2FA02D0B01B901900136
:102DE0000C01CA01A0011124FF27591B99F0593F7A
:102DF00050F4503E68F11A16F040A22F232F342FC2
:102E00004427585FF3CF469537952795A795F0400F
:102E10005395C9F77EF41F16BA0B620B730B840B24
:102E2000BAF09150A1F0FF0FBB1F661F771F881FDC
:102E3000C2F70EC0BA0F621F731F841F48F4879534
:102E400077956795B795F7959E3F08F0B3CF939523
:102E5000880F08F09927EE0F979587950895D2D09F
:102E600008F481E0089504D06894B1117AC10895FE
:102E700046D188F09F5790F0B92F9927B751A0F00D
:102E8000D1F0660F771F881F991F1AF0BA95C9F7FE
:102E900012C0B13081F064D1B1E0089561C1672FF3
:102EA000782F8827B85F39F0B93FCCF386957795AE
:102EB0006795B395D9F73EF4909580957095619597
:102EC0007F4F8F4F9F4F0895E89409C097FB3EF4C2
:102ED00090958095709561957F4F8F4F9F4F992367
:102EE000A9F0F92F96E9BB279395F69587957795E5
:102EF0006795B795F111F8CFFAF4BB0F11F460FFA5
:102F00001BC06F5F7F4F8F4F9F4F16C0882311F0FC
:102F100096E911C0772321F09EE8872F762F05C010
:102F2000662371F096E8862F70E060E02AF09A95AB
:102F3000660F771F881FDAF7880F9695879597F9A0
:102F40000895F7D080F09F3740F491110EF009C139
:102F500060E070E080E89FEB089526F41B16611D89
:102F6000711D811D79C093C0A3D018F011F0A7D0B6
:102F700038F49BC0F6C0E92FBAD0B0F35523C9F39B
:102F8000E7FB6217730784079507A8F199F3E92F08
:102F9000FF2788232AF03197660F771F881FDAF7FB
:102FA000952F5527442332F091505040220F331F64
:102FB000441FD2F7BB27E91BF50B621B730B840B75
:102FC000B109C1F222F4620F731F841FB11D319742
:102FD0002AF0660F771F881FBB1FEFCF915050401C
:102FE0005AF041F0882332F0660F771F881F915006
:102FF0005040C1F793954BC08695779567959F5F35
:10300000D9F7F8CF990F0008550FAA0BE0E8FEEFAB
:1030100016161706E807F907C0F012161306E4079C
:10302000F50798F0621B730B840B950B39F40A2695
:1030300061F0232B242B252B21F408950A2609F473
:10304000A140A6958FEF811D811D089597F99F6777
:1030500080E870E060E00895882371F4772321F020
:103060009850872B762F07C0662311F499270DC03F
:103070009051862B70E060E02AF09A95660F771FDA
:10308000881FDAF7880F9695879597F908959F3FDF
:1030900031F0915020F4879577956795B795880F13
:1030A000911D9695879597F908959FEF80EC089567
:1030B00000240A9416161706180609060895002417
:1030C0000A9412161306140605060895092E039491
:1030D000000C11F4882352F0BB0F40F4BF2B11F405
:1030E00060FF04C06F5F7F4F8F4F9F4F089557FD64
:1030F0009058440F551F59F05F3F71F04795880F66
:1031000097FB991F61F09F3F79F0879508951216FC
:1031100013061406551FF2CF4695F1DF08C01616A8
:1031200017061806991FF1CF869571056105089459
:103130000895E5DFA0F0BEE7B91788F4BB279F38F4
:1031400060F41616B11D672F782F8827985FF7CF88
:10315000869577956795B11D93959639C8F308952F
:10316000E894BB2766277727CB0197F908954ADFB4
:1031700008F48FEF08950BD0A9CF9ADF28F09FDFD6
:1031800018F0952309F062CF90CF1124EACFAFDF7A
:10319000A0F3959FD1F3950F50E0551F629FF0016A
:1031A000729FBB27F00DB11D639FAA27F00DB11DC3
:1031B000AA1F649F6627B00DA11D661F829F22274C
:1031C000B00DA11D621F739FB00DA11D621F839FD3
:1031D000A00D611D221F749F3327A00D611D231FA9
:1031E000849F600D211D822F762F6A2F11249F57F7
:1031F00050408AF0E1F088234AF0EE0FFF1FBB1F1A
:10320000661F771F881F91505040A9F79E3F5105B8
:1032100070F01CCFA6CF5F3FECF3983EDCF38695B1
:1032200077956795B795F795E7959F5FC1F7FE2B63
:10323000880F911D9695879597F908950895883080
:1032400008F076C0E82FF0E0EE0FFF1FE55AFD4FC3
:10325000718360838150873008F03DC0E82FF0E033
:103260008827EA5CF64E8F4F0C94232373193D197F
:10327000451951195E197F198C19809169008C7F4D
:10328000482B40936900E89A089580916900837FF4
:10329000440F551F440F551F482B40936900E99A6E
:1032A0000895809169008F7C74E0440F551F7A95D2
:1032B000E1F7482B40936900EA9A089580916900EC
:1032C0008F7366E0440F551F6A95E1F7482B4093D2
:1032D0006900EB9A089580916A008C7F482B409397
:1032E0006A00EC9A089580916A00837F440F551F0D
:1032F000440F551F482B40936A00ED9A0895809122
:103300006A008F7C24E0440F551F2A95E1F7482B73
:1033100040936A00EE9A089580916A008F7396E058
:10332000440F551F9A95E1F7482B40936A00EF9A96
:1033300008951F920F920FB60F9211240BB60F92A1
:103340002F933F934F935F936F937F938F939F93AD
:10335000AF93BF93EF93FF93E0915F02F091600210
:103360001995FF91EF91BF91AF919F918F917F91AF
:103370006F915F914F913F912F910F900BBE0F90E6
:103380000FBE0F901F9018951F920F920FB60F92BD
:1033900011240BB60F922F933F934F935F936F932C
:1033A0007F938F939F93AF93BF93EF93FF93E0919E
:1033B0006102F09162021995FF91EF91BF91AF9177
:1033C0009F918F917F916F915F914F913F912F913D
:1033D0000F900BBE0F900FBE0F901F9018951F926D
:1033E0000F920FB60F9211240BB60F922F933F93AB
:1033F0004F935F936F937F938F939F93AF93BF93FD
:10340000EF93FF93E0916302F09164021995FF91AD
:10341000EF91BF91AF919F918F917F916F915F914C
:103420004F913F912F910F900BBE0F900FBE0F90B9
:103430001F9018951F920F920FB60F9211240BB682
:103440000F922F933F934F935F936F937F938F933D
:103450009F93AF93BF93EF93FF93E0916502F09139
:1034600066021995FF91EF91BF91AF919F918F9156
:103470007F916F915F914F913F912F910F900BBE74
:103480000F900FBE0F901F9018951F920F920FB6BE
:103490000F9211240BB60F922F933F934F935F938C
:1034A0006F937F938F939F93AF93BF93EF93FF930C
:1034B000E0915B02F0915C021995FF91EF91BF9151
:1034C000AF919F918F917F916F915F914F913F91BC
:1034D0002F910F900BBE0F900FBE0F901F9018955D
:1034E0001F920F920FB60F9211240BB60F922F93CB
:1034F0003F934F935F936F937F938F939F93AF937C
:10350000BF93EF93FF93E0915D02F0915E021995F6
:10351000FF91EF91BF91AF919F918F917F916F91AB
:103520005F914F913F912F910F900BBE0F900FBE67
:103530000F901F9018951F920F920FB60F921124A3
:103540000BB60F922F933F934F935F936F937F939D
:103550008F939F93AF93BF93EF93FF93E091670295
:10356000F09168021995FF91EF91BF91AF919F91F2
:103570008F917F916F915F914F913F912F910F901C
:103580000BBE0F900FBE0F901F9018951F920F92B9
:103590000FB60F9211240BB60F922F933F934F93B8
:1035A0005F936F937F938F939F93AF93BF93EF93AB
:1035B000FF93E0916902F0916A021995FF91EF91F2
:1035C000BF91AF919F918F917F916F915F914F913B
:1035D0003F912F910F900BBE0F900FBE0F901F9039
:1035E00018951F920F920FB60F9211242F933F93AD
:1035F0008F939F93AF93BF938091E2039091E303E6
:10360000A091E403B091E5033091E10323E0230F9F
:103610002D3758F50196A11DB11D2093E10380932C
:10362000E2039093E303A093E403B093E503809156
:10363000E6039091E703A091E803B091E9030196B6
:10364000A11DB11D8093E6039093E703A093E803C7
:10365000B093E903BF91AF919F918F913F912F91CB
:103660000F900FBE0F901F90189526E8230F02961B
:10367000A11DB11DD2CF2FB7F8946091E2037091D4
:10368000E3038091E4039091E5032FBF08953FB7D2
:10369000F8948091E6039091E703A091E803B0913C
:1036A000E90326B5A89B05C02F3F19F00196A11D7F
:1036B000B11D3FBFBA2FA92F982F8827BC01CD017C
:1036C000620F711D811D911D42E0660F771F881FDB
:1036D000991F4A95D1F70895789484B5826084BD86
:1036E00084B5816084BD85B5826085BD85B5816006
:1036F00085BDEEE6F0E0808181608083E1E8F0E066
:103700001082808182608083808181608083E0E894
:10371000F0E0808181608083E1EBF0E08081846073
:103720008083E0EBF0E0808181608083E1E9F0E07C
:10373000808182608083808181608083E0E9F0E025
:10374000808181608083E1EAF0E080818260808313
:10375000808181608083E0EAF0E080818160808305
:10376000E1E2F1E0808182608083808181608083FA
:10377000E0E2F1E0808181608083EAE7F0E080812F
:103780008460808380818260808380818160808387
:103790008081806880831092C10008951F93CF9329
:1037A000DF93182FEB0161E033D1209731F460E013
:1037B000812FDF91CF911F9167C1CF3FD10511F4C8
:1037C00061E0F6CFE12FF0E0EC51FF4FE491E150E2
:1037D000E23108F0B2C0F0E08827EF50F44E8F4F8E
:1037E00032C7031C0B1C101C1A1C241C9D1C2E1CF5
:1037F000361C3E1C481C521C5C1C6B1C751C9D1C02
:103800007F1C891C931C84B5806884BDC7BDDF9173
:10381000CF911F91089584B5806284BDC8BDF7CF54
:1038200080918000806880938000D0938900C0934D
:103830008800EDCF80918000806280938000D093DB
:103840008B00C0938A00E3CF8091800088608093D2
:103850008000D0938D00C0938C00D9CF8091B000B0
:1038600080688093B000C093B300D1CF8091B00046
:1038700080628093B000C093B400C9CF8091900063
:10388000806880939000D0939900C0939800BFCF38
:1038900080919000806280939000D0939B00C093B1
:1038A0009A00B5CF80919000886080939000D0936B
:1038B0009D00C0939C00ABCF8091A0008068809356
:1038C000A0008091A0008F7B8093A000D093A900DE
:1038D000C093A8009CCF8091A00080628093A0003C
:1038E000D093AB00C093AA0092CF8091A0008860D3
:1038F0008093A000D093AD00C093AC0088CF80919E
:103900002001806880932001D0932901C093280171
:103910007ECF80912001806280932001D0932B0183
:10392000C0932A0174CF8091200188608093200188
:10393000D0932D01C0932C016ACFC038D1050CF073
:103940003FCF35CF8150823108F059C0E82FF0E0E9
:103950008827E355F34E8F4F76C6CD1CD11CBF1C74
:10396000C51CC91CFF1CD41CDA1CDE1CE41CE81C92
:10397000EC1CF21CF61CFF1CFA1C001D041D80919F
:1039800080008F77809380000895809180008F7DE4
:10399000F9CF80918000877FF5CF84B58F7784BD84
:1039A000089584B58F7DFBCF8091B0008F77809391
:1039B000B00008958091B0008F7DF9CF8091900084
:1039C0008F77809390000895809190008F7DF9CF3C
:1039D00080919000877FF5CF8091A0008F778093B2
:1039E000A00008958091A0008F7DF9CF8091A00064
:1039F000877FF5CF809120018F77809320010895F4
:103A0000809120018F7DF9CF80912001877FF5CFB4
:103A1000CF93DF9390E0FC01E65DFE4F2491805947
:103A20009E4FFC0184918823C9F090E0880F991F74
:103A3000FC01E053FE4FA591B491FC01EA54FE4F06
:103A4000C591D49161110DC09FB7F8948C912095C8
:103A500082238C938881282328839FBFDF91CF9175
:103A60000895623051F49FB7F8943C91822F80956D
:103A700083238C93E8812E2BEFCF8FB7F894EC91B2
:103A80002E2B2C938FBFEACF1F93CF93DF93282F3A
:103A900030E0F901EC51FF4F8491F901E65DFE4FF2
:103AA000D491F901E059FE4FC491CC23A1F0162F17
:103AB000811148DFEC2FF0E0EE0FFF1FEA54FE4FBC
:103AC000A591B4918FB7F894EC91111108C0D095DD
:103AD000DE23DC938FBFDF91CF911F910895DE2B02
:103AE000F8CFFC01918D228D892F90E0805C9F4F53
:103AF000821B91098F7399270895FC01918D828D06
:103B0000981731F0828DE80FF11D858D90E00895B2
:103B10008FEF9FEF0895FC01918D828D981761F0D2
:103B2000A28DAE0FBF2FB11D5D968C91928D9F5FC0
:103B30009F73928F90E008958FEF9FEF0895FC019F
:103B4000538D448D252F30E0842F90E0821B930B02
:103B5000541710F0CF96089501970895FC01A48D95
:103B6000A80FB92FB11DA35ABF4F2C91848D90E09F
:103B700001968F739927848FA689B7892C93A08982
:103B8000B1898C91837080648C93938D848D98130C
:103B900006C00288F389E02D80818F7D808308959F
:103BA000CF93DF93EC01888D8823B1F0AA89BB897C
:103BB000E889F9898C9185FD03C0808186FD0CC060
:103BC0000FB607FCF7CF8C9185FFF2CF808185FF80
:103BD000EDCFCE01C3DFEACFDF91CF910895EF9211
:103BE000FF920F931F93CF93DF93EC0181E0888FB7
:103BF0009B8D8C8D98131AC0E889F989808185FF87
:103C000015C09FB7F894EE89FF896083E889F98928
:103C100080818370806480839FBF81E090E0DF912A
:103C2000CF911F910F91FF90EF900895F62E0B8D7D
:103C300010E00F5F1F4F0F731127E02E8C8D8E1138
:103C40000BC00FB607FCFACFE889F989808185FFA0
:103C5000F5CFCE0183DFF2CFEB8DEC0FFD2FF11D01
:103C6000E35AFF4FF0829FB7F8940B8FEA89FB89E4
:103C700080818062D0CFCF92DF92EF92FF921F932C
:103C8000CF93DF93EC016A017B01122FE889F98958
:103C900082E08083C11481EED806E104F10499F03A
:103CA00060E079E08DE390E0A7019601AAD421506D
:103CB00031094109510956954795379527952115A1
:103CC00080E1380790F0E889F989108260E874E8AB
:103CD0008EE190E0A701960194D421503109410969
:103CE00051095695479537952795EC85FD85308385
:103CF000EE85FF852083188EEC89FD891083EA8983
:103D0000FB89808180618083EA89FB89808188606A
:103D10008083EA89FB89808180688083EA89FB89C6
:103D200080818F7D8083DF91CF911F91FF90EF90F5
:103D3000DF90CF9008951F920F920FB60F9211242B
:103D40000BB60F922F938F939F93EF93FF93E09176
:103D5000FA03F091FB038081E0910004F0910104EB
:103D600082FD1DC09081809103048F5F8F7320912D
:103D70000404821741F0E0910304F0E0E651FC4FA7
:103D8000958F80930304FF91EF919F918F912F91D5
:103D90000F900BBE0F900FBE0F901F901895808153
:103DA000F2CF1F920F920FB60F9211240BB60F9203
:103DB0002F933F934F935F936F937F938F939F9333
:103DC000AF93BF93EF93FF938AEE93E0C7DEFF912B
:103DD000EF91BF91AF919F918F917F916F915F9183
:103DE0004F913F912F910F900BBE0F900FBE0F90F0
:103DF0001F901895EAEEF3E01382128288EE93E0AA
:103E0000A0E0B0E084839583A683B78387E992E03E
:103E10009183808385EC90E09587848784EC90E0A3
:103E20009787868780EC90E0918B808B81EC90E087
:103E3000938B828B82EC90E0958B848B86EC90E068
:103E4000978B868B118E128E138E148E08951F926F
:103E50000F920FB60F9211240BB60F922F938F93E0
:103E60009F93EF93FF93E0919704F09198048081E2
:103E7000E0919D04F0919E0482FD1DC0908180918F
:103E8000A0048F5F8F732091A104821741F0E0910D
:103E9000A004F0E0E957FB4F958F8093A004FF91B9
:103EA000EF919F918F912F910F900BBE0F900FBEAE
:103EB0000F901F9018958081F2CF1F920F920FB62E
:103EC0000F9211240BB60F922F933F934F935F9352
:103ED0006F937F938F939F93AF93BF93EF93FF93D2
:103EE00087E894E03BDEFF91EF91BF91AF919F9106
:103EF0008F917F916F915F914F913F912F910F9093
:103F00000BBE0F900FBE0F901F901895E7E8F4E0DE
:103F10001382128288EE93E0A0E0B0E08483958360
:103F2000A683B78387E992E0918380838DEC90E04C
:103F3000958784878CEC90E09787868788EC90E063
:103F4000918B808B89EC90E0938B828B8AEC90E054
:103F5000958B848B8EEC90E0978B868B118E128ED6
:103F6000138E148E08951F920F920FB60F92112484
:103F70000BB60F922F938F939F93EF93FF93E09144
:103F80003405F09135058081E0913A05F0913B05CB
:103F900082FD1DC0908180913D058F5F8F732091C0
:103FA0003E05821741F0E0913D05F0E0EC5DFA4FEF
:103FB000958F80933D05FF91EF919F918F912F9168
:103FC0000F900BBE0F900FBE0F901F901895808121
:103FD000F2CF1F920F920FB60F9211240BB60F92D1
:103FE0002F933F934F935F936F937F938F939F9301
:103FF000AF93BF93EF93FF9384E295E0AFDDFF9122
:10400000EF91BF91AF919F918F917F916F915F9150
:104010004F913F912F910F900BBE0F900FBE0F90BD
:104020001F901895E4E2F5E01382128288EE93E087
:10403000A0E0B0E084839583A683B78387E992E00C
:104040009183808385ED90E09587848784ED90E06F
:104050009787868780ED90E0918B808B81ED90E053
:10406000938B828B82ED90E0958B848B86ED90E034
:10407000978B868B118E128E138E148E08951F923D
:104080000F920FB60F9211240BB60F922F938F93AE
:104090009F93EF93FF93E091D105F091D20580813A
:1040A000E091D705F091D80582FD1DC090818091E7
:1040B000DA058F5F8F732091DB05821741F0E09165
:1040C000DA05F0E0EF53FA4F958F8093DA05FF9110
:1040D000EF919F918F912F910F900BBE0F900FBE7C
:1040E0000F901F9018958081F2CF1F920F920FB6FC
:1040F0000F9211240BB60F922F933F934F935F9320
:104100006F937F938F939F93AF93BF93EF93FF939F
:1041100081EC95E023DDFF91EF91BF91AF919F91ED
:104120008F917F916F915F914F913F912F910F9060
:104130000BBE0F900FBE0F901F901895E1ECF5E0AD
:104140001382128288EE93E0A0E0B0E0848395832E
:10415000A683B78387E992E09183808385E391E02A
:104160009587848784E391E09787868780E391E051
:10417000918B808B81E391E0938B828B82E391E042
:10418000958B848B86E391E0978B868B118E128EB4
:10419000138E148E0895AF92BF92CF92DF92EF925A
:1041A000FF920F931F93CF93DF936C017B018B01E1
:1041B000040F151FEB015E01AE18BF08C017D10731
:1041C00059F06991D601ED91FC910190F081E02DBB
:1041D000C6011995892B79F7C501DF91CF911F9100
:1041E0000F91FF90EF90DF90CF90BF90AF90089528
:1041F000FB0101900020E9F73197AF01461B570BF7
:10420000DC01ED91FC910280F381E02D19946115A0
:10421000710509F0EDCF90E080E00895DC01ED91AB
:10422000FC910190F081E02D199465EA72E0E0CFF5
:104230008F929F92AF92BF92EF92FF920F931F9334
:10424000CF93DF93CDB7DEB7A1970FB6F894DEBF5B
:104250000FBECDBF7C01FA01CB0119A2223008F4B8
:104260002AE08E010F5D1F4F822E912CB12CA12CC4
:10427000BF01A5019401C5D1F901CA016A3004F555
:10428000605DD8016E938D01232B242B252B81F7A4
:1042900090E080E0109719F0BD01C701A9DFA19659
:1042A0000FB6F894DEBF0FBECDBFDF91CF911F9147
:1042B0000F91FF90EF90BF90AF909F908F900895D7
:1042C000695CDFCFCF92DF92EF92FF920F931F9343
:1042D000CF93DF932115310581F4DC01ED91FC9141
:1042E0000190F081E02D642FDF91CF911F910F910C
:1042F000FF90EF90DF90CF9019942A303105F1F4C0
:104300002AE077FF1BC06A017B01EC016DE286DFCA
:104310008C0144275527BA014C195D096E097F09A4
:104320002AE0CE0185DF800F911FDF91CF911F9191
:104330000F91FF90EF90DF90CF900895DF91CF9194
:104340001F910F91FF90EF90DF90CF9071CF9A0166
:10435000AB01770F660B770BB5CF0F931F93CF93FE
:10436000DF93EC01F4DF8C01CE015FDF800F911F42
:10437000DF91CF911F910F9108950F931F93CF93CA
:10438000DF93EC019FDF8C01CE014FDF800F911F87
:10439000DF91CF911F910F9108952115310541F4BF
:1043A000DC01ED91FC910190F081E02D642F1994D6
:1043B0003FCF9A01462F50E070E060E0EECF0F93C0
:1043C0001F93CF93DF93EC01F4DF8C01CE012DDF3F
:1043D000800F911FDF91CF911F910F9108959A0146
:1043E000AB0170E060E0D9CF0F931F93CF93DF93C1
:1043F000EC01F5DF8C01CE0118DF800F911FDF91FA
:10440000CF911F910F9108950F931F93CF93DF9337
:10441000EC01C3DF8C01CE0108DF800F911FDF911B
:10442000CF911F910F9108952F923F924F925F92DB
:104430006F927F928F929F92AF92BF92CF92DF92B4
:10444000EF92FF921F93CF93DF93EC016A017B0100
:10445000722EAB019601CB01B6016ED168EA72E013
:10446000811125C046015701E894B7F82FEF3FEFBF
:104470004FE75FE7C501B4015FD181110CC02FEF99
:104480003FEF4FE75FE7C501B4010E942F176CEAC9
:1044900072E0181664F02FEF3FEF4FE75FE4C701BB
:1044A000B6010E94B7181816ACF460EB72E0CE01AA
:1044B000DF91CF911F91FF90EF90DF90CF90BF9051
:1044C000AF909F908F907F906F905F904F903F90B4
:1044D0002F908ECE2FEF3FEF4FE75FECC701B60175
:1044E0000E942F1787FDE1CF20E030E0A901C7012E
:1044F000B6010E942F17312C212C87FF08C06DE2D6
:10450000CE018CDE1C01F7FAF094F7F8F09410E07D
:1045100060E070E080E09FE3711639F020E030E069
:1045200040E251E498D01F5FF7CFA70196010E94A7
:10453000CB162B013C010E9438174B015C012AE08D
:10454000BC01A401CE0174DE7C01E20CF31C11233A
:10455000A1F1C501B4010E9464179B01AC01C30124
:10456000B2010E94CA164B015C016EE2CE0156DE1A
:10457000E80EF91E115008F120E030E040E251E46D
:10458000C501B4010E94BB182B013C010E943817E1
:104590004B014AE050E0CE0122DFE80EF91EB401E3
:1045A00090E080E00E9464179B01AC01C301B2015E
:1045B0000E94CA164B015C01DDCFC701DF91CF918C
:1045C0001F91FF90EF90DF90CF90BF90AF909F90A2
:1045D0008F907F906F905F904F903F902F900895B5
:1045E00023CF0F931F93CF93DF93EC011DDF8C013B
:1045F000CE011BDE800F911FDF91CF911F910F9194
:104600000895A1E21A2EAA1BBB1BFD010DC0AA1F13
:10461000BB1FEE1FFF1FA217B307E407F50720F02B
:10462000A21BB30BE40BF50B661F771F881F991FA6
:104630001A9469F760957095809590959B01AC01EF
:10464000BD01CF010895EE0FFF1F881F8BBF07909C
:10465000F691E02D199412D00C9466180E945F1800
:1046600058F00E94581840F029F45F3F29F00C944C
:10467000261851110C94B1180C9455180E947718F3
:1046800068F39923B1F3552391F3951B550BBB2781
:10469000AA2762177307840738F09F5F5F4F220FC6
:1046A000331F441FAA1FA9F335D00E2E3AF0E0E8BD
:1046B00032D091505040E695001CCAF72BD0FE2F07
:1046C00029D0660F771F881FBB1F2617370748079B
:1046D000AB07B0E809F0BB0B802DBF01FF27935853
:1046E0005F4F3AF09E3F510578F00C9426180C94D9
:1046F000B1185F3FE4F3983ED4F3869577956795BC
:10470000B795F7959F5FC9F7880F911D9695879587
:1047100097F90895E1E0660F771F881FBB1F6217A6
:1047200073078407BA0720F0621B730B840BBA0B64
:10473000EE1F88F7E09508950E940218880B990BE8
:064740000895F894FFCF7C
:10474600E803000000007CF2B03C2653053ED93752
:10475600C34300000000000000000000803F00008E
:10476600C0C00000C842435C8B420000C04000004D
:10477600104100000000000000000AD7A33B000023
:1047860000000AD7A33B0AD7A33B35FA0EBCFDB3FC
:104796000BB9000010C1ABAAE241011E191E191E79
:1047A600191E191E191E191E191E190001FFFF06D2
:1047B60007FFFFFFFFFFFFFFFFFFFF0504030200E8
:1047C6000000008C08BA08290855082C083308464A
:1047D60008DC0300000000EF1DCB209F1DD01D71DB
:1047E6001D8B1D7D1D0D0A006E616E00696E6600D3
:0447F6006F76660074
:00000001FF
