:10000000FAC0000029C1000027C1000025C100007E
:1000100023C1000021C100001FC100001DC100005C
:100020001BC1000019C1000017C1000015C100006C
:1000300013C1000011C100000FC100000DC100007C
:100040000BC1000009C1000007C1000005C100008C
:1000500003C1000001C10000FFC000000C94912A00
:10006000FBC000000C949D2D0C94D32DF5C0000016
:10007000F3C00000F1C00000EFC00000EDC00000C0
:10008000EBC00000E9C00000E7C00000E5C00000D0
:100090000C94292E0C945F2EDFC00000BBC400001E
:1000A000DBC00000D9C00000D7C00000D5C00000F0
:1000B000D3C00000D1C00000CFC00000CDC0000000
:1000C000CBC00000C9C000000C94EF270C94B52EE3
:1000D0000C94EB2EC1C000000C94412F0C94772F90
:1000E000BBC0000000000A0B02090C0D0E0807033C
:1000F00004010000000000000000000000000000FB
:1001000000000000000000000000000000000000EF
:1001100012111000000000000000000000000000AC
:100120000000000000000000000001021020200874
:100130000810204010204080020102010804020142
:1001400001020408102040808040201008040201B1
:10015000800402018040201008040201080402010A
:100160000102040810204080010204081020408091
:1001700005050505070508080808020202020A0A23
:100180000808040404040101010101010101030341
:10019000030303030303040707070C0C0C0C0C0CEC
:1001A0000C0C0202020206060606060606060B0BE9
:1001B0000B0B0B0B0B0B00002200250028002B0063
:1001C0002E003100340002010000050108010B017E
:1001D00000002100240027002A002D0030003300F9
:1001E00001010000040107010A0178023108FC2D19
:1001F000882E142FA02F11241FBECFEFD1E2DEBF17
:10020000CDBF00E00CBF12E0A0E0B2E0E8ECF0E609
:1002100000E00BBF02C007900D92AA3DB107D9F7CD
:1002200028E0AAEDB2E001C01D92AE33B207E1F7BB
:1002300010E0CBEFD0E000E006C021970109802F4D
:10024000FE010E943130C53FD10780E00807A9F7C1
:100250000E94E4280C946230D3CE90E080E00895B0
:1002600080910E0390910F03891B990B0895909133
:100270000F0380910E032FEF3FEF981748F4E92FFB
:10028000F0E0E05FFC4F208130E09F5F90930F0330
:10029000C9010895E0910F0380910E03E81730F42F
:1002A000F0E0E05FFC4F808190E008958FEF9FEFDA
:1002B00008950895CF93DF93EC01E091E602F09169
:1002C000E7023097F1F090910F0380910E03981799
:1002D000C0F090E0292F30E02617370754F4DE01F4
:1002E000A20FB31F4C91205F3C4FD9014C939F5FED
:1002F000F1CF10920F0360930E03CB01DF91CF91EA
:100300001994DF91CF910895E091E802F091E9020C
:10031000309729F01092EC021092EB021994089594
:10032000CF93DF931F92CDB7DEB769832091EA02A6
:100330002223F9F02091EB02203258F021E030E046
:10034000FC013383228390E080E00F90DF91CF9116
:1003500008958091EC02E82FF0E0E351FD4F998180
:1003600090838F5F8093EC028093EB0281E090E0BA
:10037000ECCF61E0CE010196F7D0F8CFCF92DF92BB
:10038000EF92FF920F931F93CF93DF937C01CB01EA
:100390008A012091EA02222389F0EB016B01C40E4D
:1003A000D51ECC15DD0561F06991D701ED91FC9169
:1003B0000190F081E02DC7011995F3CF642FD4D0BF
:1003C000C801DF91CF911F910F91FF90EF90DF90C7
:1003D000CF90089510920F0310920E031092EC022A
:1003E0001092EB0296D084E891E0EAD08AE591E0A1
:1003F000E2C081E08093EA0260930D031092EC0268
:100400001092EB0208950F93062F21E04091EB022A
:100410006DEE72E080910D03D5D11092EC02109236
:10042000EB021092EA020F9108954F925F926F9241
:100430007F92AF92BF92CF92EF92FF920F931F9352
:10044000CF93DF935C01F62ED42F28013901EE20E3
:1004500009F1CFDFCE2DC43008F0C3E0C150B8F0B1
:1004600028E0C29FC0011124A301920104C0569547
:100470004795379527958A95D2F7B901D501ED9122
:10048000FC910190F081E02DC5011995E7CF60E066
:10049000C501B9DF4D2FD13208F040E22C2D60E1CB
:1004A00073E08F2DACD010920F0380930E03DF9179
:1004B000CF911F910F91FF90EF90CF90BF90AF9091
:1004C0007F906F905F904F900895CF92EF920F932F
:1004D0001F93C22EE12C00E010E09801A6DF1F91CF
:1004E0000F91EF90CF90089521E0EFCF61E08BCF97
:1004F000EAEDF2E01382128288EE93E0A0E0B0E031
:1005000084839583A683B78387E292E09183808377
:1005100008951092A30381E08093A1031092A00399
:1005200061E084E10E94462C61E085E10E94462C56
:10053000E9EBF0E080818E7F808380818D7F8083F6
:1005400088E48093B80085E48093BC000895ECEBC8
:10055000F0E080818A7B808360E084E10E94462C09
:1005600060E085E10C94462C20915203260F33273E
:10057000331F21323105ECF42091A303FC0190E0FC
:1005800080E0243069F082E00895A0915203219127
:10059000AC014C5A5C4FA40FB52FB11D2C930196A2
:1005A000861798F380915203680F6093520380E09E
:1005B000089581E00895909397038093960308959A
:1005C0009093990380939803089585EC8093BC00E1
:1005D0001092A3030895CF93DF9391E090939B0330
:1005E000882351F0C091B800D091BA00B0DF91DFFC
:1005F000D093BA00C093B800DF91CF9108954F9285
:100600005F926F927F928F929F92AF92BF92CF92A2
:10061000DF92EF92FF920F931F93CF93DF93D82F28
:10062000162F072FC42FB22E413208F0A2C00E940D
:10063000E72A6B017C018091A303811176C081E0E0
:100640008093A303B092A1039FEF90933003109285
:1006500075039C0F909374038093A2038091A2036F
:10066000DD0FD82BD093A2038091A003813009F035
:1006700082C01092A0030E94E72A6B017C01809146
:10068000A2038093BB0080919C0390919D03A09155
:100690009E03B0919F03892B8A2B8B2BA1F00E9484
:1006A000E72A80909C0390909D03A0909E03B090B9
:1006B0009F036C197D098E099F0986169706A80667
:1006C000B90608F453C08091BC0083FDD8CF85ECF7
:1006D0008093BC000E94E72A6B017C018091A303F8
:1006E000813009F44AC0809175038C1710F4C091D1
:1006F0007503A6E7B3E0912FE12FF02F8E2F891B12
:100700008C1708F45CC08C2FDF91CF911F910F9153
:10071000FF90EF90DF90CF90BF90AF909F908F9021
:100720007F906F905F904F90089580919C0390917F
:100730009D03A0919E03B0919F03892B8A2B8B2B45
:1007400009F479CF0E94E72A40909C0350909D03C2
:1007500060909E0370909F036C197D098E099F091C
:10076000461657066806790608F065CF80919A0309
:1007700032DFC0E0C8CF85EEABCF80919C03909173
:100780009D03A0919E03B0919F03892B8A2B8B2BF5
:1007900009F4A4CF0E94E72A80909C0390909D03C7
:1007A000A0909E03B0909F036C197D098E099F094C
:1007B00086169706A806B90608F090CFD7CF8D9178
:1007C00081939CCF4F925F926F927F928F929F9274
:1007D000AF92BF92EF92FF920F931F93CF93DF934D
:1007E000413208F0D8C0F22ED42FE72E162FC82F92
:1007F0000E94E72A4B015C018091A303811170C024
:1008000082E08093A3030093A1038FEF80933003D2
:1008100010927503D0937403912FA6E7B3E0E12FF4
:10082000FE2D8E2F891B8D1708F48EC01092A20307
:100830008091A203CC0FC82BC093A2038091A00388
:10084000813009F084C01092A0030E94E72A4B0176
:100850005C018091A2038093BB0080919C039091E6
:100860009D03A0919E03B0919F03892B8A2B8B2B14
:10087000A1F00E94E72A00919C0310919D03209112
:100880009E0330919F03681979098A099B0906170D
:1008900017072807390708F444C08091BC0083FD7E
:1008A000D8CF85EC8093BC000E94E72A4B015C0105
:1008B000FF2029F08091A303823009F44AC080917F
:1008C00030038F3F09F469C080913003803209F40E
:1008D00066C080913003803309F463C084E025C092
:1008E00080919C0390919D03A0919E03B0919F03E2
:1008F000892B8A2B8B2B09F47FCF0E94E72A40900B
:100900009C0350909D0360909E0370909F03681914
:1009100079098A099B09461657066806790608F080
:100920006BCF80919A0357DE85E0DF91CF911F91C5
:100930000F91FF90EF90BF90AF909F908F907F901E
:100940006F905F904F90089581918D936ACF85EE5F
:10095000A9CF80919C0390919D03A0919E03B0919B
:100960009F03892B8A2B8B2B09F4A2CF0E94E72AA5
:1009700000919C0310919D0320919E0330919F0351
:10098000681979098A099B09061717072807390783
:1009900008F08ECFC6CF81E0C8CF80E0C6CF82E01E
:1009A000C4CF83E0C2CF85ED8093BC0080919C03CF
:1009B00090919D03A0919E03B0919F030796A11D66
:1009C000B11D23E0B695A795979587952A95D1F700
:1009D0002091BC0024FD03C01092A3030895409110
:1009E0009C0350919D0360919E0370919F03452B42
:1009F000462B472B69F30097A105B10541F025E38C
:100A00002A95F1F700000197A109B109E1CF809182
:100A10009A03E1CD1F920F920FB60F9211240BB6DD
:100A20000F922F933F934F935F936F937F938F9387
:100A30009F93AF93BF93EF93FF938091B900887F0B
:100A4000803609F44CC008F03FC0883209F4A8C0D1
:100A500028F5803109F49CC0C8F4882309F4F8C053
:100A6000883009F495C0FF91EF91BF91AF919F91AC
:100A70008F917F916F915F914F913F912F910F9047
:100A80000BBE0F900FBE0F901F901895883109F480
:100A900087C0803241F78093300314C0803409F45A
:100AA0009CC040F48033B9F38833E9F68093300377
:100AB0008CDDD9CF803509F484C0883509F495C020
:100AC000883489F670DFCFCF883909F48CC038F5C7
:100AD000883729F050F4883611F0803721F683E00A
:100AE0008093A3031092310357C0883809F47BC068
:100AF000803919F0803809F0B6CF80913103803207
:100B000008F071C0E091310381E08E0F80933103D2
:100B10008091BB00F0E0EE5CFC4F80833DC0803BE9
:100B200039F0E0F4803A09F479C0883A09F09BCFB3
:100B300084E08093A3031092530310925203E09138
:100B40009803F091990319958091520381110FC078
:100B500081E0809352031092540309C0803C09F451
:100B600075C0883C09F472C0883B09F07CCFE091E5
:100B7000530381E08E0F80935303F0E0EC5AFC4F57
:100B800080818093BB00909153038091520329C0D0
:100B90008091A2038093BB0085EC8093BC0063CF5F
:100BA0009091750380917403981758F5E09175033F
:100BB00081E08E0F80937503F0E0EA58FC4F80814E
:100BC000E9CFE091750381E08E0F809375038091EA
:100BD000BB00F0E0EA58FC4F808390917503809150
:100BE00074039817C8F285E8D8CFE091750381E0C7
:100BF0008E0F809375038091BB00F0E0EA58FC4FA4
:100C000080838091A10381115DCF81E08093A00357
:100C100084EA8093BC001092A30325CFD6DC809198
:100C20003103803230F4E0913103F0E0EE5CFC4FB0
:100C300010826091310370E0E0919603F091970388
:100C400082E393E01995109231030DCF85ECE1CF4B
:100C50001092300337CFFF920F931F93CF93DF9300
:100C6000C62F042FF22E132F682F8AED92E0C1DBDE
:100C70006C2F8AED92E054DBCF2DD12F0C0F1D2F5E
:100C8000111DC017D10729F069918AED92E048DB68
:100C9000F8CF8AED92E02ADC91E0811190E0892F73
:100CA000DF91CF911F910F91FF900895CF93DF9324
:100CB0001F92CDB7DEB749839E012F5F3F4F41E0C2
:100CC000CADF0F90DF91CF9108952F923F924F92FC
:100CD0005F926F927F928F929F92AF92BF92CF92CC
:100CE000DF92EF92FF920F931F93CF93DF9300D089
:100CF000CDB7DEB7E82E69834B8369010E94DB2AFA
:100D00004B015C01F12C1A822B81222E312C2801FF
:100D1000712C612C8B81F81608F044C06E2D8AED81
:100D200092E067DB69818AED92E0FADA8AED92E07F
:100D3000DDDB6E2D8AED92E05CDBA1014F195109DC
:100D40004132510514F040E250E06E2D8AED92E000
:100D5000CBDB8AED92E084DA892BD9F001151105FD
:100D600069F48AED92E083DAF6019A81E90FF11DC8
:100D700097FDFA9580839F5F9A83EBCF0E94DB2AD1
:100D8000681979098A099B0964157505860597050F
:100D900040F38AED92E0AADB8B81813208F080E299
:100DA000F80EB8CF01151105C1F00E94DB2A6819B1
:100DB00079098A099B0930E020E0601771078207F2
:100DC000930758F02A81822F220F990B2B81281725
:100DD000190619F014F08FEF8A838A810F900F9013
:100DE0000F90DF91CF911F910F91FF90EF90DF90C7
:100DF000CF90BF90AF909F908F907F906F905F90BB
:100E00004F903F902F9008950F931F9389019A015F
:100E100041E05BDF1F910F910895EF92FF920F93D6
:100E20001F93CF93DF931F92CDB7DEB7182F062FF6
:100E3000E42EF22E2091000230910102AE014F5FAC
:100E40005F4FE2DF81E090E001C0880FEA94EAF7AB
:100E50004981FF2069F0482B4983602F812F26DFCD
:100E60000F90DF91CF911F910F91FF90EF90089518
:100E700080954823F1CFDF92EF92FF920F931F935B
:100E8000CF93DF931F92CDB7DEB7F82EE62E142F47
:100E9000D22E2091000230910102AE014F5F5F4FD0
:100EA000B3DF882351F1812F8D19990BAC014F5F6E
:100EB0005F4F81E090E002C0880F991FDA94E2F75B
:100EC0000197042E01C0880F0A94EAF701C0000FB1
:100ED0004A95EAF7482F4095998149238023482B6A
:100EE00049836E2D8F2DE2DE0F90DF91CF911F9100
:100EF0000F91FF90EF90DF90089580E0F5CF28E606
:100F0000FC01208308950F93062F23E042E06AE15D
:100F1000FC018081B0DF0F9108950F93062F22E02E
:100F200044E06BE1FC018081A6DF0F9108950F93EF
:100F3000062F22E044E06CE1FC0180819CDF0F91F0
:100F400008950F931F93CF93DF93EC01009100025C
:100F5000109101029C012F5F3F4F42E063E48881C2
:100F6000B4DE89819A81982789279827DF91CF91CC
:100F70001F910F9108950F931F93CF93DF93EC016F
:100F800000910002109101029C012F5F3F4F42E04F
:100F900065E488819ADE89819A8198278927982734
:100FA000DF91CF911F910F9108950F931F93CF93CE
:100FB000DF93EC0100910002109101029C012F5F70
:100FC0003F4F42E067E4888180DE89819A819827DB
:100FD00089279827DF91CF911F910F910895262F90
:100FE00046E06BE6FC01808118CF0F93062F23E0CB
:100FF00042E06BE6FC0180813EDF0F910895CF93C4
:10100000DF93EC0161E0F1DF60E0CE0186DF60E0BC
:10101000CE018DDF60E0CE01DF91CF91E0CFCF93A5
:10102000C82F8AED92E0D6D96C2F84EA93E06BDF6B
:1010300084EA93E0CF91E3CFCF93DF93EC0184EA8E
:1010400093E07FDF9983888384EA93E094DF9B8336
:101050008A8384EA93E0A9DF9D838C83DF91CF911B
:10106000089584EA93E04BCF90E080E008950F93D9
:101070001F93009709F487C06115710509F483C0B7
:101080000091060210910702209108023091090296
:101090000E3F1F4F2F4F3F4F09F066C04FEF5FEFDE
:1010A000BA014093060250930702609308027093BE
:1010B0000902409106025091070260910802709166
:1010C0000902DC011296ED91FC9180819181A2814F
:1010D000B3818093AB049093AC04A093AD04B09320
:1010E000AE0484819581A681B7818093A7049093F3
:1010F000A804A093A904B093AA0480859185A28531
:10110000B3858093A3049093A404A093A504B09303
:10111000A60484859585A685B78580939F049093C2
:10112000A004A093A104B093A20410929B04109277
:101130009C0410929D0410929E0495D488E59DE035
:101140009093B4038093B3039093B6038093B50355
:1011500079D3009731F421E030E03093B00420934C
:10116000AF041F910F91089500910602109107029C
:101170002091080230910902DB010D931D932D93FC
:101180003C93139796CF8FEF9FEFEBCF8F929F9269
:10119000AF92BF92CF92DF92EF92FF921F93CF93C5
:1011A000DF934B015C011091B20482E090E09093D8
:1011B000B0048093AF0481149104A104B10441F4FC
:1011C0008091B204811104C08091B104C1E0811109
:1011D000C0E0C12CD12C76018091B204811106C0EF
:1011E0008091B104811102C0CC23D1F083E090E062
:1011F0009093B0048093AF04CC2371F1CCE9DFEF7E
:10120000111101C0BAD7CE01DF91CF911F91FF908C
:10121000EF90DF90CF90BF90AF909F908F90089508
:101220006AE070E080E090E00E940C2B80E1C80E44
:1012300087E2D81EE11CF11C8FEF88169806A806DD
:10124000B80631F0C1E08C149D04AE04BF0408F070
:10125000C0E080E02BD3C0CFD0E0C0E0D1CFCF92B0
:10126000DF92EF92FF920F931F93CF93DF938F3F05
:10127000910511F008F050C02091AF043091B004F6
:101280002330310539F02091AF043091B004213082
:10129000310531F424E030E03093B0042093AF0402
:1012A0006A017B01EC0182309105A0F011E0AE01F2
:1012B000C701B601C6D2AB01BC01CE011123F9F0C2
:1012C000DF91CF911F910F91FF90EF90DF90CF9022
:1012D0000C94E6128C01000F111F0D541C4FD80105
:1012E0008D919C91892B11F30E94F0120297F1F6D7
:1012F000D801ED91FC91CE011995182FD8CF0E94FD
:10130000081390E080E0DF91CF911F910F91FF9043
:10131000EF90DF90CF9008958FEF9FEFF4CF80E0B4
:10132000C5C2CF93DF9386E090E09093B0048093A2
:10133000AF0415D3EC01E3EBF3E084E0DF011D9291
:101340008A95E9F7B2D61092B0041092AF04CE019C
:10135000DF91CF9108958091B104089580919A040E
:101360000895609306027093070280930802909399
:10137000090290E080E008950F931F93CF93DF93CD
:1013800000D000D0CDB7DEB78091370881508230D1
:10139000A8F583E080933708CE0101964DDE698180
:1013A0007A81072E000C880B990B0E947A29609392
:1013B00038087093390880933A0890933B08E0917D
:1013C0007404F0917504209102023091030240915F
:1013D00004025091050260817181828193810E9493
:1013E000D92918168CF480913708882349F0833066
:1013F00009F469C0082E000C990B04C080E0CACF24
:1014000082E090E08093370840916104509162043B
:10141000609163047091640490E080E020DF40916B
:10142000690450916A0460916B0470916C0481E0CE
:1014300090E015DF60916104709162048091630413
:10144000909164046F5F7F4F8F4F9F4F6093610453
:101450007093620480936304909364040091740415
:10146000109175040E9478299B01AC01609165047C
:101470007091660480916704909168040E94DD2950
:10148000F8016083718382839383809169049091D2
:101490006A04A0916B04B0916C040196A11DB11D6A
:1014A0008093690490936A04A0936B04B0936C04D6
:1014B00026960FB6F894DEBF0FBECDBFDF91CF9159
:1014C0001F910F91089581E090E09CCF0F931F939F
:1014D000CF93DF93E9ECF3E085EBDF011D928A9572
:1014E000E9F781E794E097838683C4E7D4E0D0935B
:1014F0000A04C093090405E614E0158B048BF093ED
:101500003404E0933304F583E48321E030E0DC012C
:101510002D933C9385E392E09387828786E794E05E
:101520009983888340E050E060E87FEB40936D044E
:1015300050936E0460936F04709370044AE057ED0B
:1015400063E27CE3D8014D935D936D937C93139795
:10155000CFE4D4E04AEA5EE262E37EE54883598361
:101560006A837B8344EC5AE569E375E9409353044D
:101570005093540460935504709356044DE55FE016
:1015800067E573E1409357045093580460935904FE
:1015900070935A0443EF5BE36BEB7CE440935B0492
:1015A00050935C0460935D0470935E04ADEBB3E014
:1015B000B383A283E7EBF3E01196FC93EE9327E469
:1015C00032E0318320833383228327E338E035837D
:1015D00024832FE534E015963C932E9314971396AD
:1015E000DC93CE93129717969C938E931697E8E30D
:1015F000F8E084E0DF011D928A95E9F7CFE2D8E0B8
:1016000089E0FE0111928A95E9F781E090E0A0E07F
:10161000B0E089839A83AB83BC8390E080E0FFDCF9
:1016200081E08D83DF91CF911F910F91089580917B
:101630002F08811103C081E080932F0808954F92F5
:101640005F926F927F928F929F92AF92BF92CF9252
:10165000DF92EF92FF920F931F93F89440908A04C9
:1016600050908B0460908C0470908D04C0907E0428
:10167000D0907F04E0908004F090810441305105C7
:1016800009F0A4C09B01AC0124193509460957098A
:1016900029013A0100918604109187042091880461
:1016A0003091890448015901840C951CA61CB71C73
:1016B00080169106A206B306A0F400918204109150
:1016C000830420918404309185040F5F1F4F2F4FB6
:1016D0003F4F00938204109383042093840430933B
:1016E00085048092860490928704A0928804B09228
:1016F0008904009182041091830420918404309124
:10170000850480928E0490928F04A0929004B092EF
:1017100091040093920410939304209394043093C3
:10172000950460938A0470938B0480938C04909347
:101730008D04A0E1B7E2A30192010E9439306C0D43
:101740007D1D8E1D9F1D60937E0470937F0480938A
:101750008004909381040091060210910702209169
:101760000802309109020F3F1F4F2F4F3F4FF1F0FA
:10177000009106021091070220910802309109029F
:101780000E3F1F4F2F4F3F4F89F0C0900602D09061
:101790000702E0900802F090090221E08C149D04F9
:1017A000AE04BF0408F420E020939A0478941F91BB
:1017B0000F91FF90EF90DF90CF90BF90AF909F90F0
:1017C0008F907F906F905F904F9008954B015C01D8
:1017D00084189508A608B708A3019201261B370BA9
:1017E000480B590B6415750586059705D0F08216D0
:1017F0009306A406B50640F420E030E0A901811468
:101800009104A104B10491F4A0E1B7E20E9439303F
:10181000A7019601261B370B480B590BCA01B901CA
:10182000C5CF82169306A406B50670F7A0E1B7E20D
:10183000A50194010E9439306C0D7D1D8E1D9F1DE8
:10184000B5CFFDCECF93DF9300D01F92CDB7DEB7DB
:101850001C821B821A82198210929604109297049D
:101860001092980410929904BE016F5F7F4FCE01D1
:1018700003960E94BA2769817A818B819C810E949C
:101880000D22009761F4BE016F5F7F4FCE0103967A
:101890000E94C62769817A818B819C812FD50F9008
:1018A0000F900F900F90DF91CF910895FF920F93BB
:1018B0001F93CF93DF93082F60E070E0CB010E946D
:1018C0000C2BFF24F3940E94F620EC01892B89F065
:1018D00010E0CE3F8FEFD80769F0002361F160E0A0
:1018E00070E0CB010E940C2B81E090E0892B59F332
:1018F00022C011E026D5EC01892B21F0CE3F8FEFDD
:10190000D80759F711111EC011E0229609F410E012
:101910000E94A620EC01892B21F0CE3F8FEFD80743
:10192000E1F6111111C011E0CE3F8FEFD80709F495
:1019300010E001110BC0CE01DF91CF911F910F91EB
:10194000FF90089511E0E4CF11E0F3CF60E070E084
:10195000CB010E940C2B1F25812F90E0C7CFCF9386
:10196000DF9380919A04882321F060E070E0CB013E
:101970004DD636D6D0E0C0E0892B71F06AE070E039
:1019800080E090E00E940C2B81E090DF29D6219628
:10199000C03D27E0D20781F728D60E94612210922D
:1019A000B2041092B1041092AB041092AC041092E5
:1019B000AD041092AE041092A7041092A8041092E5
:1019C000A9041092AA041092A3041092A4041092E5
:1019D000A5041092A60410929F041092A0041092E5
:1019E000A1041092A20410929B0410929C041092E5
:1019F0009D0410929E044EEF5FEF6FEF7FEF4093D8
:101A00000602509307026093080270930902109235
:101A10009A04EEE8F4E028E0DF011D922A95E9F748
:101A200010928A0410928B0410928C0410928D04F0
:101A300010928604109287041092880410928904F0
:101A400010928204109283041092840410928504F0
:101A500010927E0410927F041092800410928104F0
:101A6000DF91CF9108951092BE041092BF0410929E
:101A7000C0041092C1041092BD048091C6049091DC
:101A8000C7049093BC048093BB041092BA041092D4
:101A9000B9041092B5041092B6041092B7041092D3
:101AA000B8041092C3041092C20490E080E008953C
:101AB000CF92DF92EF92FF920F931F93CF938C01FF
:101AC000019709F055C02091C6043091C704809158
:101AD000BB049091BC044091C6045091C70450933C
:101AE000BC044093BB042817390781F01092BA0454
:101AF0001092B9041092B5041092B6041092B70473
:101B00001092B8041092C3041092C2048091C604CB
:101B10009091C704019761F58091C2049091C3042C
:101B2000892B21F480910A02811112C08091C20494
:101B30009091C3040197E1F48091B5049091B604AB
:101B4000A091B704B091B8040197A105B10581F443
:101B50001092B5041092B6041092B7041092B80413
:101B600010920A0282E090E09093C3048093C20432
:101B70008091C6049091C704019709F01CC180911F
:101B8000DC049091DD048017910709F014C1809165
:101B9000D8049091D904A091DA04B091DB040097A5
:101BA00009F409C12091D70421110DC04091D80436
:101BB0005091D9046091DA047091DB04452B462BD7
:101BC000472B09F4F8C02091C2043091C30422309D
:101BD000310509F0F0C02091B9042111ECC0FC01DD
:101BE000C080D180E280F3808091BD04882309F415
:101BF000D3C08091C9049091CA04892B09F4FEC016
:101C00002091C9043091CA0481E02230310509F0E5
:101C100080E02091C9043091CA04C1E0213031052F
:101C200049F02091C9043091CA04C1E02230310545
:101C300009F0C0E0882309F456C02091D304309104
:101C4000D4044091D5045091D604C701B6010E9436
:101C5000D92987FD14C02091D3043091D404409138
:101C6000D5045091D6046091BE047091BF04809158
:101C7000C0049091C1040E94742987FD22C0209164
:101C8000D3043091D4044091D5045091D604C701B7
:101C9000B6010E94D929181634F52091D304309149
:101CA000D4044091D5045091D6046091BE04709143
:101CB000BF048091C0049091C1040E9474298111D5
:101CC00012C08091CB049091CC04A091CD04B0912E
:101CD000CE04892B8A2B8B2B19F481E08093BA04D4
:101CE00081E08093B904CC2309F456C02091D30439
:101CF0003091D4044091D5045091D604C701B60167
:101D00000E94742987FF14C02091D3043091D40419
:101D10004091D5045091D6046091BE047091BF04E7
:101D20008091C0049091C1040E94D92987FF22C0EC
:101D30002091D3043091D4044091D5045091D6041D
:101D4000C701B6010E947429811126C02091D304D5
:101D50003091D4044091D5045091D6046091BE04D2
:101D60007091BF048091C0049091C1040E94D92950
:101D7000181694F48091CB049091CC04A091CD04DA
:101D8000B091CE04892B8A2B8B2B19F481E08093A0
:101D9000BA0481E08093B90481E09091B904911173
:101DA00080E08093BD04C092BE04D092BF04E09254
:101DB000C004F092C1040130110509F067C180919F
:101DC000C2049091C304892BD9F41092C8041092D4
:101DD000B90480910A02882379F082E090E0909320
:101DE000C3048093C20410920A022091C604309169
:101DF000C70481E0232BE9F080E01BC081E009CF1C
:101E000010920A028091C804882349F01092BA0403
:101E10001092C3041092C2041092C804EDCF8091B6
:101E2000C6049091C704892BE1F08091B904109207
:101E3000B9042091C2043091C3042230310509F461
:101E40005EC088F42115310509F448C02130310500
:101E500009F4F3C01092BA041092B9041092C804A5
:101E600038C081E0E6CF2330310509F4B1C0243019
:101E7000310581F74091B5045091B6046091B704E3
:101E80007091B804411551056105710561F041502B
:101E90005109610971094093B5045093B6046093E8
:101EA000B7047093B8044091B5045091B6046091A2
:101EB000B7047091B804452B462B472BD9F42091D9
:101EC000C4043091C5042130310509F046C0109298
:101ED000BA041092C3041092C2040CC080910A028A
:101EE000882341F082E090E09093C3048093C20481
:101EF00010920A021092B3048091BA04CEC08823D3
:101F0000C9F38091CB049091CC04A091CD04B09101
:101F1000CE04181619061A061B060CF07DC0809117
:101F2000C6049091C704019709F076C08091CB0454
:101F30009091CC04A091CD04B091CE048093B504CF
:101F40009093B604A093B704B093B80483E090E0F4
:101F50009093C3048093C204CDCF4091CF0450919D
:101F6000D0046091D1047091D204452B462B472BAD
:101F7000A9F01092BA048091CF049091D004A0915E
:101F8000D104B091D2048093B5049093B604A09389
:101F9000B704B093B80481E090E0DACF882399F0D9
:101FA00080910B0290910C02A0910D02B0910E0253
:101FB0008093B5049093B604A093B704B093B8048B
:101FC00084E090E0C5CF1092BA0482E090E0C0CFE8
:101FD0008091B5049091B604A091B704B091B80473
:101FE0000097A105B10559F00197A109B1098093A6
:101FF000B5049093B604A093B704B093B80480914D
:10200000B5049091B604A091B704B091B804892B9F
:102010008A2B8B2B09F06ECF80910B0290910C02D2
:10202000A0910D02B0910E02892B8A2B8B2B09F403
:102030004ECF81E08093BA04B3CF4091B504509164
:10204000B6046091B7047091B8044115510561055B
:10205000710561F041505109610971094093B5045E
:102060005093B6046093B7047093B8044091B504DC
:102070005091B6046091B7047091B804452B462B7B
:10208000472B09F037CF8111C7CF9FCF8091B30481
:10209000882309F431CF8091B404CF911F910F911F
:1020A000FF90EF90DF90CF9008951092BE041092B1
:1020B000BF041092C0041092C1041092BD0410928B
:1020C000C3041092C2041092BC041092BB0410927C
:1020D000DD041092DC041092BA041092B90410923C
:1020E000B5041092B6041092B7041092B80410927E
:1020F000B4041092B3041092D8041092D904109230
:10210000DA041092DB041092D7041092D3041092D8
:10211000D4041092D5041092D60488EE93E0A0E087
:10212000B0E080930B0290930C02A0930D02B09349
:102130000E021092CF041092D0041092D10410928B
:10214000D2041092CB041092CC041092CD041092C1
:10215000CE041092CA041092C90481E080930A024E
:102160001092C8041092C7041092C6041092C504BD
:102170001092C40490E080E008958091C60490918C
:10218000C704892B19F580910A02882351F08091A8
:10219000C804811106C081E08093B4048093B30425
:1021A00008952091C80430910A0281E090E0332321
:1021B00011F090E080E030E082239323892B21F01E
:1021C0001092B40481E0EACF1092B304089582E043
:1021D00090E0FA01918380838FEF9FEF0895CF9372
:1021E000DF93EA01009711F00E94DB221982188226
:1021F00090E080E0DF91CF910895DB01009719F422
:102200008FEF8C9308952EEF2C93FC013F96EF30C7
:10221000F10508F034C08827EF5EFE4E8F4F0C9416
:1022200031303D113B113911371135113111331155
:102230002F112D112B1128112411201126113F11BE
:1022400080E311968C93089589E2FBCF82E2F9CF67
:1022500011961C92089583E2F4CF81E2F2CF81E1DE
:10226000F0CF87E2EECF8AE2ECCF80E1EACF84E2E2
:10227000E8CF88E2E6CF86E2E4CF81E3E2CF80E2F6
:10228000E0CF8091EA049091EB0408959093EB04E1
:102290008093EA0408958091E90408959091E904F7
:1022A000892B8093E9040895982F90958091E904F3
:1022B00089238093E90408958091E804089580912A
:1022C000E6049091E70408956115710559F0FB014A
:1022D00030E020E070E060E02417350719F0611568
:1022E000710511F0CB010895A081B181A817B9073C
:1022F00009F4BF012F5F3F4F3696EECF8091EC047B
:1023000081111CC060D266D29093DF048093DE04FA
:102310000E947F1B0E94911B9093E3048093E20430
:102320000E940E200E9415209093E1048093E00407
:1023300081E08093EC0490E080E0089584EF9FEFCB
:1023400008958F929F92AF92BF92CF92DF92EF92B9
:10235000FF920F931F93CF93DF9300D000D000D054
:102360001F92CDB7DEB71A86198618861F821E8285
:102370001D821C821B821A8219828091EC0407EF55
:102380001FEF882309F49CC08E010D5F1F4F9E0133
:102390002B5F3F4FAE01495F5F4FBE01675F7F4FCD
:1023A00090E080E00E9492218C01009721F0059638
:1023B000029708F0DBC029853A852115310509F41B
:1023C00002C1ED80FE804B815C81B701640F751FF7
:1023D0008F8198858617970708F4F5C0E20EF31EE3
:1023E000D7019C91903C09F07FC04230510508F420
:1023F0007BC011968C914091EA045091EB04452BDF
:1024000009F49CC0913F08F071C02CE1290F2D30D8
:1024100008F48BC02DE2290F203108F489C0903CCC
:1024200021F48150823008F483C088E3890F8B3017
:1024300008F481C09DEFC92E90E1D92EE7EEF0E1BE
:102440006D817E81AE014F5F5F4F89859A851995B9
:102450005C01C114D104A1F189809A808114910496
:1024600079F18B819C818815990508F487C010E06B
:1024700000E04B815C8170E060E0C7010E945B304E
:1024800001151105E9F449815A8169857A858D81A3
:102490009E81680F791FC501F6011995E980FA80C0
:1024A0000D811E812F81388549855A856FEF7FEF19
:1024B00081E090E00E942D218C01892B09F056C00B
:1024C000C8012A960FB6F894DEBF0FBECDBFDF91CC
:1024D000CF911F910F91FF90EF90DF90CF90BF9021
:1024E000AF909F908F90089580E085CF30E020E0FE
:1024F000220F331FF901E252FB4F0190F081E02DD2
:10250000309709F497CF892F90E01995009709F437
:1025100091CFDC011296ED91FC9113971496CD901A
:10252000DC90309709F08CCF1FC021E030E0E0CF85
:1025300022E030E0DDCF23E030E0DACFD12CC12C37
:10254000EFEEF0E19F3F09F07BCFE091DE04F091E8
:10255000DF04309721F4C90104EF1FEF0CC08FEFA7
:1025600090E019950097A9F604EF1FEF89859A85E9
:10257000009709F4A5CF0E94DB22A2CF0E945C2223
:102580008C0189859A850E94DB2270E060E0C4019D
:102590000E94F52198878F830E942A219E838D8334
:1025A0006F8178856115710559F0C8010E94FE237D
:1025B0009A87898706EF1FEF892B09F058CF59CFEB
:1025C00008EF1FEF56CF08EF1FEFD0CF2091EC049C
:1025D000222319F020E00C94961B87EF9FEF0895BB
:1025E0008091EA049091EB0408950E941A200E94C1
:1025F000741FF5D0EEEDF4E088E0DF011D928A95BE
:10260000E9F71092EC0490E080E008950C94D21D5C
:1026100021E040E050E0BA010C94961B86E090E087
:10262000FA019183808390E080E0089547E050E0D4
:102630006AE472E049CEDF92EF92FF920F931F930C
:10264000CF93DF938A01EC01C60FD71FE090F0040F
:10265000F090F104D9800E944422D816190678F02F
:1026600082E090E0F801918380838EEF9FEFDF910D
:10267000CF911F910F91FF90EF90DF900895EF2879
:1026800041F482E090E0F8019183808384EF9FEF32
:10269000EECF89818093EF0490E00196F801918359
:1026A000808390E080E0E3CFCF93DF93EA010E9444
:1026B000831E882321F00E9451220E94841E82E002
:1026C00090E0998388838BEF9FEFDF91CF910895FE
:1026D000CF93DF93EB0186E0FB0111928A95E9F736
:1026E0008FEF8883D8DD8983E7DD8A83E8DD9D83EA
:1026F0008C83DF91CF910895CF93DF93EA010E94FD
:10270000861E811109C082E090E09983888385EF5D
:102710009FEFDF91CF91089590E080E0B7DD81E0F9
:1027200090E09983888390E080E0F3CF0F931F932C
:10273000CF93DF93EA018C01060F171F0E94861EBC
:1027400081110BC082E090E09983888385EF9FEF31
:10275000DF91CF911F910F910895F801818182300F
:1027600038F082E090E0998388838EEF9FEFF0CF7E
:1027700081E090E08BDD88E090E09983888390E0B1
:1027800080E0E6CFCF93DF930097D1F4EB01FB011C
:10279000329686E0DF011D928A95E9F78FEF8883F4
:1027A00085E089831A820E9444228B830E944322FF
:1027B0009D838C8381E08E838F83DF91CF910895F9
:1027C000DF91CF911ACD86E193E19093EE0480934F
:1027D000ED0408958091ED049091EE040895109217
:1027E000EE041092ED0408958091F0049091F104AC
:1027F0000895411105C0611571058105910561F0CC
:102800006093F0047093F1048093F2049093F304C6
:102810004093F40481E0089580E00895FF920F93BF
:102820001F93CF93DF938A01EC01C60FD71FF98066
:102830000E944422F816190668F082E090E0F80140
:10284000918380838EEF9FEFDF91CF911F910F9146
:10285000FF9008956C817D818E819F814B81C9DFBE
:10286000811108C082E090E0F8019183808384EFB9
:102870009FEFEACF89818093EF0490E00196F80101
:102880009183808390E080E0DFCFCF93DF93EA01F4
:10289000FC01E60FF71F6481758186819781438172
:1028A000A8DF811109C082E090E09983888384EFDA
:1028B0009FEFDF91CF91089581E090E09983888325
:1028C00090E080E0F6CFE0EFF4E04081518162815A
:1028D0007381480F511D611D711D408351836283B7
:1028E00073830895CF93C091EF044C2F50E0609113
:1028F000F0047091F10401960E9452308C2FE3DFB6
:102900001092EF04CF910895009799F48091F0040C
:102910009091F1042FEFFB012083892B59F0209136
:10292000EF0430E02F5F3F4F2417350719F4CB0138
:10293000D9CF63CC0895009799F48091F0049091D9
:10294000F1042FEFFB012083892B59F02091EF0434
:1029500030E02F5F3F4F2417350719F4CB01C2CF6A
:102960004CCC089523E1AC01249FC001259F900D1C
:102970001124E091F904F091FA04E80FF91F238182
:1029800034812250310981E02230310508F080E0A5
:1029900008950F931F93CF93DF930091FB04109141
:1029A000FC04D0E0C0E080E00C171D0749F491E082
:1029B000811190E0892FDF91CF911F910F910895A0
:1029C0008111F5CFCE01CEDF2196EECFA091F90493
:1029D000B091FA04109729F12091FB043091FC0486
:1029E00082179307F0F453E1589F9001599F300DDF
:1029F0001124A20FB31FED91FC911197309789F02C
:102A000012968C91681768F48DE0689FE00DF11DB7
:102A1000112480819181892B21F081E092814917D5
:102A200008F080E008959C0143E1429FC001439F6C
:102A3000900D1124E091F904F091FA04E80FF91FC8
:102A40008385823091F481E090E0658176814091C8
:102A50000F02509110026417750711F490E080E0A6
:102A6000892B19F081E0232B09F080E00895FC0107
:102A7000A081B1818DE0689FA00DB11D1124139636
:102A80004D915C9185859685489F9001499F300DB9
:102A9000589F300D1124C9010196611103C047816F
:102AA00044FD04960895EF92FF920F931F93CF93E6
:102AB000DF93EA01FC01E60FF71F02811381E48036
:102AC000F5804F2D6E2DC80181DF81110DC082E090
:102AD00090E0998388838EEF9FEFDF91CF911F91D4
:102AE0000F91FF90EF900895C8013CDF882339F0E3
:102AF00082E090E09983888388EF9FEFEECF109378
:102B0000160200931502E0921702F092180281E07B
:102B100090E09983888390E080E0DFCFCF92DF92CE
:102B2000EF92FF920F931F93CF93DF937A01EC0103
:102B3000C60FD71FC0901502D09016020091170241
:102B400010911802412F602FC60140DF811110C083
:102B500082E090E0F701918380838AEF9FEFDF911D
:102B6000CF911F910F91FF90EF90DF90CF9008953C
:102B7000C601F8DE882341F082E090E0F7019183FE
:102B8000808388EF9FEFEBCF4C815D816E817F81E9
:102B90009A8189818F3F41F082E090E0F701918333
:102BA00080838EEF9FEFDBCFE3E1EC9D9001ED9D05
:102BB000300D1124E091F904F091FA04E20FF31FB3
:102BC0000190F081E02D2DE0029FE00DF11D112418
:102BD0000190F081E02D27E0129FE00DF11D1124FE
:102BE000808391838B81828343835483658376833F
:102BF0001F5F1093180281E090E0F70191838083BA
:102C000090E080E0ACCFEF92FF920F931F93CF93B1
:102C1000DF937A018C01060F171FC091F904D09140
:102C2000FA04209781F021E030E0F801828193815D
:102C30004091FB045091FC048417950710F030E09C
:102C400020E0232B71F482E090E0F70191838083F0
:102C50008EEF9FEFDF91CF911F910F91FF90EF903B
:102C6000089543E1489F9001499F300D1124C20F00
:102C7000D31F78DE882341F082E090E0F701918352
:102C8000808388EF9FEFE6CFF801248135812038DB
:102C90003105C8F687818111D6CF4181842F90E01C
:102CA0008F7E009741F082E090E0F701918380836E
:102CB00086EF9FEFCFCF4F833E832D8326812887DA
:102CC0001986223010F421E0288721E030E0F70156
:102CD00031832083BFCF88E090E0FA019183808325
:102CE00090E080E00895FB018FEF808381E1818394
:102CF0008FEF9FEF9383828380E890E095838483B6
:102D0000168217820895FB018FEF808391E09183F3
:102D100082839383848384E3858381E090E0978337
:102D200086830895DF92EF92FF920F931F93CF93C4
:102D3000DF93EA01FC01E60FF71F8181813071F01A
:102D400082E090E0998388838FEF9FEFDF91CF91AE
:102D50001F910F91FF90EF90DF90089582819381F2
:102D6000D4802581E680F7800091F9041091FA045F
:102D70000115110539F482E090E0998388838CEF86
:102D80009FEFE4CF4091FB045091FC04841795071A
:102D900038F082E090E0998388838EEF9FEFD6CF62
:102DA000892B39F082E090E09983888386EF9FEF4A
:102DB000CDCF8D2D8D7FB1F72130A1F781E0D110DE
:102DC00006C091E0E916F10431F080E004C0E2E0D1
:102DD000EE16F104D0F3882329F390E080E0C2DD01
:102DE000882339F082E090E09983888388EF9FEF11
:102DF000ADCFF801D38681E08487F686E586108A18
:102E0000178681E090E09983888390E080E09ECFF0
:102E10004CE050E064E772E057CA8F929F92BF92F5
:102E2000CF92DF92EF92FF920F931F93CF93DF9396
:102E3000EA01FC01E60FF71F828193810481B580CE
:102E4000E091F904F091FA04309791F482E090E077
:102E5000998388838CEF9FEFDF91CF911F910F9122
:102E6000FF90EF90DF90CF90BF909F908F9008954C
:102E70002091FB043091FC048217930738F082E024
:102E800090E0998388838EEF9FEFE6CF23E1289F20
:102E90006001299FD00C1124EC0DFD1DE080F18014
:102EA000E114F10499F28281081748F78DE0089F38
:102EB00080011124E00EF11EF70180819181892BA0
:102EC00029F6BB20E1F2F7E0BF9E40011124C401C6
:102ED0000E94D822F70191838083E091F904F09158
:102EE000FA04EC0DFD1D0190F081E02DE00FF11FC3
:102EF00080819181009739F482E090E09983888302
:102F00008DEF9FEFA9CFA40170E060E00E945B30DD
:102F10008091F9049091FA04C80ED91EF6018081BF
:102F20009181080F191FF801B28281E090E0998326
:102F3000888390E080E090CFAF92BF92CF92DF92F3
:102F4000FF920F931F93CF93DF93EA01FC01E60FEB
:102F5000F71F82819381F4800091F9041091FA04A3
:102F60000115110581F482E090E0998388838CEF4C
:102F70009FEFDF91CF911F910F91FF90DF90CF9046
:102F8000BF90AF9008952091FB043091FC0482170C
:102F9000930738F082E090E0998388838EEF9FEF6B
:102FA000E8CF2FEF2F0D2C3FA8F723E1289F6001DA
:102FB000299FD00C11240C0D1D1DF80180819181D9
:102FC000892B89F6FDE0FF9E50011124C5010E9466
:102FD000D822F80191838083E091F904F091FA04FA
:102FE000EC0DFD1D80819181009739F482E090E025
:102FF000998388838DEF9FEFBCCFA50170E060E0DF
:103000000E945B30E091F904F091FA04EC0DFD1D93
:10301000F28281E090E09983888390E080E0A9CFFC
:10302000CF92DF92EF92FF920F931F93CF93DF9394
:10303000860F971FFC01028113818091F904909102
:10304000FA04892B81F082E090E0FA019183808379
:103050008CEF9FEFDF91CF911F910F91FF90EF9039
:10306000DF90CF900895C801B0E0A0E00197A109DA
:10307000B1098F3F9F4FA105B10540F082E090E07C
:10308000FA01918380838EEF9FEFE4CF7A0183E191
:10309000809F6001819FD00C1124C6010E94D8221C
:1030A000EC01009741F482E090E0F7019183808386
:1030B0008DEF9FEFCFCFA60170E060E00E945B3004
:1030C000D093FA04C093F9041093FC040093FB041A
:1030D00090E080E02FEF3FEF41E061E070E080178B
:1030E000910741F481E090E0F7019183808390E0C3
:1030F00080E0B0CF3A8B298B1B864C877E876D870B
:10310000188A1F8601966396EACFEF92FF921F936B
:10311000CF93DF93EC0110E0F12CE12C6A811617BC
:10312000B0F083E0689FB0011124AE014F5E5F4FA5
:10313000C7010E940523009721F02FEF3FEF3A8B44
:10314000298BDF91CF911F91FF90EF900895612F10
:10315000CE018DDC61E070E00E94F521E816F906F1
:1031600008F47C011F5FDACFF8942091F7043091C6
:10317000F80481E02115310509F080E0232B09F0E6
:10318000789408952F923F924F925F926F927F9220
:103190008F929F92AF92BF92CF92DF92EF92FF9267
:1031A0000F931F93CF93DF933C01660E771EF301BD
:1031B000828193814C01B12CA12CC091F904D09152
:1031C000FA04209769F021E030E06091FB047091EF
:1031D000FC048617970710F030E020E0232BD1F491
:1031E00082E090E0FA01918380838EEF9FEFDF9180
:1031F000CF911F910F91FF90EF90DF90CF90BF90F4
:10320000AF909F908F907F906F905F904F903F9086
:103210002F9008958092190290921A02A0921B0298
:10322000B0921C0263E1689F9001699F300D1124E8
:10323000C20FD31FF3018181833040F082E090E020
:10324000FA019183808386EF9FEFD1CF2A012B81F2
:103250003C81232BF1F4288139819F8191FF2EC07D
:10326000232B09F46FC02091FE049A81422F490F4D
:103270005527551FBA0141E050E06138710514F03F
:1032800050E040E0452B09F45DC02A87920F9093EF
:10329000FE048150823008F481C066DF882309F47F
:1032A000D8C0F3018181813009F48DC008F47BC05E
:1032B000823009F4C6C090E080E0ADC0232B09F451
:1032C00041C02091FD049A81E22FE90FFF27FF1FE3
:1032D00041E050E0ED3FF10514F050E040E0452BB7
:1032E00089F12A87920F9093FD04D3CFA081B181F9
:1032F000A20FB31F11966C91060F111D0196295F45
:103300003F4F8417950794F38D859E85089F100184
:10331000099F300C189F300C1124C114D104D1F432
:103320008F8184FF17C00E944322F5E02F0E311CCD
:1033300021E08215930508F420E0A701435F5F4F69
:1033400021110EC082E090E0F2019183808387EF2B
:103350009FEF4DCF0E9443222FEF221A320AE8CF6F
:1033600088819981E80EF91EF70114830383FFEF2A
:10337000CF1ADF0A7A018A818C151D0409F00CF43A
:103380008CCFE881F981EE0DFF1D428150E030E0E5
:1033900020E010E000E090E080E0B3CFF12CE12CE1
:1033A000D12CC12CE8CF81E090E09C838B83F1DAB3
:1033B000882309F480CF81E090E00E94461180E4E8
:1033C0000E94541178CF89899A89019661F083E02F
:1033D00090E09C838B8382E090E00E94461180E421
:1033E0000E944E1168CF8D819E8120910F023091F5
:1033F000100282179307D1F46091130270911402A6
:10340000AE014F5E5F4F80911102909112020E94B7
:10341000BD230097E1F2789422E030E0F20131839D
:103420002083892B99F08DEF9FEFE1CE89288A28A0
:103430008B2869F6029758F6CE0167DE188A1F8638
:10344000E8CF82E090E09C838B8335CF90E080E0F2
:10345000CECE82E090E0F2019183808385EF9FEFF2
:10346000C6CE8F929F92AF92BF92CF92DF92EF9291
:10347000FF920F931F93CF93DF93EA018C01060F06
:10348000171FF8018181833098F082E090E09983E2
:10349000888386EF9FEFDF91CF911F910F91FF906F
:1034A000EF90DF90CF90BF90AF909F908F90089556
:1034B0008091F9049091FA04892B61F081E090E009
:1034C0002091FB043091FC04232B11F490E080E068
:1034D000892B39F482E090E0998388838EEF9FEF07
:1034E000DACF42DE882309F4E0C0F801818181301F
:1034F00009F496C0E8F0823099F42091FB043091F1
:10350000FC04E091F904F091FA0490E080E041E0DD
:1035100050E02817390709F0BEC03BDA811117C007
:10352000789481E090E09983888390E080E0B3CF45
:103530002091FB043091FC04E091F904F091FA042D
:1035400090E080E041E050E02817390741F481E045
:1035500090E00E94461180E40E945411E1CF638103
:103560007481672B11F05483438301967396ECCFDB
:10357000E091F904F091FA04E00FF11F2381348106
:1035800022303105D9F4218932892F3F3F4FB1F4E0
:103590002581368140910F02509110022417350782
:1035A00061F5AF014F5E5F4F60911302709114029D
:1035B00080911102909112020E94BD23EFEFCE1A6A
:1035C000DE0AEE0AFE0A0D5E1F4F4091FB04509189
:1035D000FC0470E060E0C416D506E606F70644F584
:1035E000009731F27894892B09F49BCF82E090E028
:1035F000998388838DEF9FEF4ECFC114D104E104EE
:10360000F104E1F622303105C8F6CF017EDDE0910C
:10361000F904F091FA04E00FF11F108A1786CECF5B
:1036200010E000E090E080E0C12CD12C7601CDCFFD
:103630000097C1F610E000E0812C912C540183E04A
:10364000E82EF12C1AC0E091F904F091FA04E00F91
:10365000F11F83819481029749F4F482E38282E02E
:1036600090E00E94461180E40E944E11FFEF8F1AF5
:103670009F0AAF0ABF0A0D5E1F4F8091FB04909115
:10368000FC04B0E0A0E088169906AA06BB06DCF2AE
:1036900090E080E0A7CF638174816230710511F4FE
:1036A000548343830196739634CF82E090E09983EC
:1036B000888385EF9FEFEFCE0097B9F48FEFFB0182
:1036C00080832091190230911A0243E1429FC00188
:1036D000439F900D1124E091F904F091FA04E80F52
:1036E000F91F8285FB01818308950C94FD1088E009
:1036F00090E0FA019183808390E080E00895109239
:10370000F8041092F704E9EFF4E086E0DF011D927F
:103710008A95E9F788E097E19093F6048093F504A1
:1037200008958091F5049091F60408952F923F92A8
:103730004F925F926F927F928F929F92AF92BF92C1
:10374000CF92DF92EF92FF920F931F93CF93DF936D
:10375000CDB7DEB72F970FB6F894DEBF0FBECDBF43
:10376000F894E091F704F091F8043196F093F8049E
:10377000E093F70478944090F9045090FA044114CF
:10378000510409F40CC2E091FB04F091FC04EF2B0E
:1037900009F405C22D8749875A876B877C879887EC
:1037A0008F831201B12CA12C10E000E08091FB046A
:1037B0009091FC04A816B90618F40115110529F119
:1037C000F8948091F7049091F80401979093F8048D
:1037D0008093F7047894C8012F960FB6F894DEBF53
:1037E0000FBECDBFDF91CF911F910F91FF90EF9052
:1037F000DF90CF90BF90AF909F908F907F906F9011
:103800005F904F903F902F9008957101E418F50854
:10381000D10117968C91179781FD54C013968D9105
:103820009C911497039709F04DC015968D919C912A
:10383000EF81F8858E179F0709F044C0B50190E02D
:1038400080E07FD48A832091F9043091FA043D838B
:103850002C833D85332309F44CC04C815D81452B7D
:1038600009F49AC18091FB049091FC04A816B90652
:1038700008F092C1C501D7D88823E9F06C817D8119
:103880006E0D7F1D7D836C83DB011F968D919C9156
:10389000892B89F0D12CC12CF12CE12CAC81BD817C
:1038A00012968C9112978E151F0409F094F450967D
:1038B0001C921E921F972A81222321F0B50190E0CD
:1038C00080E041D43FEFA31AB30A43E1240E311C38
:1038D0006DCFAC81BD81ED91FC91EC0DFD1D85811D
:1038E000968169D6BFEFEB1AFB0AEDE0CE0ED11C34
:1038F000D5CFEC81FD81309709F44EC18091FB0456
:103900009091FC04A816B90608F046C1EE0DFF1D03
:10391000FF87EE87C50187D88B83882339F1AE8571
:10392000BF851F968D919C915097019621E01D9621
:103930004D915C918417950709F020E02E83198240
:10394000712C10E000E0AE85BF8512968C91781640
:1039500008F45DC0EE85FF858785908901966585B1
:1039600076850E94FB2F908B8787A5CFB1E0BE8321
:10397000E6CF992493946BC01BD6F601968385837A
:1039800082C0D601ED90FC90B7E06B9EE00CF11C7C
:103990001124F7016381748180818F3F61F121E0FF
:1039A00030E002C0220F331F8A95E2F7C901092EC9
:1039B000000CAA0BBB0BFB0140815181628173811A
:1039C00084239523A623B72321E0892B8A2B8B2BD5
:1039D00009F420E0D4012C93D70111968C91F601C3
:1039E00023853485820F932F911D880E991E14868E
:1039F000138663949BC0418150E0C4010E94523001
:103A0000EBCF998206EF1FEFC5C01982C3C0F981C1
:103A1000F111A0CFEDE07E9E70011124AE85BF852F
:103A2000CD90DC90CE0CDF1C15D49D838C83BB81A4
:103A3000BB2309F49ECF81E0EE85FF852785308981
:103A4000232B09F080E0982E882309F458C0672DB5
:103A50008E859F850CD8D60118969C938E931797C8
:103A600061E070E0C2D4EE85FF85218932892F3F65
:103A7000320709F481CFBC01C901C0D6D601169620
:103A80009C938E931597D60115968D919C911697C0
:103A9000009709F4B6CFEC81FD818E0F9F1F1A9617
:103AA0009C938E931997AE85BF85ED91FC911197EC
:103AB000EE0EFF1EF70121853285148613861A96B5
:103AC0008C91870DD9018D93711016C0EE85FF85FD
:103AD000878184FF11C049855A856B857C85F901F2
:103AE0004183528363837483F701838594850496AD
:103AF000A80FB91F14861386F701B287A187D601D4
:103B000015968D919C911697892B09F443C0EE85EB
:103B1000FF852581368180910F0290911002281730
:103B2000390779F019968D909C90612CD6011296E8
:103B30008C911297681608F424CF1A969C928E9254
:103B40001997BE81BB2309F460CF61E070E0F601F4
:103B5000878190854AD4D6011796ED90FC901897EE
:103B600015964D915C91E1E0F0E0BA81BB2311F034
:103B7000F0E0E0E00C811D819C01B50188279927C8
:103B80008E1B9F0B6AD38C01892B21F0F601858156
:103B9000968111D57394D7CE0FEF1FEF8CCE10E026
:103BA00000E00ECE2F923F924F925F926F927F92E3
:103BB0008F929F92AF92BF92CF92DF92EF92FF923D
:103BC0000F931F93CF93DF938091F9049091FA04A0
:103BD00010E000E0892BA9F0C7DA0AEF1FEF882375
:103BE00081F02090FB043090FC04C091F904D09146
:103BF000FA04D12CC12C10E000E02C143D04A9F4EF
:103C00007894C801DF91CF911F910F91FF90EF90B1
:103C1000DF90CF90BF90AF909F908F907F906F90EC
:103C20005F904F903F902F900895C6010E9413150A
:103C3000882309F18B819C810397E9F48F8598890A
:103C4000892BC9F0B60190E080E07BD221E030E022
:103C5000882311F030E020E044245524421A530A0E
:103C6000B12CA12C912C812C8A818815190409F082
:103C700038F4188A1F864FEFC41AD40A6396BDCF52
:103C8000E881F981EA0DFB1D85819681892BA1F1DF
:103C900061E070E087819085A8D33C01DBD28C0184
:103CA000E881F981EA0DFB1D8185928525813681A8
:103CB000200F311FAC01421B530B9A0147815085E5
:103CC000421B530B70E060E00E945B30E881F98199
:103CD000EA0DFB1DE780F084458156819301B60112
:103CE000C201BBD28C01892B39F0E881F981EA0D40
:103CF000FB1D858196815FD45FEF851A950A8DE063
:103D0000A80EB11CB1CF30CA789408952F923F927B
:103D10004F925F926F927F929F92AF92BF92CF929B
:103D2000DF92EF92FF920F931F93CF93DF9300D018
:103D300000D0CDB7DEB70091F9041091FA049924B0
:103D400093940115110509F43EC0A090FB04B090B6
:103D5000FC040ADA982E8823B1F11092FA0410922A
:103D6000F9041092FC041092FB041092FD041092CE
:103D7000FE048FEF9FEFDC018093190290931A02EB
:103D8000A0931B02B0931C0278947FD31E830D83F3
:103D9000C12CD12C7601C501B0E0A0E089839A83C3
:103DA000AB83BC8322242A94322C89819A81AB81F3
:103DB000BC81C816D906EA06FB06F4F0C801FBD39D
:103DC00080E40E945411892D26960FB6F894DEBF28
:103DD0000FBECDBFDF91CF911F910F91FF90EF905C
:103DE000DF90CF90BF90AF909F907F906F905F904B
:103DF0004F903F902F900895AD81BE8115968D9183
:103E00009C91169720910F02309110028217930710
:103E1000D1F451968D919C91DFD4ED81FE8180810A
:103E20009181B12CA12C412C512C3201892B89F587
:103E3000BFEFCB1ADB0AEB0AFB0AED81FE8173961A
:103E4000FE83ED83B2CFC114D104E104F10429F75C
:103E5000029718F7ED81FE81818992898F3F98073B
:103E600009F05CD4AD81BE8152963C922E9251975E
:103E7000D4CF8A0D9B1DDC018D919C91009709F098
:103E80009AD3BFEF4B1A5B0A6B0A7B0AEDE0AE0ECA
:103E9000B11CAD81BE818D919C91119712964C9170
:103EA00050E070E060E044165506660677060CF3B5
:103EB00082D3BECFCF93DF93EA0128DF811109C0FF
:103EC00082E090E09983888385EF9FEFDF91CF9127
:103ED000089581E090E00E94461181E090E099838E
:103EE000888390E080E0F2CF11DF1092F604109208
:103EF000F504089542E050E06CEB72E00C9464111C
:103F0000FF920F931F93CF93DF938A01EC01C60FAB
:103F1000D71FF980B9D20897F816190671F068F022
:103F200082E090E0F801918380838EEF9FEFDF9134
:103F3000CF911F910F91FF9008956C817D818E81AB
:103F40009F814B810E94F913811108C082E090E0AB
:103F5000F8019183808384EF9FEFE9CFF9800E947D
:103F6000F4134F2D50E0BE01685F7F4F0E94523026
:103F700089810E94631481E090E0F801918380833D
:103F800090E080E0D4CFDF92EF92FF920F931F93E7
:103F9000CF93DF938A01EC01C60FD71F0E94F41361
:103FA0007C01D98071D2DD2059F0029721E030E008
:103FB000D816190619F010F030E020E0232B79F420
:103FC00082E090E0F801918380838EEF9FEFDF9194
:103FD000CF911F910F91FF90EF90DF900895EF2800
:103FE00041F482E090E0F8019183808384EF9FEFB9
:103FF000EECFF9800E94F4134F2D50E0BE016E5FAA
:104000007F4F0E94523089810E94631481E090E0CA
:10401000F8019183808390E080E0D9CF8AE79FE127
:10402000909300058093FF0408958091FF04909180
:10403000000508950895FC01118210829383828304
:104040000895DB011D921C92DC011296ED91FC910A
:1040500013977183608313967C936E9312970895E0
:10406000FC0180819181DB018D939C93A081B181C2
:10407000109741F08D919C9191838083892B11F44D
:10408000F383E2830895FC0180819181DB018D93AC
:104090009C93892B11F473836283718360830895E9
:1040A000FC0111821082938382830895CF93DF9362
:1040B0001F921F92CDB7DEB71A821982F894BE0103
:1040C0006F5F7F4F86E095E0CBDF89819A81009713
:1040D00009F071D289819A81892B89F7BE016F5FBE
:1040E0007F4F8AE095E0BCDF89819A81009709F0D3
:1040F00062D289819A81892B89F778940F900F90E9
:10410000DF91CF910895CF93DF931F921F92CDB788
:10411000DEB71A821982F894BE016F5F7F4F82E08A
:1041200095E09EDF89819A81009709F044D28981C8
:104130009A81892B89F778940F900F90DF91CF9116
:10414000089581E0089590E080E00895EF92FF9255
:104150000F931F93CF93DF931F921F92CDB7DEB7BC
:104160001A8219828091010507EF1FEF8823A1F1C0
:10417000F894BE016F5F7F4F8AE095E071DF78941D
:1041800089819A81EE24E394F12C892B51F4F894DF
:10419000BE016F5F7F4F86E095E062DF7894F12C7F
:1041A000E12C89819A810EEF1FEF0097A9F0FC01A5
:1041B0004281538164E070E011D58C01892B61F05C
:1041C000F89469817A81C701880F991F880F991F18
:1041D0008A5F9A4F58DF7894C8010F900F90DF9153
:1041E000CF911F910F91FF90EF9008950F931F9320
:1041F000CF93DF9300D01F92CDB7DEB71C821B8216
:104200001A8219828091010507EF1FEF8823C1F000
:10421000AE014D5F5F4F64E070E0CE01019651D575
:104220008C01892B69F4E981FA818B819C819383CC
:104230008283F89469817A8182E095E002DF789444
:10424000C8010F900F900F900F90DF91CF911F91A9
:104250000F91089556D6049608958F929F92AF922B
:10426000BF92CF92DF92EF92FF920F931F93CF9363
:10427000DF931F921F92CDB7DEB71A821982BC015D
:104280006F5F7F4F6330710598F0AA24AA94BA2C0F
:10429000C5010F900F90DF91CF911F910F91FF906B
:1042A000EF90DF90CF90BF90AF909F908F90089548
:1042B0004115510551F3480159018A016C01CADFCA
:1042C0008815990511F7E114F104F9F28E0D9F1D7F
:1042D000A816B906D0F2809101058823F1F0F89470
:1042E000B501645071099701AE014F5F5F4FC8017E
:1042F00004967CD55C01892B71F489819A81F8013F
:1043000093838283C601880F991F880F991FB80174
:104310008A5F9A4F96DE7894BBCF87EFA82EBB2496
:10432000BA94B6CFAF92BF92CF92DF92EF92FF9244
:104330000F931F93CF93DF931F921F92CDB7DEB7DA
:104340001A821982892B09F047C06115710509F499
:1043500043C04115510509F43FC02115310509F449
:104360003BC001151105C1F1809101058823B9F108
:1043700079016A015B01F894BE016F5F7F4F82E0B3
:1043800095E06EDE789489819A81009759F1DC017D
:1043900012966D917C91A801049641D58C01E9811A
:1043A000FA81D501ED93FC93828193810496F60105
:1043B000918380834FDFD7018D939C93C8010F9029
:1043C0000F90DF91CF911F910F91FF90EF90DF90B1
:1043D000CF90BF90AF9008950FEF1FEFEFCF07EF93
:1043E0001FEFECCF0EEF1FEFE9CFCF93DF93EC0180
:1043F000672B71F48FD58C179D0760F082D52496BA
:10440000C80FD91F81D58C0F9D1FDF91CF910895C3
:104410007ED5F1CF90E080E0F8CF0F931F93CF933C
:10442000DF932091010521112BC08B01EC0186E067
:1044300095E001DE8AE095E0FEDD82E095E0FBDDBF
:1044400097D00097C1F466D570E060E0CEDF4DE113
:1044500052E062E070E0D9D0009769F480911D02CB
:1044600090911E0269D5B801CE019ED3009719F430
:1044700021E020930105DF91CF911F910F910895C5
:1044800084EF9FEFF8CF43C545C5CF93DF9345D564
:10449000EC01892B11F40ADE36DECE01DF91CF91DB
:1044A0000895CF93DF9339D5EC01892B09F4FEDD14
:1044B000CE01DF91CF91089580911D0290911E024F
:1044C0000895CF93DF9380910105D0E0C0E0882369
:1044D000D1F037D5EC01892BB1F4E8DD14DE809101
:1044E0001D0290911E021AD1CED1EC01892B59F4F4
:1044F00086E095E0D5DD8AE095E0D2DD82E095E0CA
:10450000CFDD10920105CE01DF91CF910895EF929A
:10451000FF920F931F93CF93DF93EC017A018B01EE
:104520000F5F1F4F0E9DA0010F9D500D1E9D500D42
:10453000112470E060E00E945B3090E080E0F0E0E9
:10454000E0E02FEFE816F90639F4DF91CF911F91E3
:104550000F91FF90EF9008951A8219822883309767
:1045600011F0D283C1830196FE01C00FD11FEACFA3
:10457000E0E1F5E085E8DF011D928A95E9F7109208
:104580000F0510920E05ECE9F5E0118210821582FC
:104590001482138212821782168211861086E8E92D
:1045A000F5E0118210821382128290E080E008957B
:1045B00090E080E00895009739F1DC018E91813020
:1045C00041F4E0919A05F0919B053097E9F0CD0117
:1045D0001994811119C0F8948FEF8C9380919C05E8
:1045E00090919D0512969C938E931197B0939D0583
:1045F000A0939C0580919E0590919F0501969093B4
:104600009F0580939E0578940895EF92FF920F93F3
:104610001F93CF93DF934115510509F47CC0009798
:1046200009F479C06115710509F475C0EA01AB019F
:10463000BC01F89480919C0590919D05892B19F5FA
:1046400083E195E08C7F6D5F7F4F6C7F9B012F5FD7
:104650003F4F249F8001259F100D349F100D112482
:104660002091A4053091A5052115310509F03CC024
:10467000E0900E05F0900F0522E830E02E193F097A
:104680002017310730F478942FEF3FEF86EF9FEF3C
:1046900022C090939D0580939C055093A105409363
:1046A000A00550939F0540939E057093A3056093CA
:1046B000A2051093A5050093A405009709F027DF34
:1046C0000E0D1F1D10930F0500930E05789430E01A
:1046D00020E090E080E039832883DF91CF911F9123
:1046E0000F91FF90EF9008952017310760F290939B
:1046F0009D0580939C055093A1054093A005509380
:104700009F0540939E057093A3056093A2050097B3
:10471000E9F2FDDEDBCF8FEF9FEFDFCF892B51F585
:10472000F89410929D0510929C051092A10510928C
:10473000A00510929F0510929E051092A30510925D
:10474000A2052091A4053091A5052115310571F030
:1047500080910E0590910F05821B930B90930F058E
:1047600080930E051092A5051092A405789490E010
:1047700080E008958FEF9FEF08954115510549F1AD
:10478000009739F16115710521F1F8942091980590
:1047900030919905232BB9F420919A0530919B050E
:1047A000232B89F4909399058093980570939B052A
:1047B00060939A05789421E030E090E080E0FA017F
:1047C00031832083089578942FEF3FEF86EF9FEF9A
:1047D000F6CF8FEF9FEF0895019769F4F894109248
:1047E00099051092980510929B0510929A0578945D
:1047F00090E080E008958FEF9FEF089561157105B7
:1048000019F4F0E0E0E011C08130910581F4E0910D
:104810009805F09199053097A1F3CB010196199570
:10482000009779F3FC0181E08193CF010895892BF2
:1048300041F780919C0590919D05892B11F3809102
:10484000A2059091A30586179707D8F2F894809156
:104850009E0590919F05009731F0E0919C05F091A5
:104860009D05309711F47894CCCF2181328130931B
:104870009D0520939C05019790939F0580939E052D
:1048800011927894D2CFE5E9F5E083E0DF011D9243
:104890008A95E9F7E0E1F5E085E8DF011D928A9568
:1048A000E9F710920F0510920E05ECE9F5E08AE0A9
:1048B000DF011D928A95E9F7E8E9F5E084E0DF0180
:1048C0001D928A95E9F790E080E00895CF93DF93F9
:1048D000C0911F02D0912002CF3FDC0759F4E9D3E9
:1048E0009093200280931F0297FF09C0D09320026B
:1048F000C0931F0284EF9FEFDF91CF91089590E066
:1049000080E0FACF8230910528F48093A60590E0EC
:1049100080E008958FEF9FEF08954F925F926F921E
:104920007F92AF92BF92CF92DF92EF92FF920F935E
:104930001F93CF93DF931F921F92CDB7DEB71A82DA
:104940001982009709F478C06115710509F474C0E3
:1049500020911F023091200207EF1FEF2F3F3F4FA2
:1049600009F444C06B015C01412C512C3201F12C43
:10497000E12C10E000E09E012F5F3F4FA6014E1991
:104980005F09B5016E0D7F1D80911F02909120027D
:10499000EFD3892B09F04AC089819A81009741F4AD
:1049A000E114F10429F42091A605222309F441C061
:1049B000E80EF91EEC14FD04C8F480E8481684E8FB
:1049C00058068EE16806710418F560E070E0CB01CE
:1049D00023D62AE0420E511C611C711C0A3F4FEF86
:1049E000140721F0043F8FEF1807A1F4C8010F90BE
:1049F0000F90DF91CF911F910F91FF90EF90DF907B
:104A0000CF90BF90AF907F906F905F904F90089540
:104A100001EF1FEF81E090E0013F2FEF120711F04F
:104A200090E080E0892B09F4A6CFE0CF04EF1FEFE0
:104A3000DDCF0AEF1FEFDACF0FEF1FEFD7CF4F9287
:104A40005F926F927F92AF92BF92CF92DF92EF927E
:104A5000FF920F931F93CF93DF931F921F92CDB7B7
:104A6000DEB71A821982009709F478C061157105C2
:104A700009F474C020911F023091200207EF1FEF4C
:104A80002F3F3F4F09F444C06B015C01412C512C76
:104A90003201F12CE12C10E000E09E012F5F3F4F2E
:104AA000A6014E195F09B5016E0D7F1D80911F0291
:104AB0009091200213D3892B09F04AC089819A81F1
:104AC000009741F4E114F10429F42091A605222372
:104AD00009F441C0E80EF91EEC14FD04C8F480E4AA
:104AE000481682E458068FE06806710418F560E005
:104AF00070E0CB0191D52AE0420E511C611C711C63
:104B00000E3F4FEF140721F0043F8FEF1807A1F479
:104B1000C8010F900F90DF91CF911F910F91FF90DF
:104B2000EF90DF90CF90BF90AF907F906F905F90AD
:104B30004F90089502EF1FEF81E090E0023F2FEFCA
:104B4000120711F090E080E0892B09F4A6CFE0CFA6
:104B500004EF1FEFDDCF0EEF1FEFDACF0FEF1FEFE8
:104B6000D7CF80911F02909120028F3F980749F084
:104B700098D2892B49F48FEF9FEF90932002809376
:104B80001F0290E080E0089584EF9FEF0895FC01FC
:104B9000680F791F90E080E0E617F70709F40895A1
:104BA0002191820F911DF8CF2091A705211113C0EB
:104BB0008DDE009791F41092AD051092AC05109225
:104BC000AB051092AA051092A9051092A80521E044
:104BD0002093A705089584EF9FEF0895AF92BF92A9
:104BE000CF92DF92EF92FF920F931F93CF93DF93B9
:104BF000009709F460C04630510508F45CC020916C
:104C0000A705C7EFDFEF222309F449C08C01060F87
:104C1000171FF801C080D180C114D10409F44EC01F
:104C200096012A5F3F4F4217530708F447C07C01A3
:104C30008091AC059091AD0593838283B6016C5F42
:104C40007F4F5801A60EB71EC801A1DFF501918361
:104C5000808364E070E0C80160DEEC01892BF9F428
:104C600081E090E04FDEB601C801049656DEEC010B
:104C7000892B91F462E070E0C5014FDEEC01892BD5
:104C800059F4C70198DC8091AC059091AD0501966F
:104C90009093AD058093AC0590E080E033DECE01CB
:104CA000DF91CF911F910F91FF90EF90DF90CF9008
:104CB000BF90AF900895CFEFDFEFF1CFC9EFDFEFF7
:104CC000EECF6F927F928F929F92AF92BF92CF92D0
:104CD000DF92EF92FF920F931F93CF93DF9300D059
:104CE0001F92CDB7DEB7009709F47AC04115510580
:104CF00009F476C02091A70507EF1FEF222309F4DE
:104D00004DC03A017B015C0164E070E0CE01019688
:104D100096DE8C01892B09F041C009811A810115A9
:104D2000110509F45AC0480186E0880E911CB701AC
:104D3000680D791D80912102909122025FDD6C0146
:104D4000009709F450C0A70170E060E00E945B305A
:104D500089819A81AB81BC81EC0CFD1CF7018193A8
:104D60009193A193B1937F0181E090E0CBDDB801F5
:104D7000C70165DE892B31F562E070E0C701800F65
:104D8000911F5DDE8C01892BE9F490E080E0BADDB3
:104D9000F501D182C082F30191828082C8010F9017
:104DA0000F900F900F90DF91CF911F910F91FF9077
:104DB000EF90DF90CF90BF90AF909F908F907F90BB
:104DC0006F90089590E080E09DDDF50111821082E2
:104DD000F30111821082C601EEDB09EF1FEFDECF77
:104DE0000FEF1FEFDBCF06EF1FEFD8CF0097A1F03B
:104DF0004115510589F02115310571F0F9013696FB
:104E00006E177F0748F0DC012D933C93DA01ED9398
:104E1000FC9390E080E008958FEF9FEF0895AF92AC
:104E2000BF92CF92DF92EF92FF920F931F93CF9397
:104E3000DF93009709F45FC04115510509F45BC089
:104E40006530710508F457C02091A705C7EFDFEF63
:104E5000222391F1DC01CD90DC9011971296ED9117
:104E6000FC9196012A5F3F4FC9EFDFEF2617370706
:104E700019F5C091A805D091A905209749F521E021
:104E800030E03093A9052093A8057A018C01F093B6
:104E9000AB05E093AA055601B4E0AB0EB11CB50119
:104EA00076DE0A0D1B1DF8012081318182179307E0
:104EB00029F5D701CD92DC92CE01DF91CF911F91E0
:104EC0000F91FF90EF90DF90CF90BF90AF9008953B
:104ED0002091AA053091AB052F5F3F4FCCEFDFEF5C
:104EE000E217F30790F2CBEFDFEF2E173F0768F2E0
:104EF000D0E0C0E0CACFCFEFDFEFDECFC3EFDFEF10
:104F0000DBCF84E090E0089582E090E008958CEF9C
:104F10009FEF089580E290E008951092AD05109201
:104F2000AC051092AB051092AA051092A90510923B
:104F3000A80590E080E008959093220280932102DA
:104F400008958091A705882391F00BDE009789F4DE
:104F50001092AD051092AC051092AB051092AA0507
:104F60001092A9051092A8051092A705089590E047
:104F700080E00895009749F06115710531F0FC015A
:104F800011821082FB01118210820895F3CF26E076
:104F900030E040E052EC61E070E090E080E006D06C
:104FA00061E08DE037D460E08DE070C48130910520
:104FB00069F01CF4892B39F008958230910549F08D
:104FC000039751F008958BEB95E057C588E596E07F
:104FD000FCCF85EF96E0F9CF82E997E0F6CF1F92FC
:104FE0000F920FB60F9211240BB60F922F933F938F
:104FF0004F935F936F937F938F939F93AF93BF93E1
:10500000EF93FF938FE89DEF909325018093240108
:105010008091B0059091B105019719F461E08DE0A0
:1050200035D4B9D0FF91EF91BF91AF919F918F91FE
:105030007F916F915F914F913F912F910F900BBE98
:105040000F900FBE0F901F9018958FE89DEF9093D3
:10505000250180932401A3E7B0E08C918E7F8C938F
:10506000E0E2F1E080818C7F8083E1E2F1E0808109
:10507000877E808380818460808380818C7F808331
:105080008C9181608C930895E3E7F0E080819081BA
:105090009E7F90838170089581E008951092AE05FF
:1050A000089568EE73E080E090E0B6D290E080E092
:1050B000089526E030E040E050E16EE070E090E0DE
:1050C00080E074DF8BEB95E00ED4892B21F08BEB25
:1050D00095E023D4F7CF90E080E00895CF92DF925F
:1050E000EF92FF920F931F93CF93DF936B017A019F
:1050F000E901198218828BEB95E0F5D3892B69F1D0
:105100008601CC24C39482E0D82E8091AE05811113
:1051100010C08BEB95E001D40297B9F7C092AE05B1
:10512000F801D1928F0188819981019699838883B2
:10513000ECCF888199818E159F0578F48BEB95E0F3
:10514000ECD38F3F9807A9F3F80181938F018881F1
:105150009981019699838883ECCF90E080E0DF917C
:10516000CF911F910F91FF90EF90DF90CF90089516
:105170000F931F93CF93DF93EA0189018BEB95E0A7
:105180000CD7F801D183C08390E080E0DF91CF910C
:105190001F910F9108958091AF0591E0980F909322
:1051A000AF05882349F021E030E03093B10520932A
:1051B000B0058093AF05089578940E94BC09F894D7
:1051C0008091AF058150F5CF0F931F93CF93DF935D
:1051D00010923D0810923C0855D2D9DEC091480289
:1051E000D0914902198218826FEF7FEFCB010E94A4
:1051F000B10970E060E090E080E00E943408009720
:1052000009F042C00E94660AF8947894BE016C5579
:105210007F4F8A819B810E943708892B71F46FEF41
:105220007FEFCB010E94C6080E94AB09882329F0BA
:1052300081E0FE01E655FF4F8083F89406DF0E946F
:10524000AE09882311F080E00BC00E94AB098111E8
:10525000FACF81E0FE01E655FF4F90819111F3CF27
:1052600080933C0878940E9441118C017894C65533
:10527000DF4F80913C0881110CC00E94170B0E94E7
:105280009109F89490E080E0DF91CF911F910F9108
:1052900008950E948F090E94AE098823D9F081E009
:1052A00080933D0890913D0881E0911180E08093CA
:1052B0003C0880913D088111E7DE0130110529F499
:1052C0000E944111892B09F4E9DE0E9441118C01F1
:1052D000E3DECFCF0E94AB098111E1CF81E098815D
:1052E0009111DECF80E0DCCF40D008F481E008955A
:1052F000E89409C097FB3EF4909580957095619570
:105300007F4F8F4F9F4F9923A9F0F92F96E9BB2725
:105310009395F695879577956795B795F111F8CFA1
:10532000FAF4BB0F11F460FF1BC06F5F7F4F8F4F0C
:105330009F4F16C0882311F096E911C0772321F002
:105340009EE8872F762F05C0662371F096E8862F9A
:1053500070E060E02AF09A95660F771F881FDAF7F1
:10536000880F9695879597F90895990F0008550F1E
:10537000AA0BE0E8FEEF16161706E807F907C0F0DB
:1053800012161306E407F50798F0621B730B840BE3
:10539000950B39F40A2661F0232B242B252B21F4BD
:1053A00008950A2609F4A140A6958FEF811D811D5D
:1053B0000895DBDF08F48FEF08950BD078C069D033
:1053C00028F06ED018F0952309F05AC05FC0112460
:1053D000A2C07ED0A0F3959FD1F3950F50E0551F4A
:1053E000629FF001729FBB27F00DB11D639FAA273A
:1053F000F00DB11DAA1F649F6627B00DA11D661F89
:10540000829F2227B00DA11D621F739FB00DA11DA9
:10541000621F839FA00D611D221F749F3327A00D63
:10542000611D231F849F600D211D822F762F6A2FFF
:1054300011249F5750408AF0E1F088234AF0EE0F84
:10544000FF1FBB1F661F771F881F91505040A9F791
:105450009E3F510570F014C05EC05F3FECF3983E74
:10546000DCF3869577956795B795F795E7959F5FF8
:10547000C1F7FE2B880F911D9695879597F9089592
:1054800097F99F6780E870E060E008959FEF80ECF7
:10549000089500240A94161617061806090608959A
:1054A00000240A9412161306140605060895092E00
:1054B0000394000C11F4882352F0BB0F40F4BF2B6F
:1054C00011F460FF04C06F5F7F4F8F4F9F4F0895AF
:1054D00057FD9058440F551F59F05F3F71F04795A5
:1054E000880F97FB991F61F09F3F79F0879508958A
:1054F000121613061406551FF2CF4695F1DF08C0A9
:10550000161617061806991FF1CF869571056105C5
:1055100008940895E894BB2766277727CB0197F96D
:1055200008951F920F920FB60F9211242F933F935D
:105530008F939F93AF93BF938091B3059091B405E0
:10554000A091B505B091B6053091B20523E0230FC7
:105550002D3758F50196A11DB11D2093B2058093FA
:10556000B3059093B405A093B505B093B6058091AB
:10557000B7059091B805A091B905B091BA0501960B
:10558000A11DB11D8093B7059093B805A093B905EF
:10559000B093BA05BF91AF919F918F913F912F9199
:1055A0000F900FBE0F901F90189526E8230F0296BC
:1055B000A11DB11DD2CF2FB7F8946091B3057091A2
:1055C000B4058091B5059091B6052FBF08953FB7FA
:1055D000F8948091B7059091B805A091B905B09164
:1055E000BA0526B5A89B05C02F3F19F00196A11D4D
:1055F000B11D3FBFBA2FA92F982F8827BC01CD011D
:10560000620F711D811D911D42E0660F771F881F7B
:10561000991F4A95D1F708958F929F92AF92BF92AA
:10562000CF92DF92EF92FF926B017C01D0DF4B01B2
:105630005C01C114D104E104F104D9F0DBD4C7DF6B
:10564000681979098A099B09683E734081059105AB
:1056500080F321E0C21AD108E108F10888EE880E33
:1056600083E0981EA11CB11CC114D104E104F10413
:1056700031F7FF90EF90DF90CF90BF90AF909F9069
:105680008F900895789484B5826084BD84B58160DC
:1056900084BD85B5826085BD85B5816085BDEEE63A
:1056A000F0E0808181608083E1E8F0E01082808119
:1056B00082608083808181608083E0E8F0E0808187
:1056C00081608083E1EBF0E0808184608083E0EBA7
:1056D000F0E0808181608083E1E9F0E08081826098
:1056E0008083808181608083E0E9F0E08081816057
:1056F0008083E1EAF0E08081826080838081816044
:105700008083E0EAF0E0808181608083E1E2F1E083
:10571000808182608083808181608083E0E2F1E02B
:10572000808181608083EAE7F0E08081846080830B
:1057300080818260808380818160808380818068B5
:1057400080831092C10008958150823108F059C0C1
:10575000E82FF0E08827E155F44D8F4F82C4CF2B1E
:10576000D32BC12BC72BCB2B012CD62BDC2BE02B27
:10577000E62BEA2BEE2BF42BF82B012CFC2B022C26
:10578000062C809180008F7780938000089580910F
:1057900080008F7DF9CF80918000877FF5CF84B521
:1057A0008F7784BD089584B58F7DFBCF8091B00045
:1057B0008F778093B00008958091B0008F7DF9CFEE
:1057C000809190008F778093900008958091900051
:1057D0008F7DF9CF80919000877FF5CF8091A000D9
:1057E0008F778093A00008958091A0008F7DF9CFDE
:1057F0008091A000877FF5CF809120018F778093E3
:1058000020010895809120018F7DF9CF80912001A2
:10581000877FF5CFCF93DF9390E0FC01E65DFE4FED
:10582000249180599E4FFC0184918823C9F090E017
:10583000880F991FFC01E053FE4FA591B491FC0124
:10584000EA54FE4FC591D49161110DC09FB7F894F1
:105850008C91209582238C938881282328839FBF55
:10586000DF91CF910895623051F49FB7F8943C9145
:10587000822F809583238C93E8812E2BEFCF8FB7D7
:10588000F894EC912E2B2C938FBFEACF1F93CF93DC
:10589000DF93282F30E0F901EC51FF4F8491F9019B
:1058A000E65DFE4FD491F901E059FE4FC491CC233F
:1058B000A1F0162F811148DFEC2FF0E0EE0FFF1F53
:1058C000EA54FE4FA591B4918FB7F894EC91111161
:1058D00008C0D095DE23DC938FBFDF91CF911F915D
:1058E0000895DE2BF8CFFC01918D228D892F90E059
:1058F000805C9F4F821B91098F7399270895FC014B
:10590000918D828D981731F0828DE80FF11D858D74
:1059100090E008958FEF9FEF0895FC01918D828DA7
:10592000981761F0A28DAE0FBF2FB11D5D968C91BF
:10593000928D9F5F9F73928F90E008958FEF9FEFFE
:105940000895FC01538D448D252F30E0842F90E085
:10595000821B930B541710F0CF960895019708956A
:10596000FC01A48DA80FB92FB11DA35ABF4F2C91D4
:10597000848D90E001968F739927848FA689B789CB
:105980002C93A089B1898C91837080648C93938DC2
:10599000848D981306C00288F389E02D80818F7D65
:1059A00080830895CF93DF93EC01888D8823B1F035
:1059B000AA89BB89E889F9898C9185FD03C080811A
:1059C00086FD0CC00FB607FCF7CF8C9185FFF2CF98
:1059D000808185FFEDCFCE01C3DFEACFDF91CF918C
:1059E0000895EF92FF920F931F93CF93DF93EC01F3
:1059F00081E0888F9B8D8C8D98131AC0E889F98976
:105A0000808185FF15C09FB7F894EE89FF89608378
:105A1000E889F98980818370806480839FBF81E0F9
:105A200090E0DF91CF911F910F91FF90EF9008953B
:105A3000F62E0B8D10E00F5F1F4F0F731127E02E16
:105A40008C8D8E110BC00FB607FCFACFE889F9894F
:105A5000808185FFF5CFCE0183DFF2CFEB8DEC0F98
:105A6000FD2FF11DE35AFF4FF0829FB7F8940B8F83
:105A7000EA89FB8980818062D0CFCF92DF92EF925A
:105A8000FF921F93CF93DF93EC016A017B01122FEA
:105A9000E889F98982E08083C11481EED806E104A7
:105AA000F10499F060E079E08DE390E0A7019601C0
:105AB000B6D221503109410951095695479537957C
:105AC0002795211580E1380790F0E889F98910823F
:105AD00060E874E88EE190E0A7019601A0D2215021
