:10000000FAC000000C94C0220C94EB220C9416232E
:100010000C9441230C946C230C9497230C94C223CE
:100020000C94ED23F4C5000095C60000CFC6000077
:1000300013C1000011C100000FC100000DC100007C
:100040000BC1000009C1000007C1000005C100008C
:1000500003C1000001C10000FFC000000C9418247F
:10006000FBC000000C94C2270C94F827F5C00000D8
:10007000F3C00000F1C00000EFC00000EDC00000C0
:10008000EBC00000E9C00000E7C00000E5C00000D0
:100090000C944E280C948428DFC000000C94000CB3
:1000A000DBC00000D9C00000D7C00000D5C00000F0
:1000B000D3C00000D1C00000CFC00000CDC0000000
:1000C000CBC00000C9C000000C94E21E0C94DA28DA
:1000D0000C941029C1C000000C9466290C949C2932
:1000E000BBC0000000000A0B02090C0D0E0807033C
:1000F00004010000000000000000000000000000FB
:1001000000000000000000000000000000000000EF
:1001100012111000000000000000000000000000AC
:100120000000000000000000000001021020200874
:100130000810204010204080020102010804020142
:1001400001020408102040808040201008040201B1
:10015000800402018040201008040201080402010A
:100160000102040810204080010204081020408091
:1001700005050505070508080808020202020A0A23
:100180000808040404040101010101010101030341
:10019000030303030303040707070C0C0C0C0C0CEC
:1001A0000C0C0202020206060606060606060B0BE9
:1001B0000B0B0B0B0B0B00002200250028002B0063
:1001C0002E003100340002010000050108010B017E
:1001D00000002100240027002A002D0030003300F9
:1001E00001010000040107010A016E09270F2128FF
:1001F000AD283929C52911241FBECFEFD1E2DEBFBA
:10020000CDBF00E00CBF14E0A0E0B2E0E4EBF8E505
:1002100000E00BBF02C007900D92A43BB107D9F7D5
:100220002AE0A4EBB4E001C01D92AF30B207E1F7C1
:1002300010E0CBEFD0E000E006C021970109802F4D
:10024000FE010E944B2CC53FD10780E00807A9F7AB
:100250000E94521F0C94582CD3CE8823E1F0823098
:1002600061F0833089F08130B1F440E855E260E01C
:1002700070E081E090E00C94C41E40E855E260E03C
:1002800070E082E090E0F7CF40E855E260E070E097
:1002900083E090E0F0CF08954F925F926F927F924B
:1002A0008F929F92AF92BF92CF92EF92FF920F9355
:1002B0001F93CF93DF93CDB7DEB72B013A01F02E1A
:1002C000B40130E02830310511F424E030E00AE0D8
:1002D00010E0CC2061F091E000E110E0C91639F0A7
:1002E000E2E008E010E0CE1611F002E010E081300C
:1002F00009F4E8C0B0F0823009F4C5C1833009F4D4
:10030000A3C2DF91CF911F910F91FF90EF90CF90FB
:10031000BF90AF909F908F907F906F905F904F9025
:100320000895F1101BC0269DA001279D500D369DFC
:10033000500D1124B20184E896E0DF91CF911F9116
:100340000F91FF90EF90CF90BF90AF909F908F90C4
:100350007F906F905F904F900C94F22984E896E024
:100360000E942E2AE11014C0640C751C64147504DC
:1003700041F2F20161912F01F1E0A80184E896E0D9
:10038000FF1203C00E94002BF1CF0E94062BEECF7C
:1003900081E0E81215C091E0691A710808F4B1CF44
:1003A000F201619171912F01F1E0A80184E896E0DA
:1003B000FF1203C00E94162BEECF0E941B2BEBCF27
:1003C00082E0E81217C091E0691A710808F499CF29
:1003D000F20141915191619171912F01F1E09801E8
:1003E00084E896E0FF1203C00E94F42AECCF0E943A
:1003F0002B2BE9CF83E0E81218C0640C751C641441
:10040000750409F47ECFF20161912F01062E000CD4
:10041000770BF1E0A80184E896E0FF1203C00E9488
:10042000CE2AEDCF0E94D42AEACF84E0E81215C08C
:1004300091E0691A710808F464CFF2016191719139
:100440002F01F1E0A80184E896E0FF1203C00E94AA
:10045000CE2AEECF0E94D42AEBCF85E0E81217C057
:1004600091E0691A710808F44CCFF2014191519161
:10047000619171912F01F1E0980184E896E0FF12FB
:1004800003C00E94892AECCF0E94E42AE9CF86E0CB
:10049000E81237CFB12C91E0691A710808F431CF16
:1004A000F20141915191619171912F01F1E095011A
:1004B00084E896E0FF1203C00E94182CECCF0E9443
:1004C000192CE9CFF1100BC0269DA001279D500DDE
:1004D000369D500D1124B20181E297E02ECF81E2CA
:1004E00097E00E942E2AE11015C0640C751C46147A
:1004F000570409F406CFF20161912F01F1E0A80140
:1005000081E297E0FF1203C00E94002BF0CF0E940F
:10051000062BEDCF81E0E81215C091E0691A710851
:1005200008F4EFCEF201619171912F01F1E0A80181
:1005300081E297E0FF1203C00E94162BEECF0E94CB
:100540001B2BEBCF82E0E81217C091E0691A71080B
:1005500008F4D7CEF20141915191619171912F012F
:10056000F1E0980181E297E0FF1203C00E94F42AB3
:10057000ECCF0E942B2BE9CF83E0E81218C0640C6B
:10058000751C6414750409F4BCCEF20161912F014D
:10059000062E000C770BF1E0A80181E297E0FF1234
:1005A00003C00E94CE2AEDCF0E94D42AEACF84E075
:1005B000E81215C091E0691A710808F4A2CEF201A0
:1005C000619171912F01F1E0A80181E297E0FF12A2
:1005D00003C00E94CE2AEECF0E94D42AEBCF85E042
:1005E000E81217C091E0691A710808F48ACEF20186
:1005F00041915191619171912F01F1E0980181E256
:1006000097E0FF1203C00E94892AECCF0E94E42ADF
:10061000E9CF86E0E81275CEB12C91E0691A710835
:1006200008F46FCEF20141915191619171912F01C6
:10063000F1E0FF1214C0C11006C0950181E297E0FD
:100640000E94182CEACFCB01BA010E945A20AB01BC
:10065000BC01980181E297E00E94892ADECFC11097
:1006600006C0950181E297E00E94192CD6CFCB01FC
:10067000BA010E945A20AB01BC01980181E297E0C7
:100680000E94E42ACACFF1100BC0269DA001279D2D
:10069000500D369D500D1124B2018EEB97E04DCEDA
:1006A0008EEB97E00E942E2AE11015C0640C751C99
:1006B0004614570409F425CEF20161912F01F1E0AF
:1006C000A8018EEB97E0FF1203C00E94002BF0CF31
:1006D0000E94062BEDCF81E0E81215C091E0691A67
:1006E000710808F40ECEF201619171912F01F1E0D1
:1006F000A8018EEB97E0FF1203C00E94162BEECFED
:100700000E941B2BEBCF82E0E81217C091E0691A20
:10071000710808F4F6CDF201419151916191719106
:100720002F01F1E098018EEB97E0FF1203C00E94C9
:10073000F42AECCF0E942B2BE9CF83E0E81218C0FB
:10074000640C751C6414750409F4DBCDF20161912D
:100750002F01062E000C770BF1E0A8018EEB97E03D
:10076000FF1203C00E94CE2AEDCF0E94D42AEACF06
:1007700084E0E81215C091E0691A710808F4C1CD4F
:10078000F201619171912F01F1E0A8018EEB97E0E8
:10079000FF1203C00E94CE2AEECF0E94D42AEBCFD4
:1007A00085E0E81217C091E0691A710808F4A9CD34
:1007B000F20141915191619171912F01F1E0980104
:1007C0008EEB97E0FF1203C00E94892AECCF0E94B3
:1007D000E42AE9CF86E0E81294CDB12C91E0691AC1
:1007E000710808F48ECDF20141915191619171919E
:1007F0002F01F1E0FF1214C0C11006C095018EEB6D
:1008000097E00E94182CEACFCB01BA010E945A202F
:10081000AB01BC0198018EEB97E00E94892ADECFE4
:10082000C11006C095018EEB97E00E94192CD6CF1F
:10083000CB01BA010E945A20AB01BC0198018EEB9A
:1008400097E00E94E42ACACFF1100BC0269DA001B8
:10085000279D500D369D500D1124B2018BE598E077
:100860006CCD8BE598E00E942E2AE11015C0640C37
:10087000751C6414750409F444CDF20161912F01D3
:10088000F1E0A8018BE598E0FF1203C00E94002B65
:10089000F0CF0E94062BEDCF81E0E81215C091E069
:1008A000691A710808F42DCDF201619171912F013F
:1008B000F1E0A8018BE598E0FF1203C00E94162B1F
:1008C000EECF0E941B2BEBCF82E0E81217C091E025
:1008D000691A710808F415CDF201419151916191A5
:1008E00071912F01F1E098018BE598E0FF1203C0B0
:1008F0000E94F42AECCF0E942B2BE9CF83E0E81270
:1009000018C0640C751C6414750409F4FACCF20167
:1009100061912F01062E000C770BF1E0A8018BE509
:1009200098E0FF1203C00E94CE2AEDCF0E94D42A85
:10093000EACF84E0E81215C091E0691A710808F462
:10094000E0CCF201619171912F01F1E0A8018BE5FA
:1009500098E0FF1203C00E94CE2AEECF0E94D42A54
:10096000EBCF85E0E81217C091E0691A710808F42E
:10097000C8CCF20141915191619171912F01F1E047
:1009800098018BE598E0FF1203C00E94892AECCF02
:100990000E94E42AE9CF86E0E812B3CCB12C91E0C2
:1009A000691A710808F4ADCCF2014191519161913D
:1009B00071912F01F1E0FF1214C0C11006C0950122
:1009C0008BE598E00E94182CEACFCB01BA010E9477
:1009D0005A20AB01BC0198018BE598E00E94892A5E
:1009E000DECFC11006C095018BE598E00E94192C5E
:1009F000D6CFCB01BA010E945A20AB01BC019801AD
:100A00008BE598E00E94E42ACACF9CB1892F8072BE
:100A100094FF16C0811116C08091B8049091B9045A
:100A2000A091BA04B091BB040196A11DB11D8093A1
:100A3000B8049093B904A093BA04B093BB0408958A
:100A40008111EACF8091B8049091B904A091BA04C1
:100A5000B091BB040197A109B109E9CF99B1892FE0
:100A6000847093FF16C08823B1F08091C6049091E2
:100A7000C704A091C804B091C9040196A11DB11D7D
:100A80008093C6049093C704A093C804B093C9048C
:100A90000895882351F38091C6049091C704A091D2
:100AA000C804B091C9040197A109B109E9CF8CB17B
:100AB00090E09C01220F232F221F330B86FF16C0CC
:100AC0008091D4049091D504A091D604B091D7041C
:100AD000232BB9F40196A11DB11D8093D4049093EA
:100AE000D504A093D604B093D70408958091D4047C
:100AF0009091D504A091D604B091D704213031054E
:100B000049F30197A109B109E8CF9CB1892F807100
:100B100095FF16C08823B1F08091B8049091B90474
:100B2000A091BA04B091BB040196A11DB11D8093A0
:100B3000B8049093B904A093BA04B093BB04089589
:100B4000882351F38091B8049091B904A091BA041C
:100B5000B091BB040197A109B109E9CF99B1892FDF
:100B6000887092FF16C0811116C08091C6049091C2
:100B7000C704A091C804B091C9040196A11DB11D7C
:100B80008093C6049093C704A093C804B093C9048B
:100B900008958111EACF8091C6049091C704A09175
:100BA000C804B091C9040197A109B109E9CF8CB17A
:100BB00090E086FB222720F930E0880F892F881FDC
:100BC000990B0197B1F48091D4049091D504A09130
:100BD000D604B091D704232BB1F00196A11DB11D0D
:100BE0008093D4049093D504A093D604B093D704F3
:100BF00008958091D4049091D504A091D604B09129
:100C0000D704232B51F30197A109B109E9CF1F9212
:100C10000F920FB60F9211242F933F934F935F9330
:100C20008F939F93AF93BF9383B121E030E0982FD0
:100C3000907285FD02C030E020E080744091F8049D
:100C40005091F9044217530709F062C021E030E0E7
:100C5000811102C030E020E03093F7042093F604C5
:100C6000882309F1911121C08091F0049091F10441
:100C7000A091F204B091F3040196A11DB11D8093DF
:100C8000F0049093F104A093F204B093F3048091E4
:100C9000F0049091F104A091F204B091F304019654
:100CA000A11DB11D20C09111DFCF8091F004909162
:100CB000F104A091F204B091F3040197A109B109E4
:100CC0008093F0049093F104A093F204B093F304A2
:100CD0008091F0049091F104A091F204B091F3049A
:100CE0000197A109B1098093F0049093F104A093B6
:100CF000F204B093F304BF91AF919F918F915F91F4
:100D00004F913F912F910F900FBE0F901F9018950C
:100D10003093F9042093F804992371F0882371F03B
:100D20008091F0049091F104A091F204B091F30449
:100D30000196A11DB11DC4CF882391F38091F004C9
:100D40009091F104A091F204B091F3040197A109EC
:100D5000B10995CF1F920F920FB60F9211248F9366
:100D60009F93AF93BF93809106018170909103018F
:100D700090FF1EC081111EC08091E2049091E30497
:100D8000A091E404B091E5040196A11DB11D8093EA
:100D9000E2049093E304A093E404B093E504BF91CC
:100DA000AF919F918F910F900FBE0F901F9018954C
:100DB0008111E2CF8091E2049091E304A091E404D8
:100DC000B091E5040197A109B109E1CF1F920F92FB
:100DD0000FB60F9211248F939F93AF93BF9380917F
:100DE000030181709091060190FF1EC08823F1F0ED
:100DF0008091E2049091E304A091E404B091E504B1
:100E00000196A11DB11D8093E2049093E304A09389
:100E1000E404B093E504BF91AF919F918F910F903F
:100E20000FBE0F901F901895882311F38091E20454
:100E30009091E304A091E404B091E5040197A10925
:100E4000B109E1CF0F931F93CF93DF938C018EE015
:100E5000809FE001819FD00D1124CC54DB4F79831A
:100E600068835B834A838881998160E00E942F2692
:100E70008A819B8160E00E942F268881998161E0B0
:100E80000E946B268A819B8161E00E946B26023062
:100E9000110509F487C064F40115110501F1013051
:100EA000110509F450C0DF91CF911F910F91089562
:100EB0000330110509F4A5C004301105A1F7809194
:100EC000680081608093680080916B0080628093ED
:100ED0006B0080916B00806480936B00E4CF809105
:100EE000B4049091B50402978431910530F5875A86
:100EF0009B4FFC018081082E000C990B41E050E0D3
:100F000065E075E00E9446228091B6049091B70496
:100F1000029784319105A0F4875A9B4FFC01808190
:100F2000082E000C990B41E050E065E875E0DF9178
:100F3000CF911F910F910C9446228FEF9FEFDECF40
:100F40008FEF9FEFF0CF8091C2049091C30402977E
:100F50008431910508F5875A9B4FFC018081082E4A
:100F6000000C990B41E050E06EEA75E00E944622C9
:100F70008091C4049091C50402978431910578F45E
:100F8000875A9B4FFC018081082E000C990B41E091
:100F900050E06EE275E0CBCF8FEF9FEFE3CF8FEFA6
:100FA0009FEFF5CF8091D0049091D10402978431C6
:100FB000910508F5875A9B4FFC018081082E000C93
:100FC000990B41E050E067E575E00E944622809170
:100FD000D2049091D30402978431910578F4875A12
:100FE0009B4FFC018081082E000C990B41E050E0E2
:100FF00067ED75E09CCF8FEF9FEFE3CF8FEF9FEF13
:10100000F5CF8091680084608093680080916800CB
:1010100082608093680080916D00816080936D0094
:1010200080916C00826080936C003DCF2EE0269F03
:10103000F001279FF00D1124EC54FB4F6481758162
:1010400086819781089590E080E0089580912E0533
:1010500090912F05891B990B089590912F058091F0
:101060002E052FEF3FEF981748F4E92FF0E0E05DF1
:10107000FA4F208130E09F5F90932F05C9010895BA
:10108000E0912F0580912E05E81730F4F0E0E05D47
:10109000FA4F808190E008958FEF9FEF08950895B3
:1010A000CF93DF93EC01E0910605F09107053097AF
:1010B000F1F090912F0580912E059817C0F090E0E7
:1010C000292F30E02617370754F4DE01A20FB31F93
:1010D0004C91205D3A4FD9014C939F5FF1CF109214
:1010E0002F0560932E05CB01DF91CF911994DF91ED
:1010F000CF910895E0910805F0910905309729F006
:1011000010920C0510920B0519940895CF93DF935C
:101110001F92CDB7DEB7698320910A052223F9F02B
:1011200020910B05203258F021E030E0FC013383A0
:10113000228390E080E00F90DF91CF91089580911D
:101140000C05E82FF0E0E35FFA4F998190838F5F01
:1011500080930C0580930B0581E090E0ECCF61E07B
:10116000CE010196F7D0F8CFCF92DF92EF92FF92A7
:101170000F931F93CF93DF937C01CB018A012091C2
:101180000A05222389F0EB016B01C40ED51ECC1594
:10119000DD0561F06991D701ED91FC910190F0813D
:1011A000E02DC7011995F3CF642FD4D0C801DF918A
:1011B000CF911F910F91FF90EF90DF90CF90089506
:1011C00010922F0510922E0510920C0510920B050F
:1011D00096D08AE798E0EAD080E598E0E2C081E026
:1011E00080930A0560932D0510920C0510920B0553
:1011F00008950F93062F21E040910B056DE075E0F7
:1012000080912D05D5D110920C0510920B051092EE
:101210000A050F9108954F925F926F927F92AF925D
:10122000BF92CF92EF92FF920F931F93CF93DF93D2
:101230005C01F62ED42F28013901EE2009F1CFDF11
:10124000CE2DC43008F0C3E0C150B8F028E0C29FF2
:10125000C0011124A301920104C05695479537950A
:1012600027958A95D2F7B901D501ED91FC910190AE
:10127000F081E02DC5011995E7CF60E0C501B9DF28
:101280004D2FD13208F040E22C2D60E375E08F2D18
:10129000ACD010922F0580932E05DF91CF911F9136
:1012A0000F91FF90EF90CF90BF90AF907F906F9095
:1012B0005F904F900895CF92EF920F931F93C22E9D
:1012C000E12C00E010E09801A6DF1F910F91EF9054
:1012D000CF90089521E0EFCF61E08BCFEAEFF4E00B
:1012E0001382128288EE93E0A0E0B0E084839583BD
:1012F000A683B78381E794E0918380830895109259
:10130000C30581E08093C1051092C00561E084E1CE
:101310000E946B2661E085E10E946B26E9EBF0E01C
:1013200080818E7F808380818D7F808388E480931D
:10133000B80085E48093BC000895ECEBF0E0808178
:101340008A7B808360E084E10E946B2660E085E117
:101350000C946B2620917205260F3327331F213200
:101360003105ECF42091C305FC0190E080E02430CD
:1013700069F082E00895A09172052191AC014C586A
:101380005A4FA40FB52FB11D2C930196861798F3D1
:1013900080917205680F6093720580E0089581E086
:1013A00008959093B7058093B60508959093B90575
:1013B0008093B805089585EC8093BC001092C30516
:1013C0000895CF93DF9391E09093BB05882351F06C
:1013D000C091B800D091BA00B0DF91DFD093BA00CD
:1013E000C093B800DF91CF9108954F925F926F92B2
:1013F0007F928F929F92AF92BF92CF92DF92EF92A5
:10140000FF920F931F93CF93DF93D82F162F072FA1
:10141000C42FB22E413208F0A2C00E946E246B018C
:101420007C018091C305811176C081E08093C30562
:10143000B092C1059FEF90935005109295059C0FB7
:10144000909394058093C2058091C205DD0FD82B3F
:10145000D093C2058091C005813009F082C01092FE
:10146000C0050E946E246B017C018091C2058093AF
:10147000BB008091BC059091BD05A091BE05B091C7
:10148000BF05892B8A2B8B2BA1F00E946E248090A4
:10149000BC059090BD05A090BE05B090BF056C192D
:1014A0007D098E099F0986169706A806B90608F4D5
:1014B00053C08091BC0083FDD8CF85EC8093BC00E5
:1014C0000E946E246B017C018091C305813009F478
:1014D0004AC0809195058C1710F4C0919505A6E936
:1014E000B5E0912FE12FF02F8E2F891B8C1708F478
:1014F0005CC08C2FDF91CF911F910F91FF90EF90E7
:10150000DF90CF90BF90AF909F908F907F906F9023
:101510005F904F9008958091BC059091BD05A0917A
:10152000BE05B091BF05892B8A2B8B2B09F479CF8F
:101530000E946E244090BC055090BD056090BE0591
:101540007090BF056C197D098E099F0946165706D4
:101550006806790608F065CF8091BA0532DFC0E0F1
:10156000C8CF85EEABCF8091BC059091BD05A09111
:10157000BE05B091BF05892B8A2B8B2B09F4A4CF14
:101580000E946E248090BC059090BD05A090BE0581
:10159000B090BF056C197D098E099F0986169706C4
:1015A000A806B90608F090CFD7CF8D9181939CCF34
:1015B0004F925F926F927F928F929F92AF92BF9263
:1015C000EF92FF920F931F93CF93DF93413208F076
:1015D000D8C0F22ED42FE72E162FC82F0E946E24CB
:1015E0004B015C018091C305811170C082E0809342
:1015F000C3050093C1058FEF8093500510929505A8
:10160000D0939405912FA6E9B5E0E12FFE2D8E2F02
:10161000891B8D1708F48EC01092C2058091C205F7
:10162000CC0FC82BC093C2058091C005813009F052
:1016300084C01092C0050E946E244B015C01809111
:10164000C2058093BB008091BC059091BD05A0911F
:10165000BE05B091BF05892B8A2B8B2BA1F00E9470
:101660006E240091BC051091BD052091BE053091FE
:10167000BF05681979098A099B0906171707280702
:10168000390708F444C08091BC0083FDD8CF85ECB5
:101690008093BC000E946E244B015C01FF2029F066
:1016A0008091C305823009F44AC0809150058F3F74
:1016B00009F469C080915005803209F466C08091B8
:1016C0005005803309F463C084E025C08091BC05D7
:1016D0009091BD05A091BE05B091BF05892B8A2BC5
:1016E0008B2B09F47FCF0E946E244090BC05509054
:1016F000BD056090BE057090BF05681979098A091B
:101700009B09461657066806790608F06BCF80914C
:10171000BA0557DE85E0DF91CF911F910F91FF90C1
:10172000EF90BF90AF909F908F907F906F905F9061
:101730004F90089581918D936ACF85EEA9CF8091C6
:10174000BC059091BD05A091BE05B091BF05892B48
:101750008A2B8B2B09F4A2CF0E946E240091BC052A
:101760001091BD052091BE053091BF05681979091A
:101770008A099B09061717072807390708F08ECF33
:10178000C6CF81E0C8CF80E0C6CF82E0C4CF83E07F
:10179000C2CF85ED8093BC008091BC059091BD05C2
:1017A000A091BE05B091BF050796A11DB11D23E014
:1017B000B695A795979587952A95D1F72091BC0066
:1017C00024FD03C01092C30508954091BC055091BB
:1017D000BD056091BE057091BF05452B462B472B7B
:1017E00069F30097A105B10541F025E32A95F1F7CA
:1017F00000000197A109B109E1CF8091BA05E1CDBF
:101800001F920F920FB60F9211240BB60F922F93C7
:101810003F934F935F936F937F938F939F93AF9378
:10182000BF93EF93FF938091B900887F803609F4CE
:101830004CC008F03FC0883209F4A8C028F58031B8
:1018400009F49CC0C8F4882309F4F8C0883009F46E
:1018500095C0FF91EF91BF91AF919F918F917F9133
:101860006F915F914F913F912F910F900BBE0F9011
:101870000FBE0F901F901895883109F487C08032F1
:1018800041F78093500514C0803409F49CC040F4A3
:101890008033B9F38833E9F6809350058CDDD9CFD6
:1018A000803509F484C0883509F495C0883489F6F8
:1018B00070DFCFCF883909F48CC038F5883729F02C
:1018C00050F4883611F0803721F683E08093C30509
:1018D0001092510557C0883809F47BC0803919F03F
:1018E000803809F0B6CF80915105803208F071C080
:1018F000E091510581E08E0F809351058091BB00EE
:10190000F0E0EE5AFA4F80833DC0803B39F0E0F4BE
:10191000803A09F479C0883A09F09BCF84E080933B
:10192000C3051092730510927205E091B805F0910D
:10193000B90519958091720581110FC081E08093DE
:1019400072051092740509C0803C09F475C0883C8A
:1019500009F472C0883B09F07CCFE091730581E007
:101960008E0F80937305F0E0EC58FA4F80818093DE
:10197000BB00909173058091720529C08091C205CA
:101980008093BB0085EC8093BC0063CF909195055C
:1019900080919405981758F5E091950581E08E0F98
:1019A00080939505F0E0EA56FA4F8081E9CFE09107
:1019B000950581E08E0F809395058091BB00F0E046
:1019C000EA56FA4F80839091950580919405981777
:1019D000C8F285E8D8CFE091950581E08E0F80931D
:1019E00095058091BB00F0E0EA56FA4F8083809124
:1019F000C10581115DCF81E08093C00584EA8093A9
:101A0000BC001092C30525CFD6DC809151058032F1
:101A100030F4E0915105F0E0EE5AFA4F10826091F7
:101A2000510570E0E091B605F091B70582E595E0CB
:101A30001995109251050DCF85ECE1CF109250050C
:101A400037CFFF920F931F93CF93DF93C62F042FAF
:101A5000F22E132F682F8AEF94E0C1DB6C2F8AEFF0
:101A600094E054DBCF2DD12F0C0F1D2F111DC0176B
:101A7000D10729F069918AEF94E048DBF8CF8AEF2B
:101A800094E02ADC91E0811190E0892FDF91CF91E1
:101A90001F910F91FF900895CF93DF931F92CDB7C1
:101AA000DEB749839E012F5F3F4F41E0CADF0F90B1
:101AB000DF91CF9108952F923F924F925F926F9254
:101AC0007F928F929F92AF92BF92CF92DF92EF92CE
:101AD000FF920F931F93CF93DF9300D0CDB7DEB764
:101AE000E82E69834B8369010E9462244B015C01EB
:101AF000F12C1A822B81222E312C2801712C612C81
:101B00008B81F81608F044C06E2D8AEF94E067DBF5
:101B100069818AEF94E0FADA8AEF94E0DDDB6E2DDA
:101B20008AEF94E05CDBA1014F1951094132510564
:101B300014F040E250E06E2D8AEF94E0CBDB8AEFA8
:101B400094E084DA892BD9F00115110569F48AEF44
:101B500094E083DAF6019A81E90FF11D97FDFA9579
:101B600080839F5F9A83EBCF0E9462246819790972
:101B70008A099B09641575058605970540F38AEF68
:101B800094E0AADB8B81813208F080E2F80EB8CFB6
:101B900001151105C1F00E946224681979098A09AA
:101BA0009B0930E020E0601771078207930758F027
:101BB0002A81822F220F990B2B812817190619F0E1
:101BC00014F08FEF8A838A810F900F900F90DF912E
:101BD000CF911F910F91FF90EF90DF90CF90BF902A
:101BE000AF909F908F907F906F905F904F903F90BD
:101BF0002F9008950F931F9389019A0141E05BDFB5
:101C00001F910F910895EF92FF920F931F93CF931F
:101C1000DF931F92CDB7DEB7182F062FE42EF22EDA
:101C20002091000230910102AE014F5F5F4FE2DF71
:101C300081E090E001C0880FEA94EAF74981FF2033
:101C400069F0482B4983602F812F26DF0F90DF91A9
:101C5000CF911F910F91FF90EF90089580954823A9
:101C6000F1CFDF92EF92FF920F931F93CF93DF9309
:101C70001F92CDB7DEB7F82EE62E142FD22E20916C
:101C8000000230910102AE014F5F5F4FB3DF882346
:101C900051F1812F8D19990BAC014F5F5F4F81E09E
:101CA00090E002C0880F991FDA94E2F70197042EA2
:101CB00001C0880F0A94EAF701C0000F4A95EAF7BD
:101CC000482F4095998149238023482B49836E2DC5
:101CD0008F2DE2DE0F90DF91CF911F910F91FF903A
:101CE000EF90DF90089580E0F5CF28E6FC01208397
:101CF00008950F93062F23E042E06AE1FC01808102
:101D0000B0DF0F9108950F93062F22E044E06BE1BE
:101D1000FC018081A6DF0F9108950F93062F22E02A
:101D200044E06CE1FC0180819CDF0F9108950F93EA
:101D30001F93CF93DF93EC010091000210910102F9
:101D40009C012F5F3F4F42E063E48881B4DE8981CC
:101D50009A81982789279827DF91CF911F910F911A
:101D600008950F931F93CF93DF93EC01009100022E
:101D7000109101029C012F5F3F4F42E065E4888192
:101D80009ADE89819A81982789279827DF91CF91B8
:101D90001F910F9108950F931F93CF93DF93EC0141
:101DA00000910002109101029C012F5F3F4F42E021
:101DB00067E4888180DE89819A819827892798271E
:101DC000DF91CF911F910F910895262F46E06BE68A
:101DD000FC01808118CF0F93062F23E042E06BE6D1
:101DE000FC0180813EDF0F910895CF93DF93EC01DA
:101DF00061E0F1DF60E0CE0186DF60E0CE018DDFE3
:101E000060E0CE01DF91CF91E0CFCF93C82F8AEF72
:101E100094E0D6D96C2F84EC95E06BDF84EC95E0F0
:101E2000CF91E3CFCF93DF93EC0184EC95E07FDF9C
:101E30009983888384EC95E094DF9B838A8384EC88
:101E400095E0A9DF9D838C83DF91CF91089584EC89
:101E500095E04BCF611102C00C942F266130E1F365
:101E600062E0FACF662319F061E00C946B2660E023
:101E7000FCCFCF92DF92EF92FF92CF93882351F164
:101E80006A017B01CFEFC80F20E030E0A901CB0150
:101E9000B6010E94EE1F87FF11C0C701B60190581E
:101EA0000E945F209B01AC016C2F70E090E080E00D
:101EB000CF91FF90EF90DF90CF90B2C0C701B601F5
:101EC0000E945A208C2FCF91FF90EF90DF90CF90FF
:101ED0000C94F524CF91FF90EF90DF90CF90089570
:101EE0000F931F938B019C0183E0369527951795DF
:101EF00007958A95D1F70D521A4F462F477021E06A
:101F000030E0F90102C0EE0FFF1F4A95E2F7AF0182
:101F1000F80120812423CB010196211102C090E019
:101F200080E01F910F9108950F931F938B019C01E7
:101F300083E036952795179507958A95D1F76770B1
:101F400081E090E001C0880F6A95EAF7F801ED5250
:101F5000FA4F2081452B31F48095822380831F9195
:101F60000F910895822BFACF2F923F924F925F925A
:101F70006F927F928F929F92AF92BF92CF92DF9299
:101F8000EF92FF920F931F93CF93DF93D62EC72E1E
:101F9000782E692E49015A01280161E08D2D0E9499
:101FA0002F26CD2DDC2D8E010F5F1F4FA8016D2D2B
:101FB0007C2D872D962DB8DF20E030E0A901C201ED
:101FC000B7010E94DE21181664F4C201B7010E9415
:101FD0005F202B01C501B4010E945F20A201CE0148
:101FE00023D0C801DF91CF911F910F91FF90EF9007
:101FF000DF90CF90BF90AF909F908F907F906F9029
:102000005F904F903F902F900895882341F081502A
:10201000682F70E090E080E050E040E085CF0895C8
:10202000862FB9010C94F5249C01FC01EC51FF4F63
:10203000E491E150E231E0F4F0E08827ED5DFF4EFD
:102040008F4F0C944B2C35103C103F1056106B10DA
:10205000381080108C109010A710BC10D110E81010
:10206000FD103810121129113E1184B5806884BD0D
:1020700060E0822F0C946B2684B58062F8CF80914B
:1020800080008C7F82608093800080918100807EC0
:102090008061682B60938100509387004093860095
:1020A00080918000806880938000E2CF80918000E2
:1020B0008C7F82608093800080918100807E80612F
:1020C000682B609381005093870040938600809135
:1020D00080008062E8CF809180008C7F8260809356
:1020E000800080918100807E8061682B60938100F8
:1020F0005093870040938600809180008860D3CF02
:102100008091B00080688093B0008091B100887F9A
:10211000682B6093B100ACCF8091B0008062F3CFA8
:10212000809190008C7F82608093900080919100DC
:10213000807E8061682B609391005093970040935C
:1021400096008091900080688093900091CF80915C
:1021500090008C7F82608093900080919100807EBF
:102160008061682B60939100509397004093960094
:10217000809190008062E8CF809190008C7F826097
:102180008093900080919100807E8061682B6093A5
:102190009100509397004093960080919000886042
:1021A000D3CF8091A0008C7F82608093A00080912B
:1021B000A100807E8061682B6093A1005093A700EE
:1021C0004093A6008091A00080688093A00050CF2B
:1021D0008091A0008C7F82608093A0008091A100FC
:1021E000807E8061682B6093A1005093A70040938C
:1021F000A6008091A0008062E8CF8091A0008C7F33
:1022000082608093A0008091A100807E8061682B15
:102210006093A1005093A7004093A6008091A00076
:102220008860D3CF809120018C7F826080932001D1
:1022300080912101807E8061682B60932101509301
:10224000270140932601809120018068809320011E
:102250000FCF809120018C7F82608093200180913C
:102260002101807E8061682B6093210150932701BA
:1022700040932601809120018062E8CF8091200167
:102280008C7F82608093200180912101807E80611B
:10229000682B609321015093270140932601809180
:1022A00020018860D3CF2F923F924F925F926F921E
:1022B0007F928F929F92AF92BF92CF92DF92EF92D6
:1022C000FF920F931F93CF93DF93CDB7DEB7E197C4
:1022D0000FB6F894DEBF0FBECDBF2090C709309077
:1022E000C8090091C5091091C609E0916E06F091E8
:1022F0006F06C080D180E280F380A7019601D801EB
:102300006D917D918D919C910E94DE2187FD02C08F
:102310000C94D419A7019601F801648975898689FE
:1023200097890E94EE1F181614F00C94D81920916A
:10233000F3093091F4093A8329835901AA0CBB1C93
:10234000AA0CBB1C48018A0C9B1CA7019601D40156
:102350006D917D918D919C910E94DE21B4E0AB0E38
:10236000B11CA00EB11E181614F00C94C719F4E09D
:102370008F1A9108A7019601D40114966D917D9151
:102380008D919C9117970E94DE2118160CF4F3C7CB
:1023900029813A813093F4092093F309220F331FE6
:1023A000220F331F3E832D83F901E00FF11F408080
:1023B0005180628073802C5F3F4F3A832983F901FB
:1023C000E00FF11F80819181A281B3818D879E876B
:1023D000AF87B88B9C01AD01C301B2010E94EE1F13
:1023E0008111F6C7A3019201C701B6010E94EE1F39
:1023F00087FD01C0E3C7AD81BE81A20DB31DBA83C5
:10240000A9838D919D910D90BC91A02D809333094E
:1024100090933409A0933509B0933609209133097C
:102420003091340940913509509136096091660325
:102430007091670380916803909169030E94E22183
:102440006093450970934609809347099093480922
:1024500061E070E080E090E00E94160860936509FA
:102460007093660980936709909368090E948D2094
:1024700020918A0330918B0340918C0350918D03FE
:102480000E94E22120916E0330916F03409170030E
:10249000509171030E94E2216FA779AB382E292E4B
:1024A000CB01A32DB22D8093490990934A09A093A3
:1024B0004B09B0934C0920918E0330918F034091CA
:1024C000900350919103832D922D0E94E2216DA3E0
:1024D0007EA38FA398A78091CF099091D009A09156
:1024E000D109B091D20989879A87AB87BC8720919F
:1024F0009A0330919B0340919C0350919D03BC0132
:10250000CD010E94E22169A77AA78BA79CA7209101
:10251000D7093091D8094091D9095091DA096091D1
:10252000A2037091A3038091A4039091A5030E943C
:10253000E22120E030E0A9010E948A1F20E030E083
:10254000A9010E948A1F20E030E0A9010E948A1F91
:10255000698B79A38DA79EA7CB01ADA5BEA580935E
:102560004D0990934E09A0934F09B09350092091C3
:10257000DB093091DC094091DD095091DE09609161
:10258000BE037091BF038091C0039091C1030E946C
:10259000E22120E030E0A9010E948A1F20E030E023
:1025A000A9010E948A1F20E030E0A9010E948A1F31
:1025B0006D877E878F87988B2091DF093091E009A6
:1025C0004091E1095091E2096091DA037091DB03D7
:1025D0008091DC039091DD030E94E22120E030E055
:1025E000A9010E948A1F20E030E0A9010E948A1FF1
:1025F00069837A838B839C832091E3093091E4097A
:102600004091E5095091E6096091F6037091F70356
:102610008091F8039091F9030E94E22120E030E0DC
:10262000A9010E948A1F6D8F7E8F8F8F98A32091A2
:10263000EB093091EC094091ED095091EE09609160
:102640001A0470911B0480911C0490911D040E9437
:10265000E22120E030E0A9010E948A1F20E030E062
:10266000A9010E948A1F6B017C012091EF09309122
:10267000F0094091F1095091F20960913204709192
:10268000330480913404909135040E94E2212B019F
:102690003C012091E7093091E8094091E909509106
:1026A000EA096091020470910304809104049091FE
:1026B00005040E94E22120E030E0A9010E948A1F67
:1026C00020E030E0A9010E948A1F4B015C012091AB
:1026D0001A0330911B0340911C0350911D036FA5F9
:1026E00079A9832D922D0E94E2219B01AC01C501A5
:1026F000B4010E948A1F4B015C0180925D09909297
:102700005E09A0925F09B092600920911E0330918A
:102710001F0340912003509121036FA579A9832DB8
:10272000922D0E94E221A70196010E948A1F698FC3
:102730007A8F8B8F9C8F20912203309123034091BD
:102740002403509125036FA579A9832D922D0E9412
:10275000E2216B017C0120E030E0A901C301B2015C
:102760000E948A1F9B01AC01C701B6010E948A1F0B
:102770006B017C01C0926109D0926209E092630909
:10278000F092640906E213E0A8EFB8E0BE8BAD8BCF
:102790001E830D830C5F1F4FED81FE8120A131A1AF
:1027A00042A153A1698D7A8D8B8D9C8D0E94E2216F
:1027B0002B013C01AD81BE8150962D913D914D91F3
:1027C0005C915397C501B4010E94E2219B01AC01C9
:1027D000C301B2010E948A1F2B013C01ED81FE81E1
:1027E00020A931A942A953A9C701B6010E94E2213B
:1027F0009B01AC01C301B2010E948A1F2B013C0165
:10280000AD81BE812D913D914D915C916FA579A9CE
:10281000832D922D0E94E2219B01AC01C301B201E4
:102820000E948A1FED89FE89619371938193919330
:10283000FE8BED8B28E039E02E173F0709F0A8CF7B
:1028400080914704813009F01CC62091CB0930915A
:10285000CC094091CD095091CE096DA17EA18FA1E7
:1028600098A50E94891F6093510970935209809323
:1028700053099093540989859A85AB85BC858093CB
:10288000550990935609A0935709B0935809209180
:10289000D3093091D4094091D5095091D60969A541
:1028A0007AA58BA59CA50E94891F609359097093F6
:1028B0005A0980935B0990935C09C0904509D090B8
:1028C0004609E0904709F09048092091510930915C
:1028D00052094091530950915409C701B6010E9411
:1028E0008A1F2091A6023091A7024091A802509120
:1028F000A9020E94E2214B015C012FA539A9432DB9
:10290000522DC701B6010E948A1F2091A202309168
:10291000A3024091A4025091A5020E94E2219B01D2
:10292000AC01C501B4010E948A1F4B015C012091DA
:102930005509309156094091570950915809C701DE
:10294000B6010E948A1F2091AA023091AB024091E9
:10295000AC025091AD020E94E2219B01AC01C50185
:10296000B4010E948A1F4B015C01209159093091EA
:102970005A0940915B0950915C09C701B6010E9458
:102980008A1F2091AE023091AF024091B002509167
:10299000B1020E94E2219B01AC01C501B4010E9479
:1029A0008A1F6B017C0120913309309134094091D9
:1029B00035095091360960918603709187038091A3
:1029C0008803909189030E94E2219B01AC01C70119
:1029D000B6010E948A1F6B017C0169857A858B850F
:1029E0009C859F7720E030E040E45FE30E94EE1F8B
:1029F00020E030E040E85FE387FD03C020E030E006
:102A0000A901C701B6010E94E221609345097093B4
:102A10004609809347099093480920E030E040E25E
:102A200051E40E948A1F2DEC3CEC4CE455E40E94DA
:102A3000E2210E94C8206B017C010E949D1E811131
:102A40008AC5C701B6010E94741E811184C520E0A9
:102A500030E040E857E4C701B6010E94E2206B0174
:102A60007C0120E030E0A9010E94EE1F87FF76C5BF
:102A7000C701B60190580E945F2071956195710958
:102A80007093090960930A0920E030E040E251E4C4
:102A90006091490970914A0980914B0990914C09C4
:102AA0000E948A1F2DEC3CEC4CE455E40E94E2218C
:102AB0000E94C8206B017C010E949D1E811152C59D
:102AC000C701B6010E94741E81114CC520E030E0A0
:102AD00040E857E4C701B6010E94E2206B017C0187
:102AE00020E030E0A9010E94EE1F87FF3EC5C7012C
:102AF000B60190580E945F2071956195710970939D
:102B00000B0960930C0920E030E040E251E4609151
:102B1000CF097091D0098091D1099091D2090E947A
:102B20008A1F2DEC3CEC4CE455E40E94E2210E940B
:102B3000C8206B017C010E949D1E81111AC5C7012E
:102B4000B6010E94741E811114C520E030E040E8F7
:102B500057E4C701B6010E94E2206B017C0120E02E
:102B600030E0A9010E94EE1F87FF06C5C701B6012C
:102B700090580E945F2071956195710970930D09BD
:102B800060930E0920E030E040E251E460914D098D
:102B900070914E0980914F09909150090E948A1FAF
:102BA0002DEC3CEC4CE455E40E94E2210E94C8204C
:102BB0006B017C010E949D1E8111E2C4C701B60118
:102BC0000E94741E8111DCC420E030E040E857E42C
:102BD000C701B6010E94E2206B017C0120E030E0D9
:102BE000A9010E94EE1F87FFCEC4C701B60190580D
:102BF0000E945F2071956195710970930F09609330
:102C0000100920E030E040E251E469817A818B8153
:102C10009C810E948A1F2DEC3CEC4CE455E40E9400
:102C2000E2210E94C8206B017C010E949D1E81113F
:102C3000AEC4C701B6010E94741E8111A8C420E071
:102C400030E040E857E4C701B6010E94E2206B0182
:102C50007C0120E030E0A9010E94EE1F87FF9AC4AA
:102C6000C701B60190580E945F2000271127061B5C
:102C7000170B20E030E040E251E46091F8087091D9
:102C8000F9088091FA089091FB080E948A1F2DECA8
:102C90003CEC4CE455E40E94E2210E94C8206B0108
:102CA0007C010E949D1E81117AC4C701B6010E9459
:102CB000741E811174C420E030E040E857E4C7017D
:102CC000B6010E94E2206B017C0120E030E0A90106
:102CD0000E94EE1F87FF66C4C701B60190580E948C
:102CE0005F207195619571097093130960931409C0
:102CF00020E030E040E251E4609100097091010968
:102D000080910209909103090E948A1F2DEC3CECEE
:102D10004CE455E40E94E2210E94C8206B017C0132
:102D20000E949D1E811142C4C701B601DDD78111E9
:102D30003DC420E030E040E857E4C701B6010E94FE
:102D4000E2206B017C0120E030E0A9010E94EE1F2F
:102D500087FF2FC4C701B60190580E945F20222729
:102D60003327261B370B3E832D83C0907E03D090E4
:102D70007F03E0908003F0908103A70196016091AA
:102D80008F097091900980919109909192090E9408
:102D9000EE1F882341F0C0928F09D0929009E092F3
:102DA0009109F09292098091480480930809109348
:102DB0001109009312093E81309315098D8180938A
:102DC00016096091A3097091A4098091A5099091B9
:102DD000A6090E945F20C62E60919B0970919C09F4
:102DE00080919D0990919E090E945F20E62E60913E
:102DF0009F097091A0098091A1099091A2090E9458
:102E00005F20062F60919709709198098091990928
:102E100090919A090E945F206D836091930970914F
:102E2000940980919509909196090E945F20862FC0
:102E3000912C812C92E0A92E2D814FE050E068E08A
:102E400079E00E944C0180915D0990915E09A0910A
:102E50005F09B0916009898B9A8BAB8BBC8B809199
:102E6000610990916209A0916309B091640989A3F5
:102E70009AA3ABA3BCA38091CF099091D009A09154
:102E8000D109B091D20989879A87AB87BC87809096
:102E9000490990904A09A0904B09B0904C09809143
:102EA000450990914609A0914709B09148098D8B39
:102EB0009E8BAF8BB88F02ED12E0A7E1B9E0BE8325
:102EC000AD8322E3222E22E0322E18AB0FA70C5F37
:102ED0001F4FEFA5F8A92485358546855785698D4F
:102EE0007A8D8B8D9C8D0E94E2216B017C01AFA5B8
:102EF000B8A92D913D914D915C9169897A898B8911
:102F00009C890E94E2219B01AC01C701B6010E948D
:102F10008A1F6B017C01F80124893589468957890C
:102F200069A17AA18BA19CA10E94E2219B01AC0125
:102F3000C701B601EFD76B017C01D801D8962D915E
:102F40003D914D915C91DB9769857A858B859C8558
:102F50000E94E2212B013C01F80124A535A546A5DC
:102F600057A5C501B4010E94E2219B01AC01C30138
:102F7000B201D0D72B013C01D80190962D913D9103
:102F80004D915C9193976D897E898F89988D0E9470
:102F9000E2219B01AC01C301B201BCD79B01AC0192
:102FA000C701B601B7D7ED81FE816193719381931B
:102FB0009193FE83ED832EED32E02017310709F067
:102FC00084CF80914D0990914E09A0914F09B09105
:102FD00050098D839E83AF83B88720918A023091F8
:102FE0008B0240918C0250918D026D857E858F857C
:102FF00098890E94E2216B017C012091820230912C
:10300000830240918402509185026D817E818F817F
:1030100098850E94E2219B01AC01C701B6017AD7D5
:103020006B017C01209192023091930240919402B5
:103030005091950269817A818B819C810E94E22165
:103040009B01AC01C701B60165D76B017C012091E2
:103050009A0230919B0240919C0250919D026D8D8D
:103060007E8D8F8D98A10E94E2219B01AC01C7014A
:10307000B60150D72B013C014092370950923809D4
:103080006092390970923A0920918E0230918F0234
:1030900040919002509191026D857E858F8598892F
:1030A0000E94E2216B017C0120918602309187020F
:1030B00040918802509189026D817E818F8198852F
:1030C0000E94E2219B01AC01C701B60123D76B012D
:1030D0007C01209196023091970240919802509184
:1030E000990269817A818B819C810E94E2219B01F6
:1030F000AC01C701B6010ED76B017C0120919E0285
:1031000030919F024091A0025091A1026D8D7E8D61
:103110008F8D98A10E94E2219B01AC01C701B601ED
:10312000F9D66B017C01C0923B09D0923C09E09238
:103130003D09F0923E09A3019201C501B401E9D60F
:10314000698F7A8F8B8F9C8F6093490970934A099E
:1031500080934B0990934C09A701960169857A8564
:103160008B859C85D6D66B017C01C0925D09D0927F
:103170005E09E0925F09F0926009A3E2B9E0BA8BC0
:10318000A98B02EB12E03AA229A2B4E02B0E311C6B
:103190001A8709870C5F1F4FE9A1FAA1208931899D
:1031A000428953896D857E858F8598890E94E221A9
:1031B0004B015C01A9A1BAA12D913D914D915C916A
:1031C0006D817E818F8198850E94E2219B01AC01F7
:1031D000C501B4019FD64B015C01F101248D358DF1
:1031E000468D578D69817A818B819C810E94E22175
:1031F0009B01AC01C501B4018DD64B015C01D1012D
:103200009C962D913D914D915C919F976D8D7E8DFA
:103210008F8D98A10E94E2219B01AC01C501B401F0
:1032200079D64B015C01E985FA852089318942898B
:103230005389C701B6010E94E2212B013C01A985F7
:10324000BA852D913D914D915C91698D7A8D8B8DD3
:103250009C8D0E94E2219B01AC01C301B2015AD6B0
:103260002B013C01F10124AD35AD46AD57AD6D8963
:103270007E898F89988D0E94E2219B01AC01C30158
:10328000B20148D69B01AC01C501B40143D6A9895E
:10329000BA896D937D938D939D93BA8BA98BE2E44C
:1032A000F2E0E215F30509F06ECF8FE399E00E949A
:1032B000120F60913F0970914009072E000C880B96
:1032C000990B2BD720916A0330916B0340916C03CB
:1032D00050916D031ED620913A0430913B044091E9
:1032E0003C0450913D040E94E2212B013C012091BD
:1032F0008203309183034091840350918503609150
:10330000450970914609809147099091480966D610
:10331000682F661F6627661F88E00E94320F66E0EE
:1033200070E080E090E00E94700F9093C409809359
:10333000C3098090450990904609A0904709B09034
:103340004809C0907A03D0907B03E0907C03F09012
:103350007D03A7019601C501B4010E94DE21181664
:103360000CF02DC1C0924509D0924609E092470960
:10337000F092480933C1E981FA813197FA83E983F0
:103380000C94B711E981FA813196FA83E983D5016A
:103390006D917D918D919D915D01A70196011ED644
:1033A000181684F70C94C8111A8219820C94C8114B
:1033B000E4E0F0E0FA83E9830C94C811E981FA8132
:1033C0002E0E3F1EF10180819181A281B3811EC822
:1033D0002D813E81220D331DD9018D909D90AD90A0
:1033E000BC90E981FA812E0E3F1ED1018D919D91F5
:1033F0000D90BC91A02D89839A83AB83BC839C01E3
:10340000AD01C501B401EAD5882389F1A701960170
:103410006D857E858F8598897CD56B017C01A301A4
:1034200092016D857E858F85988973D59B01AC014E
:10343000C701B601D7D56B017C01AC019B0160E0EF
:1034400070E080E89FE365D529813A814B815C81FA
:10345000B9D72B013C01A5019401C701B601B2D730
:103460009B01AC01C301B20155D54B015C018092B7
:10347000330990923409A0923509B09236090C9420
:103480000E1280914604813059F58D859E85AF8559
:10349000B8898093510990935209A0935309B0932E
:1034A000540989819A81AB81BC818093550990939D
:1034B0005609A0935709B09358098D8D9E8DAF8DF5
:1034C000B8A18093590990935A09A0935B09B093CE
:1034D0005C0999899FA7A9A1A9AB3DA42EA4EDC918
:1034E000B091F808BFA7E091F908E9AB3090FA086D
:1034F0002090FB088091FC089091FD08A091FE08A7
:10350000B091FF088093510990935209A0935309F9
:10351000B09354098091000990910109A09102098A
:10352000B09103098093550990935609A0935709C8
:10353000B09358098091040990910509A09106095A
:10354000B09107098093590990935A09A0935B0998
:10355000B0935C09B2C9C12CD12C7601C701B60168
:10356000AED58ECAC12CD12C7601C701B601A7D524
:10357000C6CAC12CD12C7601C701B601A0D5FECA9E
:10358000C12CD12C7601C701B60199D536CBC12CFF
:10359000D12C7601C701B60192D58B016ACBC12C23
:1035A000D12C7601C701B6018AD59ECBC12CD12C76
:1035B0007601C701B60183D57E836D83D6CBC090DB
:1035C0003E04D0903F04E0904004F0904104A701F5
:1035D0009601C501B40102D587FDC4CE20914509ED
:1035E0003091460940914709509148096091420441
:1035F000709143048091440490914504E3D6C8D56A
:103600006B017C019AD381119FC1C701B6016CD3B4
:1036100081119AC120E030E040E853E4C701B601CF
:10362000D1D56B017C0120E030E0A901D7D487FF20
:103630008EC1C701B601905842D5619570E090E007
:1036400080E06BD5AB01BC018091C3099091C409A6
:103650000E94390F8DA19EA1AFA1B8A58093CB097F
:103660009093CC09A093CD09B093CE0920919203F9
:10367000309193034091940350919503C301B2019B
:10368000A1D62091CF093091D0094091D109509114
:10369000D20940D46093CF097093D0098093D109A7
:1036A0009093D20989A59AA5ABA5BCA58093D3090F
:1036B0009093D409A093D509B093D6092091D70946
:1036C0003091D8094091D9095091DA0960919E034F
:1036D00070919F038091A0039091A10373D62091D4
:1036E000230930912409409125095091260912D4CB
:1036F0006093D7097093D8098093D9099093DA0918
:103700002091DB093091DC094091DD095091DE09FF
:103710006091BA037091BB038091BC039091BD038B
:1037200051D62091270930912809409129095091BB
:103730002A09F0D36093DB097093DC098093DD09DB
:103740009093DE092091DF093091E0094091E10971
:103750005091E2096091D6037091D7038091D8030C
:103760009091D9032FD620912B0930912C094091AB
:103770002D0950912E09CED36093DF097093E00993
:103780008093E1099093E2092091E3093091E409E3
:103790004091E5095091E6096091F2037091F303BD
:1037A0008091F4039091F5030DD620912F0930916B
:1037B00030094091310950913209ACD36093E3094B
:1037C0007093E4098093E5099093E6092091E70955
:1037D0003091E8094091E9095091EA096091FE03AE
:1037E0007091FF038091000490910104EBD520912A
:1037F0001709309118094091190950911A098AD373
:103800006093E7097093E8098093E9099093EA09C6
:103810002091EB093091EC094091ED095091EE09AE
:103820006091160470911704809118049091190406
:10383000C9D520911B0930911C0940911D09509157
:103840001E0968D36093EB097093EC098093ED092E
:103850009093EE092091EF093091F0094091F10920
:103860005091F20960912E0470912F0480913004E0
:1038700090913104A7D520911F09309120094091E2
:1038800021095091220946D36093EF097093F00902
:103890008093F1099093F20960916006709161063E
:1038A00080916206909163066F5F7F4F8F4F9F4FAD
:1038B000609360067093610680936206909363063E
:1038C000A0916E06B0916F06BA83A98324D49B01A0
:1038D000AC016091640670916506809166069091D6
:1038E000670670D5E981FA8160837183828393834F
:1038F0008091680690916906A0916A06B0916B0666
:103900000196A11DB11D8093680690936906A0934E
:103910006A06B0936B06E1960FB6F894DEBF0FBE51
:10392000CDBFDF91CF911F910F91FF90EF90DF906E
:10393000CF90BF90AF909F908F907F906F905F904F
:103940004F903F902F900895C12CD12C7601C70144
:10395000B601B5D373CE8F929F92AF92BF92DF9292
:10396000EF92FF920F931F93CF93DF9384E090E049
:1039700084D18091F5099091F609A091F709B09151
:10398000F80980936A0390936B03A0936C03B09340
:103990006D03ECEDF5E08CE9DF011D928A95E9F706
:1039A0008CE696E095838483CEE6D6E0D7AFC6AFAB
:1039B00004E616E0138B028BF0934506E093440671
:1039C000F383E28321E030E0DC012D933C938FE729
:1039D00094E09187808780E796E0998388834AE026
:1039E00057ED63EA7BE3F80140835183628373837D
:1039F000E8EFF8E081E7DF011D928A95E9F7C9E673
:103A0000D9E08CE8FE0111928A95E9F78AE192E00B
:103A10009093C6098093C50982E092E09093C8090B
:103A20008093C709812C912C540183948092AA0918
:103A30009092AB09A092AC09B092AD0942E150E07E
:103A400063E170E081E090E00E942207DD24D394DE
:103A5000D092AE09188280917E0390917F03A0914D
:103A60008003B09181038EA39FA3A8A7B9A78982E1
:103A70009A82AB82BC821AA61BA61CA61DA680E059
:103A800090E0A0E8BFE38EA79FA7A8ABB9AB1AAAA6
:103A90001BAA1CAA1DAA1EAA1FAA18AE19AE1AAEEE
:103AA0001BAE1CAE1DAE80E00E942D01DD82109287
:103AB000AF098092B0099092B109A092B209B09278
:103AC000B30990E080E00E94050FD092B4091092F3
:103AD000B5098092B6099092B709A092B809B09240
:103AE000B90961E088E00E942A0FD092BA091092C9
:103AF000BD09C2ECD9E018828092BE099092BF093C
:103B0000A092C009B092C109E12CF12C8701A80153
:103B1000970166E070E080E090E00E94B40F90931F
:103B2000C4098093C309D882809172039091730372
:103B3000A0917403B09175038093CB099093CC0945
:103B4000A093CD09B093CE098091960390919703ED
:103B5000A0919803B09199038093CF099093D009D5
:103B6000A093D109B093D209809176039091770305
:103B7000A0917803B09179038093D3099093D409ED
:103B8000A093D509B093D609DF91CF911F910F91E2
:103B9000FF90EF90DF90BF90AF909F908F9008952F
:103BA0008091A909811103C081E08093A9098091C6
:103BB0006909811103C081E0809369098091AF098F
:103BC000811103C081E08093AF098091B509811113
:103BD00003C081E08093B5098091BD0981112EC099
:103BE00081E08093BD098091BE099091BF09A091A9
:103BF000C009B091C1090197A105B105F9F48091FF
:103C0000C2098823D9F066E070E080E090E00E946D
:103C1000700F9093C4098093C30940E050E0BA014B
:103C20000E94390F66E070E080E090E00E94700F23
:103C30009093C4098093C3090C940510089560E023
:103C400070E080E89FE7089560E070E080E89FE71B
:103C5000089560E070E080E89FEF089560E070E014
:103C600080E89FEF089560E070E080EC9FEF08959A
:103C700060E070E080EC9FEF0895F5DF6093010A4B
:103C80007093020A8093030A9093040AF1DF609311
:103C9000F5097093F6098093F7099093F809CFDF3F
:103CA0006093FD097093FE098093FF099093000AC9
:103CB000CBDF6093F9097093FA098093FB09909325
:103CC000FC09C7DF6093050A7093060A8093070A10
:103CD0009093080AC3DF6093090A70930A0A8093DD
:103CE0000B0A90930C0A0895CF92DF92EF92FF9205
:103CF000CF936B017C01AC019B016091F90970913C
:103D0000FA098091FB099091FC0968D1C1E08823F0
:103D100069F0A70196016091090A70910A0A8091E1
:103D20000B0A90910C0A5AD18111C0E08C2FCF91CF
:103D3000FF90EF90DF90CF9008950F931F938B012A
:103D40009C010027112720783F7701151105204895
:103D50003F4749F4AB01BC016F77772781E0452BE2
:103D6000462B472B09F480E01F910F91089540E006
:103D700052EC61E070E090E080E006D061E08DE020
:103D80006ED760E08DE0A7C78130910579F01CF413
:103D9000892B39F008958230910561F0039771F015
:103DA000089526E084E896E00C94622726E081E2FC
:103DB00097E0FACF26E08EEB97E0F6CF26E08BE592
:103DC00098E0F2CF1F920F920FB60F9211240BB60C
:103DD0000F922F933F934F935F936F937F938F93A4
:103DE0009F93AF93BF93EF93FF938EE19BEF9093DD
:103DF0002501809324018091790690917A0601979C
:103E000019F461E08DE067D734D0FF91EF91BF9155
:103E1000AF919F918F917F916F915F914F913F9162
:103E20002F910F900BBE0F900FBE0F901F90189503
:103E30008EE19BEF9093250180932401A3E7B0E0EE
:103E40008C918E7F8C93E0E2F1E080818C7F808387
:103E5000E1E2F1E08081877E8083808183608083DE
:103E600080818B7F80838C9181608C93089581E029
:103E700008958091780691E0980F909378068823B2
:103E800049F021E030E030937A0620937906809360
:103E90007806089578940E945311F89480917806DA
:103EA0008150F5CFCF93DF9310920E0A10920D0A36
:103EB0003AD55DDFC0919104D091920419821882A5
:103EC0004ADDF894B5DF81E028813981232B09F0A0
:103ED00080E080930D0A7894789480910D0A811186
:103EE00007C05EDEF89490E080E0DF91CF91089506
:103EF00081E028813981232B09F480E080930E0A28
:103F000090910E0A81E0911180E080930D0AAFDF5D
:103F1000E4CF5058BB27AA270ED0FFC1F0D130F014
:103F2000F5D120F031F49F3F11F41EF4E5C10EF4F9
:103F3000E095E7FBB2C1E92F01D280F3BA1762071F
:103F400073078407950718F071F49EF530C20EF4DC
:103F5000E0950B2EBA2FA02D0B01B90190010C0199
:103F6000CA01A0011124FF27591B99F0593F50F4B1
:103F7000503E68F11A16F040A22F232F342F442709
:103F8000585FF3CF469537952795A795F040539501
:103F9000C9F77EF41F16BA0B620B730B840BBAF0D1
:103FA0009150A1F0FF0FBB1F661F771F881FC2F73C
:103FB0000EC0BA0F621F731F841F48F48795779550
:103FC0006795B795F7959E3F08F0B3CF9395880F07
:103FD00008F09927EE0F9795879508953AD108F440
:103FE00081E008950CD099C191D140F088D130F092
:103FF00021F45F3F19F051C15111DAC17DC19ED149
:1040000098F39923C9F35523B1F3951B550BBB279F
:10401000AA2762177307840738F09F5F5F4F220F4C
:10402000331F441FAA1FA9F333D00E2E3AF0E0E845
:1040300030D091505040E695001CCAF729D0FE2F91
:1040400027D0660F771F881FBB1F26173707480723
:10405000AB07B0E809F0BB0B802DBF01FF279358D9
:104060005F4F2AF09E3F510568F017C1A1C15F3F25
:10407000ECF3983EDCF3869577956795B795F795C1
:104080009F5FC9F7880F911D9695879597F90895B9
:10409000E1E0660F771F881FBB1F62177307840755
:1040A000BA0720F0621B730B840BBA0BEE1F88F764
:1040B000E095089504D06894B1117AC1089546D16D
:1040C00088F09F5790F0B92F9927B751A0F0D1F001
:1040D000660F771F881F991F1AF0BA95C9F712C08B
:1040E000B13081F064D1B1E0089561C1672F782FBC
:1040F0008827B85F39F0B93FCCF3869577956795F7
:10410000B395D9F73EF490958095709561957F4F62
:104110008F4F9F4F0895E89409C097FB3EF4909508
:104120008095709561957F4F8F4F9F4F9923A9F090
:10413000F92F96E9BB279395F6958795779567951F
:10414000B795F111F8CFFAF4BB0F11F460FF1BC063
:104150006F5F7F4F8F4F9F4F16C0882311F096E9F6
:1041600011C0772321F09EE8872F762F05C06623A4
:1041700071F096E8862F70E060E02AF09A95660F5D
:10418000771F881FDAF7880F9695879597F9089516
:10419000F7D080F09F3740F491110EF009C160E034
:1041A00070E080E89FEB089526F41B16611D711DD9
:1041B000811D79C093C0A3D018F011F0A7D038F4B6
:1041C0009BC0F6C0E92FBAD0B0F35523C9F3E7FB83
:1041D0006217730784079507A8F199F3E92FFF2762
:1041E00088232AF03197660F771F881FDAF7952FFB
:1041F0005527442332F091505040220F331F441F63
:10420000D2F7BB27E91BF50B621B730B840BB109BB
:10421000C1F222F4620F731F841FB11D31972AF07F
:10422000660F771F881FBB1FEFCF915050405AF089
:1042300041F0882332F0660F771F881F915050405D
:10424000C1F793954BC08695779567959F5FD9F792
:10425000F8CF990F0008550FAA0BE0E8FEEF1616ED
:104260001706E807F907C0F012161306E407F5076A
:1042700098F0621B730B840B950B39F40A2661F0DE
:10428000232B242B252B21F408950A2609F4A14081
:10429000A6958FEF811D811D089597F99F6780E88E
:1042A00070E060E00895882371F4772321F098503E
:1042B000872B762F07C0662311F499270DC09051E4
:1042C000862B70E060E02AF09A95660F771F881FB2
:1042D000DAF7880F9695879597F908959F3F31F003
:1042E000915020F4879577956795B795880F911D24
:1042F0009695879597F908959FEF80EC089500248F
:104300000A941616170618060906089500240A943A
:1043100012161306140605060895092E0394000CC0
:1043200011F4882352F0BB0F40F4BF2B11F460FF4F
:1043300004C06F5F7F4F8F4F9F4F089557FD905878
:10434000440F551F59F05F3F71F04795880F97FB59
:10435000991F61F09F3F79F0879508951216130613
:104360001406551FF2CF4695F1DF08C01616170642
:104370001806991FF1CF8695710561050894089577
:10438000E5DFA0F0BEE7B91788F4BB279F3860F4DB
:104390001616B11D672F782F8827985FF7CF86955F
:1043A00077956795B11D93959639C8F30895E8946C
:1043B000BB2766277727CB0197F908954ADF08F4D2
:1043C0008FEF08950BD0A9CF9ADF28F09FDF18F068
:1043D000952309F062CF90CF1124EACFAFDFA0F38D
:1043E000959FD1F3950F50E0551F629FF001729F8A
:1043F000BB27F00DB11D639FAA27F00DB11DAA1FA9
:10440000649F6627B00DA11D661F829F2227B00DF5
:10441000A11D621F739FB00DA11D621F839FA00D80
:10442000611D221F749F3327A00D611D231F849FD0
:10443000600D211D822F762F6A2F11249F57504027
:104440008AF0E1F088234AF0EE0FFF1FBB1F661FC2
:10445000771F881F91505040A9F79E3F510570F07B
:104460001CCFA6CF5F3FECF3983EDCF386957795A3
:104470006795B795F795E7959F5FC1F7FE2B880F76
:10448000911D9695879597F908950895883008F0BD
:1044900076C0E82FF0E0EE0FFF1FE75BFB4F718364
:1044A00060838150873008F03DC0E82FF0E0882716
:1044B000E35AFD4D8F4F0C944B2C9A2264226C22B0
:1044C00078228522A622B322809169008C7F482B16
:1044D00040936900E89A089580916900837F440FB2
:1044E000551F440F551F482B40936900E99A0895C2
:1044F000809169008F7C74E0440F551F7A95E1F735
:10450000482B40936900EA9A0895809169008F735F
:1045100066E0440F551F6A95E1F7482B4093690008
:10452000EB9A089580916A008C7F482B40936A0033
:10453000EC9A089580916A00837F440F551F440FC1
:10454000551F482B40936A00ED9A089580916A00A8
:104550008F7C24E0440F551F2A95E1F7482B4093A8
:104560006A00EE9A089580916A008F7396E0440F76
:10457000551F9A95E1F7482B40936A00EF9A0895EA
:104580001F920F920FB60F9211240BB60F922F931A
:104590003F934F935F936F937F938F939F93AF93CB
:1045A000BF93EF93FF93E0914D04F0914E04199562
:1045B000FF91EF91BF91AF919F918F917F916F91FB
:1045C0005F914F913F912F910F900BBE0F900FBEB7
:1045D0000F901F9018951F920F920FB60F921124F3
:1045E0000BB60F922F933F934F935F936F937F93ED
:1045F0008F939F93AF93BF93EF93FF93E0914F04FB
:10460000F09150041995FF91EF91BF91AF919F9157
:104610008F917F916F915F914F913F912F910F906B
:104620000BBE0F900FBE0F901F9018951F920F9208
:104630000FB60F9211240BB60F922F933F934F9307
:104640005F936F937F938F939F93AF93BF93EF93FA
:10465000FF93E0915104F09152041995FF91EF916D
:10466000BF91AF919F918F917F916F915F914F918A
:104670003F912F910F900BBE0F900FBE0F901F9088
:1046800018951F920F920FB60F9211240BB60F922E
:104690002F933F934F935F936F937F938F939F934A
:1046A000AF93BF93EF93FF93E0915304F0915404C1
:1046B0001995FF91EF91BF91AF919F918F917F914C
:1046C0006F915F914F913F912F910F900BBE0F9083
:1046D0000FBE0F901F9018951F920F920FB60F925A
:1046E00011240BB60F922F933F934F935F936F93C9
:1046F0007F938F939F93AF93BF93EF93FF93E0913B
:104700004904F0914A041995FF91EF91BF91AF913F
:104710009F918F917F916F915F914F913F912F91D9
:104720000F900BBE0F900FBE0F901F9018951F9209
:104730000F920FB60F9211240BB60F922F933F9347
:104740004F935F936F937F938F939F93AF93BF9399
:10475000EF93FF93E0914B04F0914C041995FF9176
:10476000EF91BF91AF919F918F917F916F915F91E9
:104770004F913F912F910F900BBE0F900FBE0F9056
:104780001F9018951F920F920FB60F9211240BB61F
:104790000F922F933F934F935F936F937F938F93DA
:1047A0009F93AF93BF93EF93FF93E0915504F091E4
:1047B00056041995FF91EF91BF91AF919F918F9101
:1047C0007F916F915F914F913F912F910F900BBE11
:1047D0000F900FBE0F901F9018951F920F920FB65B
:1047E0000F9211240BB60F922F933F934F935F9329
:1047F0006F937F938F939F93AF93BF93EF93FF93A9
:10480000E0915704F09158041995FF91EF91BF91F1
:10481000AF919F918F917F916F915F914F913F9158
:104820002F910F900BBE0F900FBE0F901F901895F9
:104830001F920F920FB60F9211242F933F938F93D5
:104840009F93AF93BF9380917C0690917D06A0913A
:104850007E06B0917F0630917B0623E0230F2D3733
:1048600058F50196A11DB11D20937B0680937C060F
:1048700090937D06A0937E06B0937F06809180067C
:1048800090918106A0918206B09183060196A11DA8
:10489000B11D8093800690938106A0938206B09309
:1048A0008306BF91AF919F918F913F912F910F9070
:1048B0000FBE0F901F90189526E8230F0296A11D9A
:1048C000B11DD2CF2FB7F89460917C0670917D0610
:1048D00080917E0690917F062FBF08953FB7F89490
:1048E0008091800690918106A0918206B091830606
:1048F00026B5A89B05C02F3F19F00196A11DB11D3B
:104900003FBFBA2FA92F982F8827BC01CD01620F76
:10491000711D811D911D42E0660F771F881F991F31
:104920004A95D1F70895789484B5826084BD84B5A2
:10493000816084BD85B5826085BD85B5816085BD9A
:10494000EEE6F0E0808181608083E1E8F0E01082B3
:10495000808182608083808181608083E0E8F0E0F4
:10496000808181608083E1EBF0E0808184608083DE
:10497000E0EBF0E0808181608083E1E9F0E080811C
:1049800082608083808181608083E0E9F0E08081C3
:1049900081608083E1EAF0E08081826080838081B1
:1049A00081608083E0EAF0E0808181608083E1E2E1
:1049B000F1E0808182608083808181608083E0E299
:1049C000F1E0808181608083EAE7F0E080818460AB
:1049D0008083808182608083808181608083808108
:1049E000806880831092C10008951F93CF93DF9356
:1049F000182FEB0161E033D1209731F460E0812F73
:104A0000DF91CF911F9167C1CF3FD10511F461E0D4
:104A1000F6CFE12FF0E0EC51FF4FE491E150E231AD
:104A200008F0B2C0F0E08827E85EFA4D8F4F33C738
:104A30002A253225372541254B25C42555255D25B9
:104A400065256F257925832592259C25C425A625D6
:104A5000B025BA2584B5806884BDC7BDDF91CF91EC
:104A60001F91089584B5806284BDC8BDF7CF809141
:104A70008000806880938000D0938900C093880074
:104A8000EDCF80918000806280938000D0938B0076
:104A9000C0938A00E3CF809180008860809380007B
:104AA000D0938D00C0938C00D9CF8091B0008068E6
:104AB0008093B000C093B300D1CF8091B0008062EA
:104AC0008093B000C093B400C9CF809190008068FB
:104AD00080939000D0939900C0939800BFCF8091AD
:104AE0009000806280939000D0939B00C0939A00C6
:104AF000B5CF80919000886080939000D0939D0006
:104B0000C0939C00ABCF8091A00080688093A000F0
:104B10008091A0008F7B8093A000D093A900C093C8
:104B2000A8009CCF8091A00080628093A000D093C9
:104B3000AB00C093AA0092CF8091A00088608093C0
:104B4000A000D093AD00C093AC0088CF809120012D
:104B5000806880932001D0932901C09328017ECFE3
:104B600080912001806280932001D0932B01C0931B
:104B70002A0174CF80912001886080932001D09316
:104B80002D01C0932C016ACFC038D1050CF03FCF66
:104B900035CF8150823108F059C0E82FF0E08827E6
:104BA000EC52FA4D8F4F77C6F425F825E625EC2513
:104BB000F0252626FB25012605260B260F26132683
:104BC00019261D262626212627262B2680918000A1
:104BD0008F77809380000895809180008F7DF9CF3A
:104BE00080918000877FF5CF84B58F7784BD08954D
:104BF00084B58F7DFBCF8091B0008F778093B0001C
:104C000008958091B0008F7DF9CF809190008F77CB
:104C1000809390000895809190008F7DF9CF8091CE
:104C20009000877FF5CF8091A0008F778093A000C0
:104C300008958091A0008F7DF9CF8091A000877F9B
:104C4000F5CF809120018F77809320010895809186
:104C500020018F7DF9CF80912001877FF5CFCF9301
:104C6000DF9390E0FC01E65DFE4F249180599E4F5A
:104C7000FC0184918823C9F090E0880F991FFC0102
:104C8000E053FE4FA591B491FC01EA54FE4FC5914B
:104C9000D49161110DC09FB7F8948C912095822317
:104CA0008C938881282328839FBFDF91CF9108951B
:104CB000623051F49FB7F8943C91822F8095832302
:104CC0008C93E8812E2BEFCF8FB7F894EC912E2B9D
:104CD0002C938FBFEACF1F93CF93DF93282F30E021
:104CE000F901EC51FF4F8491F901E65DFE4FD4913B
:104CF000F901E059FE4FC491CC23A1F0162F811188
:104D000048DFEC2FF0E0EE0FFF1FEA54FE4FA591B5
:104D1000B4918FB7F894EC91111108C0D095DE23AF
:104D2000DC938FBFDF91CF911F910895DE2BF8CFD9
:104D3000FC01918D228D892F90E0805C9F4F821B1A
:104D400091098F7399270895FC01918D828D981791
:104D500031F0828DE80FF11D858D90E008958FEF81
:104D60009FEF0895FC01918D828D981761F0A28DBF
:104D7000AE0FBF2FB11D5D968C91928D9F5F9F737B
:104D8000928F90E008958FEF9FEF0895FC01538D6F
:104D9000448D252F30E0842F90E0821B930B541715
:104DA00010F0CF96089501970895FC01A48DA80FE7
:104DB000B92FB11DA35ABF4F2C91848D90E001965D
:104DC0008F739927848FA689B7892C93A089B1897D
:104DD0008C91837080648C93938D848D981306C01E
:104DE0000288F389E02D80818F7D80830895CF93A1
:104DF000DF93EC01888D8823B1F0AA89BB89E8890B
:104E0000F9898C9185FD03C0808186FD0CC00FB6A9
:104E100007FCF7CF8C9185FFF2CF808185FFEDCF26
:104E2000CE01C3DFEACFDF91CF910895EF92FF92D9
:104E30000F931F93CF93DF93EC0181E0888F9B8DBD
:104E40008C8D98131AC0E889F989808185FF15C077
:104E50009FB7F894EE89FF896083E889F98980819A
:104E60008370806480839FBF81E090E0DF91CF9169
:104E70001F910F91FF90EF900895F62E0B8D10E08B
:104E80000F5F1F4F0F731127E02E8C8D8E110BC0FB
:104E90000FB607FCFACFE889F989808185FFF5CF45
:104EA000CE0183DFF2CFEB8DEC0FFD2FF11DE35A26
:104EB000FF4FF0829FB7F8940B8FEA89FB898081BE
:104EC0008062D0CFCF92DF92EF92FF921F93CF9369
:104ED000DF93EC016A017B01122FE889F98982E0F6
:104EE0008083C11481EED806E104F10499F060E0FA
:104EF00079E08DE390E0A7019601ABD42150310910
:104F0000410951095695479537952795211580E117
:104F1000380790F0E889F989108260E874E88EE13A
:104F200090E0A701960195D421503109410951091A
:104F30005695479537952795EC85FD853083EE8509
:104F4000FF852083188EEC89FD891083EA89FB890F
:104F5000808180618083EA89FB8980818860808389
:104F6000EA89FB89808180688083EA89FB89808166
:104F70008F7D8083DF91CF911F91FF90EF90DF9025
:104F8000CF9008951F920F920FB60F9211240BB677
:104F90000F922F938F939F93EF93FF93E09194063B
:104FA000F09195068081E0919A06F0919B0682FD32
:104FB0001DC0908180919D068F5F8F7320919E060A
:104FC000821741F0E0919D06F0E0EC57F94F958F84
:104FD00080939D06FF91EF919F918F912F910F905C
:104FE0000BBE0F900FBE0F901F9018958081F2CFCF
:104FF0001F920F920FB60F9211240BB60F922F93A0
:105000003F934F935F936F937F938F939F93AF9350
:10501000BF93EF93FF9384E896E0C7DEFF91EF9193
:10502000BF91AF919F918F917F916F915F914F91C0
:105030003F912F910F900BBE0F900FBE0F901F90BE
:105040001895E4E8F6E01382128288EE93E0A0E07F
:10505000B0E084839583A683B78387E994E0918346
:10506000808385EC90E09587848784EC90E0978737
:10507000868780EC90E0918B808B81EC90E0938B25
:10508000828B82EC90E0958B848B86EC90E0978B02
:10509000868B118E128E138E148E08951F920F928E
:1050A0000FB60F9211240BB60F922F938F939F93ED
:1050B000EF93FF93E0913107F09132078081E09107
:1050C0003707F091380782FD1DC0908180913A0723
:1050D0008F5F8F7320913B07821741F0E0913A0771
:1050E000F0E0EF5DF84F958F80933A07FF91EF91D5
:1050F0009F918F912F910F900BBE0F900FBE0F902D
:105100001F9018958081F2CF1F920F920FB60F92C9
:1051100011240BB60F922F933F934F935F936F938E
:105120007F938F939F93AF93BF93EF93FF9381E20E
:1051300097E03BDEFF91EF91BF91AF919F918F91EF
:105140007F916F915F914F913F912F910F900BBE87
:105150000F900FBE0F901F901895E1E2F7E01382B9
:10516000128288EE93E0A0E0B0E084839583A6836A
:10517000B78387E994E0918380838DEC90E09587F5
:1051800084878CEC90E09787868788EC90E0918B01
:10519000808B89EC90E0938B828B8AEC90E0958BEE
:1051A000848B8EEC90E0978B868B118E128E138EF3
:1051B000148E08951F920F920FB60F9211240BB602
:1051C0000F922F938F939F93EF93FF93E091CE07CE
:1051D000F091CF078081E091D407F091D50782FD4F
:1051E0001DC090818091D7078F5F8F732091D80762
:1051F000821741F0E091D707F0E0E254F84F958F25
:105200008093D707FF91EF919F918F912F910F90EE
:105210000BBE0F900FBE0F901F9018958081F2CF9C
:105220001F920F920FB60F9211240BB60F922F936D
:105230003F934F935F936F937F938F939F93AF931E
:10524000BF93EF93FF938EEB97E0AFDDFF91EF916C
:10525000BF91AF919F918F917F916F915F914F918E
:105260003F912F910F900BBE0F900FBE0F901F908C
:105270001895EEEBF7E01382128288EE93E0A0E03F
:10528000B0E084839583A683B78387E994E0918314
:10529000808385ED90E09587848784ED90E0978703
:1052A000868780ED90E0918B808B81ED90E0938BF1
:1052B000828B82ED90E0958B848B86ED90E0978BCE
:1052C000868B118E128E138E148E08951F920F925C
:1052D0000FB60F9211240BB60F922F938F939F93BB
:1052E000EF93FF93E0916B08F0916C088081E0915F
:1052F0007108F091720882FD1DC090818091740840
:105300008F5F8F7320917508821741F0E0917408C8
:10531000F0E0E55AF74F958F80937408FF91EF9175
:105320009F918F912F910F900BBE0F900FBE0F90FA
:105330001F9018958081F2CF1F920F920FB60F9297
:1053400011240BB60F922F933F934F935F936F935C
:105350007F938F939F93AF93BF93EF93FF938BE5CF
:1053600098E023DDFF91EF91BF91AF919F918F91D5
:105370007F916F915F914F913F912F910F900BBE55
:105380000F900FBE0F901F901895EBE5F8E0138279
:10539000128288EE93E0A0E0B0E084839583A68338
:1053A000B78387E994E09183808385E391E09587D3
:1053B000848784E391E09787868780E391E0918BEF
:1053C000808B81E391E0938B828B82E391E0958BDC
:1053D000848B86E391E0978B868B118E128E138ED1
:1053E000148E0895AF92BF92CF92DF92EF92FF9208
:1053F0000F931F93CF93DF936C017B018B01040FFD
:10540000151FEB015E01AE18BF08C017D10759F098
:105410006991D601ED91FC910190F081E02DC601DA
:105420001995892B79F7C501DF91CF911F910F91C4
:10543000FF90EF90DF90CF90BF90AF900895FB0169
:1054400001900020E9F73197AF01461B570BDC01B3
:10545000ED91FC910280F381E02D199461157105A5
:1054600009F0EDCF90E080E00895DC01ED91FC9132
:105470000190F081E02D199465EA74E0E0CF8F92FD
:105480009F92AF92BF92EF92FF920F931F93CF9391
:10549000DF93CDB7DEB7A1970FB6F894DEBF0FBE8E
:1054A000CDBF7C01FA01CB0119A2223008F42AE019
:1054B0008E010F5D1F4F822E912CB12CA12CBF01AC
:1054C000A5019401C6D1F901CA016A3004F5605DF5
:1054D000D8016E938D01232B242B252B81F790E08F
:1054E00080E0109719F0BD01C701A9DFA1960FB6A2
:1054F000F894DEBF0FBECDBFDF91CF911F910F910A
:10550000FF90EF90BF90AF909F908F900895695C4F
:10551000DFCFCF92DF92EF92FF920F931F93CF9343
:10552000DF932115310581F4DC01ED91FC910190AF
:10553000F081E02D642FDF91CF911F910F91FF90AB
:10554000EF90DF90CF9019942A303105F1F42AE0E2
:1055500077FF1BC06A017B01EC016DE286DF8C01E5
:1055600044275527BA014C195D096E097F092AE0C5
:10557000CE0185DF800F911FDF91CF911F910F9199
:10558000FF90EF90DF90CF900895DF91CF911F9122
:105590000F91FF90EF90DF90CF9071CF9A01AB0108
:1055A000770F660B770BB5CF0F931F93CF93DF93D6
:1055B000EC01F4DF8C01CE015FDF800F911FDF91E2
:1055C000CF911F910F9108950F931F93CF93DF9366
:1055D000EC019FDF8C01CE014FDF800F911FDF9127
:1055E000CF911F910F9108952115310541F4DC01F0
:1055F000ED91FC910190F081E02D642F19943FCF43
:105600009A01462F50E070E060E0EECF0F931F93B9
:10561000CF93DF93EC01F4DF8C01CE012DDF800FFF
:10562000911FDF91CF911F910F9108959A01AB01C6
:1056300070E060E0D9CF0F931F93CF93DF93EC011D
:10564000F5DF8C01CE0118DF800F911FDF91CF9124
:105650001F910F9108950F931F93CF93DF93EC0148
:10566000C3DF8C01CE0108DF800F911FDF91CF9146
:105670001F910F9108952F923F924F925F926F92D8
:105680007F928F929F92AF92BF92CF92DF92EF92D2
:10569000FF921F93CF93DF93EC016A017B01722E7F
:1056A000AB019601CB01B601FED068EA74E081112E
:1056B00025C046015701E894B7F82FEF3FEF4FE7B9
:1056C0005FE7C501B401EFD081110CC02FEF3FEFB0
:1056D0004FE75FE7C501B4010E94EE1F6CEA74E07A
:1056E000181664F02FEF3FEF4FE75FE4C701B601F4
:1056F0000E94DE211816ACF460EB74E0CE01DF915D
:10570000CF911F91FF90EF90DF90CF90BF90AF901F
:105710009F908F907F906F905F904F903F902F90D1
:105720008ECE2FEF3FEF4FE75FECC701B6010E942F
:10573000EE1F87FDE1CF20E030E0A901C701B601EF
:105740000E94EE1F312C212C87FF08C06DE2CE0194
:105750008CDE1C01F7FAF094F7F8F09410E060E0AA
:1057600070E080E09FE3711641F020E030E040E21D
:1057700051E40E94F21F1F5FF6CFA70196010E941D
:105780008A1F2B013C010E945F204B015C012AE033
:10579000BC01A401CE0173DE7C01E20CF31C1123D9
:1057A000A1F1C501B4010E948B209B01AC01C30192
:1057B000B2010E94891F4B015C016EE2CE0155DEF1
:1057C000E80EF91E115008F120E030E040E251E40B
:1057D000C501B4010E94E2212B013C010E945F201F
:1057E0004B014AE050E0CE0121DFE80EF91EB40182
:1057F00090E080E00E948B209B01AC01C301B201CC
:105800000E94891F4B015C01DDCFC701DF91CF9161
:105810001F91FF90EF90DF90CF90BF90AF909F903F
:105820008F907F906F905F904F903F902F90089552
:1058300022CF0F931F93CF93DF93EC011CDF8C01DA
:10584000CE011ADE800F911FDF91CF911F910F9132
:105850000895A1E21A2EAA1BBB1BFD010DC0AA1FB1
:10586000BB1FEE1FFF1FA217B307E407F50720F0C9
:10587000A21BB30BE40BF50B661F771F881F991F44
:105880001A9469F760957095809590959B01AC018D
:10589000BD01CF010895EE0FFF1F881F8BBF07903A
:1058A000F691E02D19940E942921880B990B0895F7
:0458B000F894FFCF9A
:1058B400E80300000000D7A3703FD7A3703F1F8503
:1058C4000B401F850B40713DCA3F000000000000E3
:1058D400204100002041000070420000704200009E
:1058E400F0420000803F00000000000000000000C3
:1058F400000037250E3BAE1B2D3EC6E74A3C0E9CEE
:105904006840D58515B88DB41CBC9213803FF28FC6
:105914005F3E1F047838A6058E3C43509B3BD077EE
:105924006C3FAE980C39C036213DC04E19BA229452
:105934002FBE0000803F00000000000000000000B7
:105944000000000000000000803F00000000000094
:1059540000006403F7C0AD710AC2E54339C2405286
:1059640007C153C81F3DC8B1D4BFA7AD83BC58B14C
:10597400E840BF9918BCB54CC340347D8B3EA62784
:10598400C9C1BDEA793F453BBA3AD6A12ABD890BC4
:10599400DE3A08C0763F2B26BABBCE25213DF584DE
:1059A400913BA5CF523F0FCDB63D037DA5BA31251E
:1059B400CCBE9413BA434EC0A1C0D6DCD3C4ACE968
:1059C400C8BCA32E173D25A0913E9413BAC34EC064
:1059D400A140D6DCD3440000803F0000000000005A
:1059E400000000000080000000000000803F000074
:1059F4000000000000800000000000000000000023
:105A0400803F000000800000008000000080000053
:105A140000800000803F6403F7C0000000007CF2B7
:105A2400B03C000000000000000000001041000035
:105A34000000000000000000008035FA0EBC0000E9
:105A440048430AD7A33B000000000000484300007D
:105A540000800000803F0000000000000000000003
:105A640000000000000000000000000000800000B2
:105A7400803F000000000000000000000000000063
:105A8400000000000000000000800000803F0000D3
:105A94000000000000000000000000000000000002
:105AA4000000000000800000803F000000000000B3
:105AB40000800000803F00000000000000000000A3
:105AC400000000000000000000800000803F000093
:105AD40000000000000000000000000000000000C2
